{
  "contractName": "LoanContract",
  "abi": [
    {
      "inputs": [
        {
          "internalType": "uint256",
          "name": "_termLength",
          "type": "uint256"
        },
        {
          "internalType": "uint256",
          "name": "_minAmount",
          "type": "uint256"
        },
        {
          "internalType": "uint256",
          "name": "_maxAmount",
          "type": "uint256"
        },
        {
          "internalType": "uint256",
          "name": "_minInterestRate",
          "type": "uint256"
        },
        {
          "internalType": "uint256",
          "name": "_maxInterestRate",
          "type": "uint256"
        },
        {
          "internalType": "address",
          "name": "_originator",
          "type": "address"
        },
        {
          "internalType": "address",
          "name": "ERC20TokenAddress",
          "type": "address"
        },
        {
          "internalType": "address",
          "name": "proxyAddress",
          "type": "address"
        },
        {
          "internalType": "address",
          "name": "_administrator",
          "type": "address"
        },
        {
          "internalType": "uint256",
          "name": "_operatorFee",
          "type": "uint256"
        },
        {
          "internalType": "uint256",
          "name": "_auctionLength",
          "type": "uint256"
        },
        {
          "internalType": "address",
          "name": "_swapFactory",
          "type": "address"
        }
      ],
      "payable": false,
      "stateMutability": "nonpayable",
      "type": "constructor"
    },
    {
      "anonymous": false,
      "inputs": [
        {
          "indexed": false,
          "internalType": "address",
          "name": "loanAddress",
          "type": "address"
        },
        {
          "indexed": false,
          "internalType": "uint256",
          "name": "balanceToRepay",
          "type": "uint256"
        },
        {
          "indexed": false,
          "internalType": "uint256",
          "name": "auctionBalance",
          "type": "uint256"
        },
        {
          "indexed": false,
          "internalType": "uint256",
          "name": "operatorBalance",
          "type": "uint256"
        },
        {
          "indexed": false,
          "internalType": "uint256",
          "name": "interest",
          "type": "uint256"
        },
        {
          "indexed": false,
          "internalType": "uint256",
          "name": "fundedTimestamp",
          "type": "uint256"
        }
      ],
      "name": "AuctionSuccessful",
      "type": "event"
    },
    {
      "anonymous": false,
      "inputs": [
        {
          "indexed": false,
          "internalType": "address",
          "name": "loanAddress",
          "type": "address"
        },
        {
          "indexed": true,
          "internalType": "address",
          "name": "lender",
          "type": "address"
        },
        {
          "indexed": false,
          "internalType": "uint256",
          "name": "amount",
          "type": "uint256"
        }
      ],
      "name": "FailedToFund",
      "type": "event"
    },
    {
      "anonymous": false,
      "inputs": [
        {
          "indexed": false,
          "internalType": "address",
          "name": "loanAddress",
          "type": "address"
        },
        {
          "indexed": false,
          "internalType": "uint256",
          "name": "balanceToRepay",
          "type": "uint256"
        },
        {
          "indexed": false,
          "internalType": "uint256",
          "name": "auctionBalance",
          "type": "uint256"
        },
        {
          "indexed": false,
          "internalType": "uint256",
          "name": "interest",
          "type": "uint256"
        },
        {
          "indexed": false,
          "internalType": "uint256",
          "name": "fundedTimestamp",
          "type": "uint256"
        }
      ],
      "name": "FullyFunded",
      "type": "event"
    },
    {
      "anonymous": false,
      "inputs": [
        {
          "indexed": false,
          "internalType": "address",
          "name": "loanAddress",
          "type": "address"
        }
      ],
      "name": "FullyFundsUnlockedWithdrawn",
      "type": "event"
    },
    {
      "anonymous": false,
      "inputs": [
        {
          "indexed": false,
          "internalType": "address",
          "name": "loanAddress",
          "type": "address"
        }
      ],
      "name": "FullyRefunded",
      "type": "event"
    },
    {
      "anonymous": false,
      "inputs": [
        {
          "indexed": false,
          "internalType": "address",
          "name": "loanAddress",
          "type": "address"
        },
        {
          "indexed": true,
          "internalType": "address",
          "name": "lender",
          "type": "address"
        },
        {
          "indexed": false,
          "internalType": "uint256",
          "name": "amount",
          "type": "uint256"
        },
        {
          "indexed": false,
          "internalType": "uint256",
          "name": "interest",
          "type": "uint256"
        },
        {
          "indexed": false,
          "internalType": "uint256",
          "name": "fundedTimestamp",
          "type": "uint256"
        }
      ],
      "name": "Funded",
      "type": "event"
    },
    {
      "anonymous": false,
      "inputs": [
        {
          "indexed": false,
          "internalType": "address",
          "name": "loanAddress",
          "type": "address"
        },
        {
          "indexed": true,
          "internalType": "address",
          "name": "lender",
          "type": "address"
        },
        {
          "indexed": false,
          "internalType": "uint256",
          "name": "amount",
          "type": "uint256"
        }
      ],
      "name": "FundsUnlockedWithdrawn",
      "type": "event"
    },
    {
      "anonymous": false,
      "inputs": [
        {
          "indexed": true,
          "internalType": "address",
          "name": "contractAddr",
          "type": "address"
        },
        {
          "indexed": true,
          "internalType": "address",
          "name": "originator",
          "type": "address"
        },
        {
          "indexed": false,
          "internalType": "uint256",
          "name": "minAmount",
          "type": "uint256"
        },
        {
          "indexed": false,
          "internalType": "uint256",
          "name": "maxAmount",
          "type": "uint256"
        },
        {
          "indexed": false,
          "internalType": "uint256",
          "name": "minInterestRate",
          "type": "uint256"
        },
        {
          "indexed": false,
          "internalType": "uint256",
          "name": "maxInterestRate",
          "type": "uint256"
        },
        {
          "indexed": false,
          "internalType": "uint256",
          "name": "auctionStartTimestamp",
          "type": "uint256"
        },
        {
          "indexed": false,
          "internalType": "uint256",
          "name": "auctionEndTimestamp",
          "type": "uint256"
        },
        {
          "indexed": true,
          "internalType": "address",
          "name": "administrator",
          "type": "address"
        },
        {
          "indexed": false,
          "internalType": "uint256",
          "name": "operatorFee",
          "type": "uint256"
        }
      ],
      "name": "LoanCreated",
      "type": "event"
    },
    {
      "anonymous": false,
      "inputs": [
        {
          "indexed": false,
          "internalType": "address",
          "name": "loanAddress",
          "type": "address"
        }
      ],
      "name": "LoanDefaulted",
      "type": "event"
    },
    {
      "anonymous": false,
      "inputs": [
        {
          "indexed": false,
          "internalType": "uint256",
          "name": "auctionBalance",
          "type": "uint256"
        }
      ],
      "name": "LoanFundsUnlocked",
      "type": "event"
    },
    {
      "anonymous": false,
      "inputs": [
        {
          "indexed": false,
          "internalType": "address",
          "name": "loanAddress",
          "type": "address"
        },
        {
          "indexed": true,
          "internalType": "address",
          "name": "borrower",
          "type": "address"
        },
        {
          "indexed": false,
          "internalType": "uint256",
          "name": "amount",
          "type": "uint256"
        }
      ],
      "name": "LoanFundsWithdrawn",
      "type": "event"
    },
    {
      "anonymous": false,
      "inputs": [
        {
          "indexed": false,
          "internalType": "address",
          "name": "loanAddress",
          "type": "address"
        },
        {
          "indexed": true,
          "internalType": "uint256",
          "name": "timestampRepaid",
          "type": "uint256"
        }
      ],
      "name": "LoanRepaid",
      "type": "event"
    },
    {
      "anonymous": false,
      "inputs": [
        {
          "indexed": false,
          "internalType": "address",
          "name": "loanAddress",
          "type": "address"
        },
        {
          "indexed": false,
          "internalType": "uint256",
          "name": "currentBalance",
          "type": "uint256"
        },
        {
          "indexed": false,
          "internalType": "uint256",
          "name": "interest",
          "type": "uint256"
        }
      ],
      "name": "MinimumFundingReached",
      "type": "event"
    },
    {
      "anonymous": false,
      "inputs": [
        {
          "indexed": false,
          "internalType": "uint256",
          "name": "amount",
          "type": "uint256"
        },
        {
          "indexed": false,
          "internalType": "address",
          "name": "administrator",
          "type": "address"
        }
      ],
      "name": "OperatorWithdrawn",
      "type": "event"
    },
    {
      "anonymous": false,
      "inputs": [
        {
          "indexed": false,
          "internalType": "address",
          "name": "loanAddress",
          "type": "address"
        },
        {
          "indexed": true,
          "internalType": "address",
          "name": "lender",
          "type": "address"
        },
        {
          "indexed": false,
          "internalType": "uint256",
          "name": "amount",
          "type": "uint256"
        }
      ],
      "name": "RefundWithdrawn",
      "type": "event"
    },
    {
      "anonymous": false,
      "inputs": [
        {
          "indexed": false,
          "internalType": "address",
          "name": "loanAddress",
          "type": "address"
        },
        {
          "indexed": true,
          "internalType": "address",
          "name": "to",
          "type": "address"
        },
        {
          "indexed": false,
          "internalType": "uint256",
          "name": "amount",
          "type": "uint256"
        }
      ],
      "name": "RepaymentWithdrawn",
      "type": "event"
    },
    {
      "constant": true,
      "inputs": [],
      "name": "administrator",
      "outputs": [
        {
          "internalType": "address",
          "name": "",
          "type": "address"
        }
      ],
      "payable": false,
      "stateMutability": "view",
      "type": "function"
    },
    {
      "constant": true,
      "inputs": [],
      "name": "auctionBalance",
      "outputs": [
        {
          "internalType": "uint256",
          "name": "",
          "type": "uint256"
        }
      ],
      "payable": false,
      "stateMutability": "view",
      "type": "function"
    },
    {
      "constant": true,
      "inputs": [],
      "name": "auctionEndTimestamp",
      "outputs": [
        {
          "internalType": "uint256",
          "name": "",
          "type": "uint256"
        }
      ],
      "payable": false,
      "stateMutability": "view",
      "type": "function"
    },
    {
      "constant": true,
      "inputs": [],
      "name": "auctionLength",
      "outputs": [
        {
          "internalType": "uint256",
          "name": "",
          "type": "uint256"
        }
      ],
      "payable": false,
      "stateMutability": "view",
      "type": "function"
    },
    {
      "constant": true,
      "inputs": [],
      "name": "auctionStartTimestamp",
      "outputs": [
        {
          "internalType": "uint256",
          "name": "",
          "type": "uint256"
        }
      ],
      "payable": false,
      "stateMutability": "view",
      "type": "function"
    },
    {
      "constant": true,
      "inputs": [],
      "name": "borrowerDebt",
      "outputs": [
        {
          "internalType": "uint256",
          "name": "",
          "type": "uint256"
        }
      ],
      "payable": false,
      "stateMutability": "view",
      "type": "function"
    },
    {
      "constant": true,
      "inputs": [],
      "name": "currentState",
      "outputs": [
        {
          "internalType": "enum LoanContract.LoanState",
          "name": "",
          "type": "uint8"
        }
      ],
      "payable": false,
      "stateMutability": "view",
      "type": "function"
    },
    {
      "constant": true,
      "inputs": [],
      "name": "lastFundedTimestamp",
      "outputs": [
        {
          "internalType": "uint256",
          "name": "",
          "type": "uint256"
        }
      ],
      "payable": false,
      "stateMutability": "view",
      "type": "function"
    },
    {
      "constant": true,
      "inputs": [
        {
          "internalType": "address",
          "name": "",
          "type": "address"
        }
      ],
      "name": "lenderPosition",
      "outputs": [
        {
          "internalType": "uint256",
          "name": "bidAmount",
          "type": "uint256"
        },
        {
          "internalType": "bool",
          "name": "withdrawn",
          "type": "bool"
        }
      ],
      "payable": false,
      "stateMutability": "view",
      "type": "function"
    },
    {
      "constant": true,
      "inputs": [],
      "name": "loanWithdrawn",
      "outputs": [
        {
          "internalType": "bool",
          "name": "",
          "type": "bool"
        }
      ],
      "payable": false,
      "stateMutability": "view",
      "type": "function"
    },
    {
      "constant": true,
      "inputs": [],
      "name": "loanWithdrawnAmount",
      "outputs": [
        {
          "internalType": "uint256",
          "name": "",
          "type": "uint256"
        }
      ],
      "payable": false,
      "stateMutability": "view",
      "type": "function"
    },
    {
      "constant": true,
      "inputs": [],
      "name": "maxAmount",
      "outputs": [
        {
          "internalType": "uint256",
          "name": "",
          "type": "uint256"
        }
      ],
      "payable": false,
      "stateMutability": "view",
      "type": "function"
    },
    {
      "constant": true,
      "inputs": [],
      "name": "maxInterestRate",
      "outputs": [
        {
          "internalType": "uint256",
          "name": "",
          "type": "uint256"
        }
      ],
      "payable": false,
      "stateMutability": "view",
      "type": "function"
    },
    {
      "constant": true,
      "inputs": [],
      "name": "minAmount",
      "outputs": [
        {
          "internalType": "uint256",
          "name": "",
          "type": "uint256"
        }
      ],
      "payable": false,
      "stateMutability": "view",
      "type": "function"
    },
    {
      "constant": true,
      "inputs": [],
      "name": "minInterestRate",
      "outputs": [
        {
          "internalType": "uint256",
          "name": "",
          "type": "uint256"
        }
      ],
      "payable": false,
      "stateMutability": "view",
      "type": "function"
    },
    {
      "constant": true,
      "inputs": [],
      "name": "minimumReached",
      "outputs": [
        {
          "internalType": "bool",
          "name": "",
          "type": "bool"
        }
      ],
      "payable": false,
      "stateMutability": "view",
      "type": "function"
    },
    {
      "constant": true,
      "inputs": [],
      "name": "operatorBalance",
      "outputs": [
        {
          "internalType": "uint256",
          "name": "",
          "type": "uint256"
        }
      ],
      "payable": false,
      "stateMutability": "view",
      "type": "function"
    },
    {
      "constant": true,
      "inputs": [],
      "name": "operatorFee",
      "outputs": [
        {
          "internalType": "uint256",
          "name": "",
          "type": "uint256"
        }
      ],
      "payable": false,
      "stateMutability": "view",
      "type": "function"
    },
    {
      "constant": true,
      "inputs": [],
      "name": "originator",
      "outputs": [
        {
          "internalType": "address",
          "name": "",
          "type": "address"
        }
      ],
      "payable": false,
      "stateMutability": "view",
      "type": "function"
    },
    {
      "constant": true,
      "inputs": [],
      "name": "proxyContractAddress",
      "outputs": [
        {
          "internalType": "address",
          "name": "",
          "type": "address"
        }
      ],
      "payable": false,
      "stateMutability": "view",
      "type": "function"
    },
    {
      "constant": true,
      "inputs": [],
      "name": "swapFactory",
      "outputs": [
        {
          "internalType": "address",
          "name": "",
          "type": "address"
        }
      ],
      "payable": false,
      "stateMutability": "view",
      "type": "function"
    },
    {
      "constant": true,
      "inputs": [],
      "name": "termEndTimestamp",
      "outputs": [
        {
          "internalType": "uint256",
          "name": "",
          "type": "uint256"
        }
      ],
      "payable": false,
      "stateMutability": "view",
      "type": "function"
    },
    {
      "constant": true,
      "inputs": [],
      "name": "termLength",
      "outputs": [
        {
          "internalType": "uint256",
          "name": "",
          "type": "uint256"
        }
      ],
      "payable": false,
      "stateMutability": "view",
      "type": "function"
    },
    {
      "constant": true,
      "inputs": [],
      "name": "tokenAddress",
      "outputs": [
        {
          "internalType": "address",
          "name": "",
          "type": "address"
        }
      ],
      "payable": false,
      "stateMutability": "view",
      "type": "function"
    },
    {
      "constant": true,
      "inputs": [],
      "name": "getMaxAmount",
      "outputs": [
        {
          "internalType": "uint256",
          "name": "",
          "type": "uint256"
        }
      ],
      "payable": false,
      "stateMutability": "view",
      "type": "function"
    },
    {
      "constant": true,
      "inputs": [],
      "name": "getAuctionBalance",
      "outputs": [
        {
          "internalType": "uint256",
          "name": "",
          "type": "uint256"
        }
      ],
      "payable": false,
      "stateMutability": "view",
      "type": "function"
    },
    {
      "constant": true,
      "inputs": [
        {
          "internalType": "address",
          "name": "lender",
          "type": "address"
        }
      ],
      "name": "getLenderBidAmount",
      "outputs": [
        {
          "internalType": "uint256",
          "name": "",
          "type": "uint256"
        }
      ],
      "payable": false,
      "stateMutability": "view",
      "type": "function"
    },
    {
      "constant": true,
      "inputs": [
        {
          "internalType": "address",
          "name": "lender",
          "type": "address"
        }
      ],
      "name": "getLenderWithdrawn",
      "outputs": [
        {
          "internalType": "bool",
          "name": "",
          "type": "bool"
        }
      ],
      "payable": false,
      "stateMutability": "view",
      "type": "function"
    },
    {
      "constant": false,
      "inputs": [
        {
          "internalType": "address",
          "name": "lender",
          "type": "address"
        },
        {
          "internalType": "uint256",
          "name": "amount",
          "type": "uint256"
        }
      ],
      "name": "onFundingReceived",
      "outputs": [
        {
          "internalType": "bool",
          "name": "",
          "type": "bool"
        }
      ],
      "payable": false,
      "stateMutability": "nonpayable",
      "type": "function"
    },
    {
      "constant": false,
      "inputs": [],
      "name": "unlockFundsWithdrawal",
      "outputs": [],
      "payable": false,
      "stateMutability": "nonpayable",
      "type": "function"
    },
    {
      "constant": false,
      "inputs": [],
      "name": "withdrawFees",
      "outputs": [
        {
          "internalType": "bool",
          "name": "",
          "type": "bool"
        }
      ],
      "payable": false,
      "stateMutability": "nonpayable",
      "type": "function"
    },
    {
      "constant": false,
      "inputs": [],
      "name": "withdrawFundsUnlocked",
      "outputs": [],
      "payable": false,
      "stateMutability": "nonpayable",
      "type": "function"
    },
    {
      "constant": false,
      "inputs": [],
      "name": "withdrawRefund",
      "outputs": [],
      "payable": false,
      "stateMutability": "nonpayable",
      "type": "function"
    },
    {
      "constant": false,
      "inputs": [],
      "name": "withdrawRepayment",
      "outputs": [],
      "payable": false,
      "stateMutability": "nonpayable",
      "type": "function"
    },
    {
      "constant": false,
      "inputs": [],
      "name": "withdrawRepaymentAndDeposit",
      "outputs": [],
      "payable": false,
      "stateMutability": "nonpayable",
      "type": "function"
    },
    {
      "constant": false,
      "inputs": [],
      "name": "withdrawLoan",
      "outputs": [],
      "payable": false,
      "stateMutability": "nonpayable",
      "type": "function"
    },
    {
      "constant": false,
      "inputs": [
        {
          "internalType": "address",
          "name": "from",
          "type": "address"
        },
        {
          "internalType": "uint256",
          "name": "amount",
          "type": "uint256"
        }
      ],
      "name": "onRepaymentReceived",
      "outputs": [
        {
          "internalType": "bool",
          "name": "",
          "type": "bool"
        }
      ],
      "payable": false,
      "stateMutability": "nonpayable",
      "type": "function"
    },
    {
      "constant": true,
      "inputs": [],
      "name": "isAuctionExpired",
      "outputs": [
        {
          "internalType": "bool",
          "name": "",
          "type": "bool"
        }
      ],
      "payable": false,
      "stateMutability": "view",
      "type": "function"
    },
    {
      "constant": true,
      "inputs": [],
      "name": "isDefaulted",
      "outputs": [
        {
          "internalType": "bool",
          "name": "",
          "type": "bool"
        }
      ],
      "payable": false,
      "stateMutability": "view",
      "type": "function"
    },
    {
      "constant": false,
      "inputs": [],
      "name": "updateStateMachine",
      "outputs": [
        {
          "internalType": "enum LoanContract.LoanState",
          "name": "",
          "type": "uint8"
        }
      ],
      "payable": false,
      "stateMutability": "nonpayable",
      "type": "function"
    },
    {
      "constant": true,
      "inputs": [
        {
          "internalType": "uint256",
          "name": "value",
          "type": "uint256"
        }
      ],
      "name": "calculateValueWithInterest",
      "outputs": [
        {
          "internalType": "uint256",
          "name": "",
          "type": "uint256"
        }
      ],
      "payable": false,
      "stateMutability": "view",
      "type": "function"
    },
    {
      "constant": true,
      "inputs": [],
      "name": "getInterestRate",
      "outputs": [
        {
          "internalType": "uint256",
          "name": "",
          "type": "uint256"
        }
      ],
      "payable": false,
      "stateMutability": "view",
      "type": "function"
    }
  ],
  "bytecode": "0x608060405234801561001057600080fd5b506040516200274738038062002747833981810160405261018081101561003657600080fd5b508051602082015160408301516060840151608085015160a086015160c087015160e0880151610100808a01516101208b01516101408c0151610160909c0151600280546001600160a01b03199081166001600160a01b03808a169190911792839055600180548316828a16179081905560158054610100600160a81b031916948316909802939093179096556016805492871692821692909217909155600380548216868a16179055600480548216868616179055600080549091169482169490941784556010899055601188905560058b905560068a905560098d90554260088190558d01600755600c8c9055600e84905560128290559a9b999a9899979896979596949593949193909290919061014f906101e7565b600454600354600554600654601054601154600854600754601254604080519788526020880196909652868601949094526060860192909252608085015260a084015260c0830152516001600160a01b0393841693929092169130917f79ba55cf4cdf8137180bfdf1fa8b09ff8ad0d14806808b75d6d634f435a17fca919081900360e00190a4505050505050505050505050610208565b6015805482919060ff1916600183600681111561020057fe5b021790555050565b61252f80620002186000396000f3fe608060405234801561001057600080fd5b506004361061025e5760003560e01c80637944f94411610146578063a9133d1a116100c3578063e324ecba11610087578063e324ecba14610497578063e565eb4c146104c3578063e5ab892b146104cb578063eb994db1146104d3578063f53d0a8e146104db578063fcdd8aac146104e35761025e565b8063a9133d1a1461046f578063a9583d5f14610477578063b4ea25801461047f578063c4c77e2514610487578063c6a96c8f1461048f5761025e565b80639d76ea581161010a5780639d76ea58146104475780639dff994e1461044f578063a1cb742e14610457578063a38aaa901461045f578063a3f8d3d6146104675761025e565b80637944f9441461041f57806379b18cd1146104275780637c6076901461042f57806389afc0f1146104375780639b2cb5d81461043f5761025e565b80633c815d9e116101df5780636014488b116101a35780636014488b146103ad57806368fe58bf146103d357806369e0f0f7146103ff5780636d59f4c7146104075780637489b4511461040f5780637594dc73146104175761025e565b80633c815d9e1461031e57806341243a7914610342578063476343ee146103815780635257b5661461039d5780635f48f393146103a55761025e565b806325a35e731161022657806325a35e73146102d8578063325c25a2146102e05780633703bcdc146102e857806339c844861461030e5780633b56621f146103165761025e565b806303115084146102635780630ba95909146102925780630c3f6acf1461029a578063110f8874146102c65780631bab0c79146102d0575b600080fd5b6102806004803603602081101561027957600080fd5b50356104eb565b60408051918252519081900360200190f35b61028061054d565b6102a2610554565b604051808260068111156102b257fe5b60ff16815260200191505060405180910390f35b6102ce61055d565b005b61028061081b565b610280610821565b610280610827565b610280600480360360208110156102fe57600080fd5b50356001600160a01b031661082d565b6102a2610848565b610280610947565b61032661094d565b604080516001600160a01b039092168252519081900360200190f35b6103686004803603602081101561035857600080fd5b50356001600160a01b031661095c565b6040805192835290151560208301528051918290030190f35b610389610978565b604080519115158252519081900360200190f35b610280610ba1565b610280610c91565b610389600480360360208110156103c357600080fd5b50356001600160a01b0316610c97565b610389600480360360408110156103e957600080fd5b506001600160a01b038135169060200135610cb8565b6102ce610e68565b610389610f08565b6102ce610f18565b6102ce6111e6565b61032661151a565b610280611529565b61038961152f565b610280611537565b61028061153d565b610326611543565b610326611552565b610280611561565b610389611567565b6102ce61158f565b610280611a42565b610280611a48565b610280611a4e565b6102ce611a54565b610280611c91565b610389600480360360408110156104ad57600080fd5b506001600160a01b038135169060200135611c97565b61038961204a565b61028061205a565b610280612060565b610326612066565b610280612075565b600061054761053a68056bc75e2d6310000061052161052d62278d00610521600c54610515610ba1565b9063ffffffff61207b16565b9063ffffffff6120db16565b869063ffffffff61207b16565b839063ffffffff61211d16565b92915050565b6006545b90565b60155460ff1681565b610565610848565b50600160155460ff16600681111561057957fe5b146105b55760405162461bcd60e51b815260040180806020018281038252602181526020018061243f6021913960400191505060405180910390fd5b3360009081526014602052604090206001015460ff1615610618576040805162461bcd60e51b81526020600482015260186024820152772632b73232b91030b63932b0b23c903bb4ba34323930bbb760411b604482015290519081900360640190fd5b33600090815260146020526040902054610679576040805162461bcd60e51b815260206004820152601a60248201527f4163636f756e7420646964206e6f74206465706f73697465642e000000000000604482015290519081900360640190fd5b3360009081526014602052604090206001818101805460ff1916909117905554600e546106ab9163ffffffff61211d16565b600e55336000818152601460209081526040918290205482513081529182015281517fd55b5fe81317b854ac11454adf7e5a9a0adf69184d643ef9ae6bfda6a015c5bc929181900390910190a260155433600081815260146020908152604080832054815163a9059cbb60e01b815260048101959095526024850152516101009094046001600160a01b03169363a9059cbb93604480820194918390030190829087803b15801561075b57600080fd5b505af115801561076f573d6000803e3d6000fd5b505050506040513d602081101561078557600080fd5b50516107cf576040805162461bcd60e51b815260206004820152601460248201527332b93937b9103bb434b632903a3930b739b332b960611b604482015290519081900360640190fd5b600d54600e541415610819576107e56005612177565b6040805130815290517f37ead1cfd72a30f28c665ab9c91072a05cef63f5cd4e48fbd172af5cb142c39c9181900360200190a15b565b600a5481565b600d5490565b60095481565b6001600160a01b031660009081526014602052604090205490565b600061085261152f565b801561086e5750600060155460ff16600681111561086c57fe5b145b156108d657601654600160a81b900460ff166108935761088e6001612177565b6108d6565b61089b612198565b6108d65760405162461bcd60e51b815260040180806020018281038252602f8152602001806124cc602f913960400191505060405180910390fd5b6108de611567565b80156108fa5750600260155460ff1660068111156108f857fe5b145b1561093d576109096003612177565b6040805130815290517ff4e5cf42cbb1d0c6c91e16d925349feb6c5d970652f6ec77b1ff1262f7284cd59181900360200190a15b5060155460ff1690565b60075481565b6003546001600160a01b031681565b6014602052600090815260409020805460019091015460ff1682565b6004546000906001600160a01b031633146109da576040805162461bcd60e51b815260206004820152601e60248201527f43616c6c6572206973206e6f7420616e2061646d696e6973747261746f720000604482015290519081900360640190fd5b601654600160a01b900460ff161515600114610a3d576040805162461bcd60e51b815260206004820152601760248201527f626f72726f776572206469646e74207769746864726177000000000000000000604482015290519081900360640190fd5b600060135411610a8b576040805162461bcd60e51b81526020600482015260146024820152736e6f2066756e647320746f20776974686472617760601b604482015290519081900360640190fd5b601380546000918290556015546040805163a9059cbb60e01b815233600482015260248101849052905192936101009092046001600160a01b03169263a9059cbb92604480840193602093929083900390910190829087803b158015610af057600080fd5b505af1158015610b04573d6000803e3d6000fd5b505050506040513d6020811015610b1a57600080fd5b5051610b5f576040805162461bcd60e51b815260206004820152600f60248201526e1d1c985b9cd9995c8819985a5b1959608a1b604482015290519081900360640190fd5b6040805182815233602082015281517f1af4af0a78bc8f5581320dee604e69c4cf2e30512ca9b3cee2c521224d16a767929181900390910190a1600191505090565b60008060155460ff166006811115610bb557fe5b1415610c1b57610c14601054610c08610bdb60085460075461230090919063ffffffff16565b610521610bf36008544261230090919063ffffffff16565b6010546011546105159163ffffffff61230016565b9063ffffffff61211d16565b9050610551565b600260155460ff166006811115610c2e57fe5b1480610c4a5750600460155460ff166006811115610c4857fe5b145b15610c8957610c14601054610c08610c6f60085460075461230090919063ffffffff16565b610521610bf3600854600a5461230090919063ffffffff16565b506000610551565b60065481565b6001600160a01b031660009081526014602052604090206001015460ff1690565b6000610cc2610848565b50600260155460ff166006811115610cd657fe5b14610d24576040805162461bcd60e51b81526020600482015260196024820152784c6f616e20737461747573206973206e6f742041435449564560381b604482015290519081900360640190fd5b6016546001600160a01b03163314610d7d576040805162461bcd60e51b815260206004820152601760248201527643616c6c6572206973206e6f74207468652070726f787960481b604482015290519081900360640190fd5b6003546001600160a01b03848116911614610dc95760405162461bcd60e51b81526004018080602001828103825260228152602001806124606022913960400191505060405180910390fd5b81600f5414610e1f576040805162461bcd60e51b815260206004820181905260248201527f52657061796d656e7420616d6f756e74206973206e6f74207468652073616d65604482015290519081900360640190fd5b610e296004612177565b60408051308152905142917fc200a1f31dd659e356e0f112c82558e25f49f7b0f84438691cd96f5cb3558823919081900360200190a250600192915050565b6004546001600160a01b03163314610ec7576040805162461bcd60e51b815260206004820152601e60248201527f43616c6c6572206973206e6f7420616e2061646d696e6973747261746f720000604482015290519081900360640190fd5b610ed16006612177565b600d5460408051918252517f7fd0d8c82313edf42851fc7c6cf45397c014953cb4ab3bed0dc693a8a42a2e779181900360200190a1565b601654600160a01b900460ff1681565b610f20610848565b50600460155460ff166006811115610f3457fe5b14610f82576040805162461bcd60e51b8152602060048201526019602482015278131bd85b881cdd185d1d5cc81a5cc81b9bdd08149154105251603a1b604482015290519081900360640190fd5b3360009081526014602052604090206001015460ff1615610fe5576040805162461bcd60e51b81526020600482015260186024820152772632b73232b91030b63932b0b23c903bb4ba34323930bbb760411b604482015290519081900360640190fd5b33600090815260146020526040902054611042576040805162461bcd60e51b81526020600482015260196024820152781058d8dbdd5b9d08191a59081b9bdd0819195c1bdcda5d1959603a1b604482015290519081900360640190fd5b3360009081526014602052604081205461105b906104eb565b3360009081526014602052604090206001908101805460ff19169091179055600e54909150611090908263ffffffff61211d16565b600e556015546040805163a9059cbb60e01b81523360048201526024810184905290516101009092046001600160a01b03169163a9059cbb916044808201926020929091908290030181600087803b1580156110eb57600080fd5b505af11580156110ff573d6000803e3d6000fd5b505050506040513d602081101561111557600080fd5b505161115f576040805162461bcd60e51b815260206004820152601460248201527332b93937b9103bb434b632903a3930b739b332b960611b604482015290519081900360640190fd5b6040805130815260208101839052815133927fe02eda18506deb19526f15a5bb3dbfa553e2749c108e5b771ed3c7b36d327efd928290030190a2600f54600e5414156111e3576111af6005612177565b6040805130815290517f37ead1cfd72a30f28c665ab9c91072a05cef63f5cd4e48fbd172af5cb142c39c9181900360200190a15b50565b600660155460ff1660068111156111f957fe5b1461124b576040805162461bcd60e51b815260206004820152601960248201527f4c6f616e20737461747573206973206e6f742046524f5a454e00000000000000604482015290519081900360640190fd5b601654600160a01b900460ff16156112a3576040805162461bcd60e51b81526020600482015260166024820152752637b0b71030b63932b0b23c903bb4ba34323930bbb760511b604482015290519081900360640190fd5b3360009081526014602052604090206001015460ff1615611306576040805162461bcd60e51b81526020600482015260186024820152772632b73232b91030b63932b0b23c903bb4ba34323930bbb760411b604482015290519081900360640190fd5b33600090815260146020526040902054611367576040805162461bcd60e51b815260206004820152601760248201527f4163636f756e7420646964206e6f74206465706f736974000000000000000000604482015290519081900360640190fd5b3360009081526014602052604090206001818101805460ff1916909117905554600e546113999163ffffffff61211d16565b600e5560155433600081815260146020908152604080832054815163a9059cbb60e01b815260048101959095526024850152516101009094046001600160a01b03169363a9059cbb93604480820194918390030190829087803b1580156113ff57600080fd5b505af1158015611413573d6000803e3d6000fd5b505050506040513d602081101561142957600080fd5b5051611473576040805162461bcd60e51b815260206004820152601460248201527332b93937b9103bb434b632903a3930b739b332b960611b604482015290519081900360640190fd5b336000818152601460209081526040918290205482513081529182015281517f9c6ae59d92db7ad6963ca77a6838ca83a271b36a4a22bcaf1a1389dd890b6de6929181900390910190a2601354600d546114d29163ffffffff61211d16565b600e541415610819576114e56005612177565b6040805130815290517fef27002b0ade27a402d1f7349545c3c0134cadb08f2fef44b3a8ebb9542f43b89181900360200190a1565b6000546001600160a01b031681565b600c5481565b600754421190565b60125481565b60055481565b6002546001600160a01b031681565b6001546001600160a01b031681565b600e5481565b60006007544211158061157c5750600b544211155b1561158957506000610551565b50600190565b611597610848565b50600460155460ff1660068111156115ab57fe5b146115f9576040805162461bcd60e51b8152602060048201526019602482015278131bd85b881cdd185d1d5cc81a5cc81b9bdd08149154105251603a1b604482015290519081900360640190fd5b6000546001600160a01b031661164a576040805162461bcd60e51b815260206004820152601160248201527007377617020666163746f7279206973203607c1b604482015290519081900360640190fd5b3360009081526014602052604090206001015460ff16156116ad576040805162461bcd60e51b81526020600482015260186024820152772632b73232b91030b63932b0b23c903bb4ba34323930bbb760411b604482015290519081900360640190fd5b3360009081526014602052604090205461170a576040805162461bcd60e51b81526020600482015260196024820152781058d8dbdd5b9d08191a59081b9bdd0819195c1bdcda5d1959603a1b604482015290519081900360640190fd5b33600090815260146020526040812054611723906104eb565b3360009081526014602052604090206001908101805460ff19169091179055600e54909150611758908263ffffffff61211d16565b600e556000805460408051631dd70c0360e21b815290516001600160a01b039092169163775c300c9160048082019260209290919082900301818787803b1580156117a257600080fd5b505af11580156117b6573d6000803e3d6000fd5b505050506040513d60208110156117cc57600080fd5b505190506001600160a01b03811661181f576040805162461bcd60e51b81526020600482015260116024820152706572726f722073776170206465706c6f7960781b604482015290519081900360640190fd5b6015546040805163095ea7b360e01b81526001600160a01b0384811660048301526024820186905291516101009093049091169163095ea7b3916044808201926020929091908290030181600087803b15801561187b57600080fd5b505af115801561188f573d6000803e3d6000fd5b505050506040513d60208110156118a557600080fd5b50506002546040805163d5657b6560e01b81523360048201526001600160a01b0392831660248201526044810185905290519183169163d5657b659160648082019260009290919082900301818387803b15801561190257600080fd5b505af1158015611916573d6000803e3d6000fd5b50505050806001600160a01b031663a6151a846040518163ffffffff1660e01b815260040160206040518083038186803b15801561195357600080fd5b505afa158015611967573d6000803e3d6000fd5b505050506040513d602081101561197d57600080fd5b50516119ba5760405162461bcd60e51b81526004018080602001828103825260298152602001806124826029913960400191505060405180910390fd5b6040805130815260208101849052815133927fe02eda18506deb19526f15a5bb3dbfa553e2749c108e5b771ed3c7b36d327efd928290030190a2600f54600e541415611a3e57611a0a6005612177565b6040805130815290517f37ead1cfd72a30f28c665ab9c91072a05cef63f5cd4e48fbd172af5cb142c39c9181900360200190a15b5050565b600b5481565b60115481565b600d5481565b611a5c610848565b50600260155460ff166006811115611a7057fe5b14611abe576040805162461bcd60e51b81526020600482015260196024820152784c6f616e20737461747573206973206e6f742041435449564560381b604482015290519081900360640190fd5b6003546001600160a01b03163314611b1d576040805162461bcd60e51b815260206004820152601c60248201527f43616c6c6572206973206e6f7420746865206f726967696e61746f7200000000604482015290519081900360640190fd5b601654600160a01b900460ff1615611b70576040805162461bcd60e51b815260206004820152601160248201527020b63932b0b23c903bb4ba34323930bbb760791b604482015290519081900360640190fd5b6016805460ff60a01b1916600160a01b179055600d54604080513081526020810192909252805133927f26e3b176a4a3653dc7843b0f0aaee7fbeecd147ddad5ba9f8d7973c11ae7406792908290030190a2601554600d546040805163a9059cbb60e01b81523360048201526024810192909252516101009092046001600160a01b03169163a9059cbb916044808201926020929091908290030181600087803b158015611c1d57600080fd5b505af1158015611c31573d6000803e3d6000fd5b505050506040513d6020811015611c4757600080fd5b5051610819576040805162461bcd60e51b815260206004820152601460248201527332b93937b9103bb434b632903a3930b739b332b960611b604482015290519081900360640190fd5b60085481565b60008060155460ff166006811115611cab57fe5b14611cfd576040805162461bcd60e51b815260206004820152601a60248201527f4c6f616e20737461747573206973206e6f742043524541544544000000000000604482015290519081900360640190fd5b6016546001600160a01b03163314611d56576040805162461bcd60e51b815260206004820152601760248201527643616c6c6572206973206e6f74207468652070726f787960481b604482015290519081900360640190fd5b611d5e61152f565b15611e0757600554600d541015611dc457611d796001612177565b604080513081526020810184905281516001600160a01b038616927fb4ff9ef1c49bea835cfa8220740c7295f98889086154d1f4eb3ce4be8dedc5ff928290030190a2506000610547565b611dcc612198565b611d795760405162461bcd60e51b815260040180806020018281038252602f8152602001806124cc602f913960400191505060405180910390fd5b6000611e11610ba1565b6001600160a01b038516600090815260146020526040902054909150611e3d908463ffffffff61211d16565b6001600160a01b038516600090815260146020526040902055600d54611e69908463ffffffff61211d16565b600d81905542600a5560055411801590611e8d5750601654600160a81b900460ff16155b15611f43576016805460ff60a81b1916600160a81b179055600a5460408051308152602081018690528082018490526060810192909252516001600160a01b038616917fd67ae805400a673f32340691a1a850cf59e211ab6ae7d8ae2f20d6a345dd73d6919081900360800190a2600d54604080513081526020810192909252818101839052517f6baa8a391acc42bfd9ea28b82062544499d36144f62d5386e6e46714c043e3d49181900360600190a1611f9a565b600a5460408051308152602081018690528082018490526060810192909252516001600160a01b038616917fd67ae805400a673f32340691a1a850cf59e211ab6ae7d8ae2f20d6a345dd73d6919081900360800190a25b600654600d54141561204057611fae612198565b611fe95760405162461bcd60e51b815260040180806020018281038252602f8152602001806124cc602f913960400191505060405180910390fd5b600f54600d54600a5460408051308152602081019490945283810192909252606083018490526080830152517ffc2b4b7edcf88ba0e9a6e5875a6440b922ee9d15d31a165bcc94713ccb59f6859181900360a00190a15b5060019392505050565b601654600160a81b900460ff1681565b600f5481565b60105481565b6004546001600160a01b031681565b60135481565b60008261208a57506000610547565b8282028284828161209757fe5b04146120d45760405162461bcd60e51b81526004018080602001828103825260218152602001806124ab6021913960400191505060405180910390fd5b9392505050565b60006120d483836040518060400160405280601a81526020017f536166654d6174683a206469766973696f6e206279207a65726f000000000000815250612342565b6000828201838110156120d4576040805162461bcd60e51b815260206004820152601b60248201527f536166654d6174683a206164646974696f6e206f766572666c6f770000000000604482015290519081900360640190fd5b6015805482919060ff1916600183600681111561219057fe5b021790555050565b60008060155460ff1660068111156121ac57fe5b146121fe576040805162461bcd60e51b815260206004820152601a60248201527f4c6f616e20737461747573206973206e6f742043524541544544000000000000604482015290519081900360640190fd5b6122086002612177565b612213600d546104eb565b600f55601254600d5461223a9168056bc75e2d63100000916105219163ffffffff61207b16565b6013819055600d805491909103905560075442101561226f57600c5461226790429063ffffffff61211d16565b600b55612288565b600c546007546122849163ffffffff61211d16565b600b555b7f178ded0e6c629ae6f33779d15bb550296cdc2886af94e238448d041cfcdf491c30600f54600d546013546122bb610ba1565b600a54604080516001600160a01b0390971687526020870195909552858501939093526060850191909152608084015260a0830152519081900360c00190a150600190565b60006120d483836040518060400160405280601e81526020017f536166654d6174683a207375627472616374696f6e206f766572666c6f7700008152506123e4565b600081836123ce5760405162461bcd60e51b81526004018080602001828103825283818151815260200191508051906020019080838360005b8381101561239357818101518382015260200161237b565b50505050905090810190601f1680156123c05780820380516001836020036101000a031916815260200191505b509250505060405180910390fd5b5060008385816123da57fe5b0495945050505050565b600081848411156124365760405162461bcd60e51b815260206004820181815283516024840152835190928392604490910191908501908083836000831561239357818101518382015260200161237b565b50505090039056fe4c6f616e20737461747573206973206e6f74204641494c45445f544f5f46554e4466726f6d2061646472657373206973206e6f7420746865206f726967696e61746f725377617020636f6e7472616374206572726f722c2073686f756c642073656c662d6465737472756374536166654d6174683a206d756c7469706c69636174696f6e206f766572666c6f776572726f72207768696c65207472616e736974696f6e696e6720746f207375636365737366756c2061756374696f6ea265627a7a72315820c85ce200bd65d45e19490ef1057af81d05d1d2f9344c948ca4fceaca1650537064736f6c634300050c0032",
  "source": "pragma solidity 0.5.12;\n\nimport \"openzeppelin-solidity/contracts/token/ERC20/IERC20.sol\";\nimport \"openzeppelin-solidity/contracts/math/SafeMath.sol\";\nimport \"./interfaces/IDAIProxy.sol\";\nimport \"./interfaces/ILoanContract.sol\";\nimport \"./interfaces/ISwapAndDeposit.sol\";\nimport \"./interfaces/ISwapAndDepositFactory.sol\";\n\ncontract LoanContract is ILoanContract {\n    using SafeMath for uint256;\n    address public swapFactory;\n    address public proxyContractAddress;\n    address public tokenAddress;\n    address public originator;\n    address public administrator;\n\n    uint256 public minAmount;\n    uint256 public maxAmount;\n    uint256 public auctionEndTimestamp;\n    uint256 public auctionStartTimestamp;\n    uint256 public auctionLength;\n    uint256 public lastFundedTimestamp;\n    uint256 public termEndTimestamp;\n    uint256 public termLength;\n    uint256 public auctionBalance;\n    uint256 public loanWithdrawnAmount;\n    uint256 public borrowerDebt; // Amount borrower need to repay == principal + interests\n    uint256 public minInterestRate;\n    uint256 public maxInterestRate;\n    uint256 public operatorFee;\n    uint256 public operatorBalance;\n    uint256 constant MONTH_SECONDS = 2592000;\n    uint256 constant ONE_HUNDRED = 100000000000000000000;\n\n    struct Position {\n        uint256 bidAmount;\n        bool withdrawn;\n    }\n\n    mapping(address => Position) public lenderPosition;\n\n    enum LoanState {\n        CREATED, // accepts bids until timelimit initial state\n        FAILED_TO_FUND, // not fully funded in timelimit\n        ACTIVE, // fully funded, inside timelimit\n        DEFAULTED, // not repaid in time loanRepaymentLength\n        REPAID, // the borrower repaid in full, lenders have yet to reclaim funds\n        CLOSED, // from failed_to_fund => last lender to withdraw triggers change / from repaid => fully witdrawn by lenders\n        FROZEN // when admin unlocks withdrawals\n    }\n\n    LoanState public currentState;\n\n    IERC20 ERC20Token;\n    IDAIProxy proxy;\n\n    bool public loanWithdrawn;\n    bool public minimumReached;\n\n    event LoanCreated(\n        address indexed contractAddr,\n        address indexed originator,\n        uint256 minAmount,\n        uint256 maxAmount,\n        uint256 minInterestRate,\n        uint256 maxInterestRate,\n        uint256 auctionStartTimestamp,\n        uint256 auctionEndTimestamp,\n        address indexed administrator,\n        uint256 operatorFee\n    );\n\n    event MinimumFundingReached(address loanAddress, uint256 currentBalance, uint256 interest);\n    event FullyFunded(\n        address loanAddress,\n        uint256 balanceToRepay,\n        uint256 auctionBalance,\n        uint256 interest,\n        uint256 fundedTimestamp\n    );\n    event Funded(\n        address loanAddress,\n        address indexed lender,\n        uint256 amount,\n        uint256 interest,\n        uint256 fundedTimestamp\n    );\n    event LoanRepaid(address loanAddress, uint256 indexed timestampRepaid);\n    event RepaymentWithdrawn(address loanAddress, address indexed to, uint256 amount);\n    event RefundWithdrawn(address loanAddress, address indexed lender, uint256 amount);\n    event FullyRefunded(address loanAddress);\n    event FailedToFund(address loanAddress, address indexed lender, uint256 amount);\n    event LoanFundsWithdrawn(address loanAddress, address indexed borrower, uint256 amount);\n    event LoanDefaulted(address loanAddress);\n    event AuctionSuccessful(\n        address loanAddress,\n        uint256 balanceToRepay,\n        uint256 auctionBalance,\n        uint256 operatorBalance,\n        uint256 interest,\n        uint256 fundedTimestamp\n    );\n    event FundsUnlockedWithdrawn(address loanAddress, address indexed lender, uint256 amount);\n    event FullyFundsUnlockedWithdrawn(address loanAddress);\n    event LoanFundsUnlocked(uint256 auctionBalance);\n    event OperatorWithdrawn(uint256 amount, address administrator);\n\n    modifier onlyFrozen() {\n        require(currentState == LoanState.FROZEN, \"Loan status is not FROZEN\");\n        _;\n    }\n\n    modifier onlyAdmin() {\n        require(msg.sender == administrator, \"Caller is not an administrator\");\n        _;\n    }\n\n    modifier onlyCreated() {\n        require(currentState == LoanState.CREATED, \"Loan status is not CREATED\");\n        _;\n    }\n\n    modifier onlyActive() {\n        updateStateMachine();\n        require(currentState == LoanState.ACTIVE, \"Loan status is not ACTIVE\");\n        _;\n    }\n\n    modifier onlyRepaid() {\n        updateStateMachine();\n        require(currentState == LoanState.REPAID, \"Loan status is not REPAID\");\n        _;\n    }\n\n    modifier onlyFailedToFund() {\n        updateStateMachine();\n        require(currentState == LoanState.FAILED_TO_FUND, \"Loan status is not FAILED_TO_FUND\");\n        _;\n    }\n\n    modifier onlyProxy() {\n        require(msg.sender == address(proxy), \"Caller is not the proxy\");\n        _;\n    }\n\n    modifier onlyOriginator() {\n        require(msg.sender == originator, \"Caller is not the originator\");\n        _;\n    }\n\n    constructor(\n        uint256 _termLength,\n        uint256 _minAmount,\n        uint256 _maxAmount,\n        uint256 _minInterestRate,\n        uint256 _maxInterestRate,\n        address _originator,\n        address ERC20TokenAddress,\n        address proxyAddress,\n        address _administrator,\n        uint256 _operatorFee,\n        uint256 _auctionLength,\n        address _swapFactory\n    ) public {\n        tokenAddress = ERC20TokenAddress;\n        proxyContractAddress = proxyAddress;\n        ERC20Token = IERC20(tokenAddress);\n        proxy = IDAIProxy(proxyContractAddress);\n        originator = _originator;\n        administrator = _administrator;\n        swapFactory = _swapFactory;\n\n        minInterestRate = _minInterestRate;\n        maxInterestRate = _maxInterestRate;\n        minAmount = _minAmount;\n        maxAmount = _maxAmount;\n\n        auctionLength = _auctionLength;\n        auctionStartTimestamp = block.timestamp;\n        auctionEndTimestamp = auctionStartTimestamp + auctionLength;\n\n        termLength = _termLength;\n\n        loanWithdrawnAmount = 0;\n\n        operatorFee = _operatorFee;\n\n        setState(LoanState.CREATED);\n        emit LoanCreated(\n            address(this),\n            originator,\n            minAmount,\n            maxAmount,\n            minInterestRate,\n            maxInterestRate,\n            auctionStartTimestamp,\n            auctionEndTimestamp,\n            administrator,\n            operatorFee\n        );\n    }\n\n    function getMaxAmount() external view returns (uint256) {\n        return maxAmount;\n    }\n\n    function getAuctionBalance() external view returns (uint256) {\n        return auctionBalance;\n    }\n\n    function getLenderBidAmount(address lender) external view returns (uint256) {\n        return lenderPosition[lender].bidAmount;\n    }\n\n    function getLenderWithdrawn(address lender) external view returns (bool) {\n        return lenderPosition[lender].withdrawn;\n    }\n\n    // Notes:\n    // - This function does not track if real IERC20 balance has changed. Needs to blindly \"trust\" DaiProxy.\n    function onFundingReceived(address lender, uint256 amount)\n        external\n        onlyCreated\n        onlyProxy\n        returns (bool)\n    {\n        if (isAuctionExpired()) {\n            if (auctionBalance < minAmount) {\n                setState(LoanState.FAILED_TO_FUND);\n                emit FailedToFund(address(this), lender, amount);\n                return false;\n            } else {\n                require(setSuccessfulAuction(), \"error while transitioning to successful auction\");\n                emit FailedToFund(address(this), lender, amount);\n                return false;\n            }\n        }\n        uint256 interest = getInterestRate();\n        lenderPosition[lender].bidAmount = lenderPosition[lender].bidAmount.add(amount);\n        auctionBalance = auctionBalance.add(amount);\n\n        lastFundedTimestamp = block.timestamp;\n\n        if (auctionBalance >= minAmount && !minimumReached) {\n            minimumReached = true;\n            emit Funded(address(this), lender, amount, interest, lastFundedTimestamp);\n            emit MinimumFundingReached(address(this), auctionBalance, interest);\n        } else {\n            emit Funded(address(this), lender, amount, interest, lastFundedTimestamp);\n        }\n\n        if (auctionBalance == maxAmount) {\n            require(setSuccessfulAuction(), \"error while transitioning to successful auction\");\n            emit FullyFunded(\n                address(this),\n                borrowerDebt,\n                auctionBalance,\n                interest,\n                lastFundedTimestamp\n            );\n        }\n        return true;\n    }\n\n    function unlockFundsWithdrawal() external onlyAdmin {\n        setState(LoanState.FROZEN);\n        emit LoanFundsUnlocked(auctionBalance);\n    }\n\n    function withdrawFees() external onlyAdmin returns (bool) {\n        require(loanWithdrawn == true, \"borrower didnt withdraw\");\n        require(operatorBalance > 0, \"no funds to withdraw\");\n        uint256 allFees = operatorBalance;\n        operatorBalance = 0;\n        require(ERC20Token.transfer(msg.sender, allFees), \"transfer failed\");\n        emit OperatorWithdrawn(allFees, msg.sender);\n        return true;\n    }\n\n    function withdrawFundsUnlocked() external onlyFrozen {\n        require(!loanWithdrawn, \"Loan already withdrawn\");\n        require(!lenderPosition[msg.sender].withdrawn, \"Lender already withdrawn\");\n        require(lenderPosition[msg.sender].bidAmount > 0, \"Account did not deposit\");\n\n        lenderPosition[msg.sender].withdrawn = true;\n\n        loanWithdrawnAmount = loanWithdrawnAmount.add(lenderPosition[msg.sender].bidAmount);\n\n        require(\n            ERC20Token.transfer(msg.sender, lenderPosition[msg.sender].bidAmount),\n            \"error while transfer\"\n        );\n\n        emit FundsUnlockedWithdrawn(\n            address(this),\n            msg.sender,\n            lenderPosition[msg.sender].bidAmount\n        );\n\n        if (loanWithdrawnAmount == auctionBalance.add(operatorBalance)) {\n            setState(LoanState.CLOSED);\n            emit FullyFundsUnlockedWithdrawn(address(this));\n        }\n    }\n\n    function withdrawRefund() external onlyFailedToFund {\n        require(!lenderPosition[msg.sender].withdrawn, \"Lender already withdrawn\");\n        require(lenderPosition[msg.sender].bidAmount > 0, \"Account did not deposited.\");\n\n        lenderPosition[msg.sender].withdrawn = true;\n\n        loanWithdrawnAmount = loanWithdrawnAmount.add(lenderPosition[msg.sender].bidAmount);\n\n        emit RefundWithdrawn(address(this), msg.sender, lenderPosition[msg.sender].bidAmount);\n\n        require(\n            ERC20Token.transfer(msg.sender, lenderPosition[msg.sender].bidAmount),\n            \"error while transfer\"\n        );\n\n        if (loanWithdrawnAmount == auctionBalance) {\n            setState(LoanState.CLOSED);\n            emit FullyRefunded(address(this));\n        }\n    }\n\n    function withdrawRepayment() external onlyRepaid {\n        require(!lenderPosition[msg.sender].withdrawn, \"Lender already withdrawn\");\n        require(lenderPosition[msg.sender].bidAmount != 0, \"Account did not deposited\");\n        uint256 amount = calculateValueWithInterest(lenderPosition[msg.sender].bidAmount);\n        lenderPosition[msg.sender].withdrawn = true;\n\n        loanWithdrawnAmount = loanWithdrawnAmount.add(amount);\n        require(ERC20Token.transfer(msg.sender, amount), \"error while transfer\");\n\n        emit RepaymentWithdrawn(address(this), msg.sender, amount);\n        if (loanWithdrawnAmount == borrowerDebt) {\n            setState(LoanState.CLOSED);\n            emit FullyRefunded(address(this));\n        }\n    }\n\n    function withdrawRepaymentAndDeposit() external onlyRepaid {\n        require(swapFactory != address(0), \"swap factory is 0\");\n        require(!lenderPosition[msg.sender].withdrawn, \"Lender already withdrawn\");\n        require(lenderPosition[msg.sender].bidAmount != 0, \"Account did not deposited\");\n        uint256 amount = calculateValueWithInterest(lenderPosition[msg.sender].bidAmount);\n        lenderPosition[msg.sender].withdrawn = true;\n        loanWithdrawnAmount = loanWithdrawnAmount.add(amount);\n        address swapAddress = ISwapAndDepositFactory(swapFactory).deploy();\n        require(swapAddress != address(0), \"error swap deploy\");\n        ERC20Token.approve(swapAddress, amount);\n        ISwapAndDeposit(swapAddress).swapAndDeposit(msg.sender, tokenAddress, amount);\n        require(\n            ISwapAndDeposit(swapAddress).isDestroyed(),\n            \"Swap contract error, should self-destruct\"\n        );\n        emit RepaymentWithdrawn(address(this), msg.sender, amount);\n        if (loanWithdrawnAmount == borrowerDebt) {\n            setState(LoanState.CLOSED);\n            emit FullyRefunded(address(this));\n        }\n    }\n\n    function withdrawLoan() external onlyActive onlyOriginator {\n        require(!loanWithdrawn, \"Already withdrawn\");\n        loanWithdrawn = true;\n        emit LoanFundsWithdrawn(address(this), msg.sender, auctionBalance);\n        require(ERC20Token.transfer(msg.sender, auctionBalance), \"error while transfer\");\n    }\n\n    function onRepaymentReceived(address from, uint256 amount)\n        external\n        onlyActive\n        onlyProxy\n        returns (bool)\n    {\n        require(from == originator, \"from address is not the originator\");\n        require(borrowerDebt == amount, \"Repayment amount is not the same\");\n\n        setState(LoanState.REPAID);\n        emit LoanRepaid(address(this), block.timestamp);\n        return true;\n    }\n\n    function isAuctionExpired() public view returns (bool) {\n        return block.timestamp > auctionEndTimestamp;\n    }\n\n    function isDefaulted() public view returns (bool) {\n        if (block.timestamp <= auctionEndTimestamp || block.timestamp <= termEndTimestamp) {\n            return false;\n        }\n\n        return true;\n    }\n\n    function updateStateMachine() public returns (LoanState) {\n        if (isAuctionExpired() && currentState == LoanState.CREATED) {\n            if (!minimumReached) {\n                setState(LoanState.FAILED_TO_FUND);\n            } else {\n                require(setSuccessfulAuction(), \"error while transitioning to successful auction\");\n            }\n        }\n        if (isDefaulted() && currentState == LoanState.ACTIVE) {\n            setState(LoanState.DEFAULTED);\n            emit LoanDefaulted(address(this));\n        }\n\n        return currentState;\n    }\n\n    function calculateValueWithInterest(uint256 value) public view returns (uint256) {\n        return\n            value.add(\n                value.mul(getInterestRate().mul(termLength).div(MONTH_SECONDS)).div(ONE_HUNDRED)\n            );\n    }\n\n    function getInterestRate() public view returns (uint256) {\n        if (currentState == LoanState.CREATED) {\n            return\n                (maxInterestRate.sub(minInterestRate))\n                    .mul(block.timestamp.sub(auctionStartTimestamp))\n                    .div(auctionEndTimestamp.sub(auctionStartTimestamp))\n                    .add(minInterestRate);\n        } else if (currentState == LoanState.ACTIVE || currentState == LoanState.REPAID) {\n            return\n                (maxInterestRate.sub(minInterestRate))\n                    .mul(lastFundedTimestamp.sub(auctionStartTimestamp))\n                    .div(auctionEndTimestamp.sub(auctionStartTimestamp))\n                    .add(minInterestRate);\n        } else {\n            return 0;\n        }\n    }\n\n    function setState(LoanState state) internal {\n        currentState = state;\n    }\n\n    function setSuccessfulAuction() internal onlyCreated returns (bool) {\n        setState(LoanState.ACTIVE);\n        borrowerDebt = calculateValueWithInterest(auctionBalance);\n        operatorBalance = auctionBalance.mul(operatorFee).div(ONE_HUNDRED);\n        auctionBalance = auctionBalance - operatorBalance;\n\n        if (block.timestamp < auctionEndTimestamp) {\n            termEndTimestamp = block.timestamp.add(termLength);\n        } else {\n            termEndTimestamp = auctionEndTimestamp.add(termLength);\n        }\n\n        emit AuctionSuccessful(\n            address(this),\n            borrowerDebt,\n            auctionBalance,\n            operatorBalance,\n            getInterestRate(),\n            lastFundedTimestamp\n        );\n        return true;\n    }\n}\n",
  "sourcePath": "/home/kartojal/repos/contracts-solidity/contracts/LoanContract.sol",
  "compiler": {
    "name": "solc",
    "version": "0.5.12+commit.7709ece9.Emscripten.clang"
  },
  "schemaVersion": "3.0.23",
  "updatedAt": "2020-02-25T09:36:21.214Z",
  "devdoc": {
    "methods": {}
  },
  "userdoc": {
    "methods": {}
  }
}