{
  "contractName": "LoanInstalments",
  "abi": [
    {
      "inputs": [],
      "payable": false,
      "stateMutability": "nonpayable",
      "type": "constructor"
    },
    {
      "anonymous": false,
      "inputs": [
        {
          "indexed": false,
          "internalType": "address",
          "name": "loanAddress",
          "type": "address"
        },
        {
          "indexed": false,
          "internalType": "uint256",
          "name": "balanceToRepay",
          "type": "uint256"
        },
        {
          "indexed": false,
          "internalType": "uint256",
          "name": "auctionBalance",
          "type": "uint256"
        },
        {
          "indexed": false,
          "internalType": "uint256",
          "name": "operatorBalance",
          "type": "uint256"
        },
        {
          "indexed": false,
          "internalType": "uint256",
          "name": "interest",
          "type": "uint256"
        },
        {
          "indexed": false,
          "internalType": "uint256",
          "name": "fundedTimestamp",
          "type": "uint256"
        }
      ],
      "name": "AuctionSuccessful",
      "type": "event"
    },
    {
      "anonymous": false,
      "inputs": [
        {
          "indexed": false,
          "internalType": "address",
          "name": "newDaiProxyAddress",
          "type": "address"
        },
        {
          "indexed": false,
          "internalType": "address",
          "name": "administrator",
          "type": "address"
        },
        {
          "indexed": false,
          "internalType": "address",
          "name": "loanDispatcher",
          "type": "address"
        }
      ],
      "name": "DaiProxyAddressUpdated",
      "type": "event"
    },
    {
      "anonymous": false,
      "inputs": [
        {
          "indexed": false,
          "internalType": "address",
          "name": "loanAddress",
          "type": "address"
        },
        {
          "indexed": true,
          "internalType": "address",
          "name": "lender",
          "type": "address"
        },
        {
          "indexed": false,
          "internalType": "uint256",
          "name": "amount",
          "type": "uint256"
        }
      ],
      "name": "FailedToFund",
      "type": "event"
    },
    {
      "anonymous": false,
      "inputs": [
        {
          "indexed": false,
          "internalType": "address",
          "name": "loanAddress",
          "type": "address"
        },
        {
          "indexed": false,
          "internalType": "uint256",
          "name": "balanceToRepay",
          "type": "uint256"
        },
        {
          "indexed": false,
          "internalType": "uint256",
          "name": "auctionBalance",
          "type": "uint256"
        },
        {
          "indexed": false,
          "internalType": "uint256",
          "name": "interest",
          "type": "uint256"
        },
        {
          "indexed": false,
          "internalType": "uint256",
          "name": "fundedTimestamp",
          "type": "uint256"
        }
      ],
      "name": "FullyFunded",
      "type": "event"
    },
    {
      "anonymous": false,
      "inputs": [
        {
          "indexed": false,
          "internalType": "address",
          "name": "loanAddress",
          "type": "address"
        }
      ],
      "name": "FullyFundsUnlockedWithdrawn",
      "type": "event"
    },
    {
      "anonymous": false,
      "inputs": [
        {
          "indexed": false,
          "internalType": "address",
          "name": "loanAddress",
          "type": "address"
        }
      ],
      "name": "FullyRefunded",
      "type": "event"
    },
    {
      "anonymous": false,
      "inputs": [
        {
          "indexed": false,
          "internalType": "address",
          "name": "loanAddress",
          "type": "address"
        },
        {
          "indexed": true,
          "internalType": "address",
          "name": "lender",
          "type": "address"
        },
        {
          "indexed": false,
          "internalType": "uint256",
          "name": "amount",
          "type": "uint256"
        },
        {
          "indexed": false,
          "internalType": "uint256",
          "name": "interest",
          "type": "uint256"
        },
        {
          "indexed": false,
          "internalType": "uint256",
          "name": "fundedTimestamp",
          "type": "uint256"
        }
      ],
      "name": "Funded",
      "type": "event"
    },
    {
      "anonymous": false,
      "inputs": [
        {
          "indexed": false,
          "internalType": "address",
          "name": "loanAddress",
          "type": "address"
        },
        {
          "indexed": true,
          "internalType": "address",
          "name": "lender",
          "type": "address"
        },
        {
          "indexed": false,
          "internalType": "uint256",
          "name": "amount",
          "type": "uint256"
        }
      ],
      "name": "FundsUnlockedWithdrawn",
      "type": "event"
    },
    {
      "anonymous": false,
      "inputs": [
        {
          "indexed": true,
          "internalType": "address",
          "name": "contractAddr",
          "type": "address"
        },
        {
          "indexed": true,
          "internalType": "address",
          "name": "originator",
          "type": "address"
        },
        {
          "indexed": false,
          "internalType": "uint256",
          "name": "minAmount",
          "type": "uint256"
        },
        {
          "indexed": false,
          "internalType": "uint256",
          "name": "maxAmount",
          "type": "uint256"
        },
        {
          "indexed": false,
          "internalType": "uint256",
          "name": "minInterestRate",
          "type": "uint256"
        },
        {
          "indexed": false,
          "internalType": "uint256",
          "name": "maxInterestRate",
          "type": "uint256"
        },
        {
          "indexed": false,
          "internalType": "uint256",
          "name": "auctionStartTimestamp",
          "type": "uint256"
        },
        {
          "indexed": false,
          "internalType": "uint256",
          "name": "auctionEndTimestamp",
          "type": "uint256"
        },
        {
          "indexed": false,
          "internalType": "uint256",
          "name": "operatorFee",
          "type": "uint256"
        },
        {
          "indexed": false,
          "internalType": "address",
          "name": "tokenAddress",
          "type": "address"
        },
        {
          "indexed": false,
          "internalType": "uint256",
          "name": "instalments",
          "type": "uint256"
        }
      ],
      "name": "LoanCreated",
      "type": "event"
    },
    {
      "anonymous": false,
      "inputs": [
        {
          "indexed": false,
          "internalType": "address",
          "name": "loanAddress",
          "type": "address"
        }
      ],
      "name": "LoanDefaulted",
      "type": "event"
    },
    {
      "anonymous": false,
      "inputs": [
        {
          "indexed": false,
          "internalType": "uint256",
          "name": "auctionBalance",
          "type": "uint256"
        }
      ],
      "name": "LoanFundsUnlocked",
      "type": "event"
    },
    {
      "anonymous": false,
      "inputs": [
        {
          "indexed": false,
          "internalType": "address",
          "name": "loanAddress",
          "type": "address"
        },
        {
          "indexed": true,
          "internalType": "address",
          "name": "borrower",
          "type": "address"
        },
        {
          "indexed": false,
          "internalType": "uint256",
          "name": "amount",
          "type": "uint256"
        }
      ],
      "name": "LoanFundsWithdrawn",
      "type": "event"
    },
    {
      "anonymous": false,
      "inputs": [
        {
          "indexed": false,
          "internalType": "address",
          "name": "loanAddress",
          "type": "address"
        },
        {
          "indexed": true,
          "internalType": "uint256",
          "name": "timestampRepaid",
          "type": "uint256"
        }
      ],
      "name": "LoanRepaid",
      "type": "event"
    },
    {
      "anonymous": false,
      "inputs": [
        {
          "indexed": false,
          "internalType": "address",
          "name": "loanAddress",
          "type": "address"
        },
        {
          "indexed": false,
          "internalType": "uint256",
          "name": "currentBalance",
          "type": "uint256"
        },
        {
          "indexed": false,
          "internalType": "uint256",
          "name": "interest",
          "type": "uint256"
        }
      ],
      "name": "MinimumFundingReached",
      "type": "event"
    },
    {
      "anonymous": false,
      "inputs": [
        {
          "indexed": false,
          "internalType": "uint256",
          "name": "amount",
          "type": "uint256"
        },
        {
          "indexed": false,
          "internalType": "address",
          "name": "administrator",
          "type": "address"
        }
      ],
      "name": "OperatorWithdrawn",
      "type": "event"
    },
    {
      "anonymous": false,
      "inputs": [
        {
          "indexed": false,
          "internalType": "address",
          "name": "loanAddress",
          "type": "address"
        },
        {
          "indexed": true,
          "internalType": "address",
          "name": "lender",
          "type": "address"
        },
        {
          "indexed": false,
          "internalType": "uint256",
          "name": "amount",
          "type": "uint256"
        }
      ],
      "name": "RefundWithdrawn",
      "type": "event"
    },
    {
      "anonymous": false,
      "inputs": [
        {
          "indexed": false,
          "internalType": "address",
          "name": "loanAddress",
          "type": "address"
        },
        {
          "indexed": true,
          "internalType": "address",
          "name": "to",
          "type": "address"
        },
        {
          "indexed": false,
          "internalType": "uint256",
          "name": "amount",
          "type": "uint256"
        }
      ],
      "name": "RepaymentWithdrawn",
      "type": "event"
    },
    {
      "constant": true,
      "inputs": [],
      "name": "administrator",
      "outputs": [
        {
          "internalType": "address",
          "name": "",
          "type": "address"
        }
      ],
      "payable": false,
      "stateMutability": "view",
      "type": "function"
    },
    {
      "constant": true,
      "inputs": [],
      "name": "auctionBalance",
      "outputs": [
        {
          "internalType": "uint256",
          "name": "",
          "type": "uint256"
        }
      ],
      "payable": false,
      "stateMutability": "view",
      "type": "function"
    },
    {
      "constant": true,
      "inputs": [],
      "name": "auctionEndTimestamp",
      "outputs": [
        {
          "internalType": "uint256",
          "name": "",
          "type": "uint256"
        }
      ],
      "payable": false,
      "stateMutability": "view",
      "type": "function"
    },
    {
      "constant": true,
      "inputs": [],
      "name": "auctionLength",
      "outputs": [
        {
          "internalType": "uint256",
          "name": "",
          "type": "uint256"
        }
      ],
      "payable": false,
      "stateMutability": "view",
      "type": "function"
    },
    {
      "constant": true,
      "inputs": [],
      "name": "auctionStartTimestamp",
      "outputs": [
        {
          "internalType": "uint256",
          "name": "",
          "type": "uint256"
        }
      ],
      "payable": false,
      "stateMutability": "view",
      "type": "function"
    },
    {
      "constant": true,
      "inputs": [],
      "name": "borrowerDebt",
      "outputs": [
        {
          "internalType": "uint256",
          "name": "",
          "type": "uint256"
        }
      ],
      "payable": false,
      "stateMutability": "view",
      "type": "function"
    },
    {
      "constant": true,
      "inputs": [],
      "name": "currentState",
      "outputs": [
        {
          "internalType": "enum LoanInstalments.LoanState",
          "name": "",
          "type": "uint8"
        }
      ],
      "payable": false,
      "stateMutability": "view",
      "type": "function"
    },
    {
      "constant": true,
      "inputs": [],
      "name": "instalments",
      "outputs": [
        {
          "internalType": "uint256",
          "name": "",
          "type": "uint256"
        }
      ],
      "payable": false,
      "stateMutability": "view",
      "type": "function"
    },
    {
      "constant": true,
      "inputs": [],
      "name": "instalmentsPaid",
      "outputs": [
        {
          "internalType": "uint256",
          "name": "",
          "type": "uint256"
        }
      ],
      "payable": false,
      "stateMutability": "view",
      "type": "function"
    },
    {
      "constant": true,
      "inputs": [],
      "name": "investors",
      "outputs": [
        {
          "internalType": "uint256",
          "name": "",
          "type": "uint256"
        }
      ],
      "payable": false,
      "stateMutability": "view",
      "type": "function"
    },
    {
      "constant": true,
      "inputs": [],
      "name": "lastFundedTimestamp",
      "outputs": [
        {
          "internalType": "uint256",
          "name": "",
          "type": "uint256"
        }
      ],
      "payable": false,
      "stateMutability": "view",
      "type": "function"
    },
    {
      "constant": true,
      "inputs": [
        {
          "internalType": "address",
          "name": "",
          "type": "address"
        }
      ],
      "name": "lenderPosition",
      "outputs": [
        {
          "internalType": "uint256",
          "name": "bidAmount",
          "type": "uint256"
        },
        {
          "internalType": "bool",
          "name": "loanWithdrawn",
          "type": "bool"
        },
        {
          "internalType": "uint256",
          "name": "instalmentsWithdrawed",
          "type": "uint256"
        },
        {
          "internalType": "uint256",
          "name": "penaltiesWithdrawed",
          "type": "uint256"
        }
      ],
      "payable": false,
      "stateMutability": "view",
      "type": "function"
    },
    {
      "constant": true,
      "inputs": [],
      "name": "loanAmountPaid",
      "outputs": [
        {
          "internalType": "uint256",
          "name": "",
          "type": "uint256"
        }
      ],
      "payable": false,
      "stateMutability": "view",
      "type": "function"
    },
    {
      "constant": true,
      "inputs": [],
      "name": "loanWithdrawn",
      "outputs": [
        {
          "internalType": "bool",
          "name": "",
          "type": "bool"
        }
      ],
      "payable": false,
      "stateMutability": "view",
      "type": "function"
    },
    {
      "constant": true,
      "inputs": [],
      "name": "loanWithdrawnAmount",
      "outputs": [
        {
          "internalType": "uint256",
          "name": "",
          "type": "uint256"
        }
      ],
      "payable": false,
      "stateMutability": "view",
      "type": "function"
    },
    {
      "constant": true,
      "inputs": [],
      "name": "maxAmount",
      "outputs": [
        {
          "internalType": "uint256",
          "name": "",
          "type": "uint256"
        }
      ],
      "payable": false,
      "stateMutability": "view",
      "type": "function"
    },
    {
      "constant": true,
      "inputs": [],
      "name": "maxInterestRate",
      "outputs": [
        {
          "internalType": "uint256",
          "name": "",
          "type": "uint256"
        }
      ],
      "payable": false,
      "stateMutability": "view",
      "type": "function"
    },
    {
      "constant": true,
      "inputs": [],
      "name": "minAmount",
      "outputs": [
        {
          "internalType": "uint256",
          "name": "",
          "type": "uint256"
        }
      ],
      "payable": false,
      "stateMutability": "view",
      "type": "function"
    },
    {
      "constant": true,
      "inputs": [],
      "name": "minInterestRate",
      "outputs": [
        {
          "internalType": "uint256",
          "name": "",
          "type": "uint256"
        }
      ],
      "payable": false,
      "stateMutability": "view",
      "type": "function"
    },
    {
      "constant": true,
      "inputs": [],
      "name": "minimumReached",
      "outputs": [
        {
          "internalType": "bool",
          "name": "",
          "type": "bool"
        }
      ],
      "payable": false,
      "stateMutability": "view",
      "type": "function"
    },
    {
      "constant": true,
      "inputs": [],
      "name": "operatorBalance",
      "outputs": [
        {
          "internalType": "uint256",
          "name": "",
          "type": "uint256"
        }
      ],
      "payable": false,
      "stateMutability": "view",
      "type": "function"
    },
    {
      "constant": true,
      "inputs": [],
      "name": "operatorFee",
      "outputs": [
        {
          "internalType": "uint256",
          "name": "",
          "type": "uint256"
        }
      ],
      "payable": false,
      "stateMutability": "view",
      "type": "function"
    },
    {
      "constant": true,
      "inputs": [],
      "name": "originator",
      "outputs": [
        {
          "internalType": "address",
          "name": "",
          "type": "address"
        }
      ],
      "payable": false,
      "stateMutability": "view",
      "type": "function"
    },
    {
      "constant": true,
      "inputs": [],
      "name": "penaltiesPaid",
      "outputs": [
        {
          "internalType": "uint256",
          "name": "",
          "type": "uint256"
        }
      ],
      "payable": false,
      "stateMutability": "view",
      "type": "function"
    },
    {
      "constant": true,
      "inputs": [],
      "name": "proxyAddress",
      "outputs": [
        {
          "internalType": "address",
          "name": "",
          "type": "address"
        }
      ],
      "payable": false,
      "stateMutability": "view",
      "type": "function"
    },
    {
      "constant": true,
      "inputs": [],
      "name": "swapFactory",
      "outputs": [
        {
          "internalType": "address",
          "name": "",
          "type": "address"
        }
      ],
      "payable": false,
      "stateMutability": "view",
      "type": "function"
    },
    {
      "constant": true,
      "inputs": [],
      "name": "termEndTimestamp",
      "outputs": [
        {
          "internalType": "uint256",
          "name": "",
          "type": "uint256"
        }
      ],
      "payable": false,
      "stateMutability": "view",
      "type": "function"
    },
    {
      "constant": true,
      "inputs": [],
      "name": "termLength",
      "outputs": [
        {
          "internalType": "uint256",
          "name": "",
          "type": "uint256"
        }
      ],
      "payable": false,
      "stateMutability": "view",
      "type": "function"
    },
    {
      "constant": true,
      "inputs": [],
      "name": "tokenAddress",
      "outputs": [
        {
          "internalType": "address",
          "name": "",
          "type": "address"
        }
      ],
      "payable": false,
      "stateMutability": "view",
      "type": "function"
    },
    {
      "constant": true,
      "inputs": [],
      "name": "totalWithdraws",
      "outputs": [
        {
          "internalType": "uint256",
          "name": "",
          "type": "uint256"
        }
      ],
      "payable": false,
      "stateMutability": "view",
      "type": "function"
    },
    {
      "constant": false,
      "inputs": [
        {
          "internalType": "uint256",
          "name": "_termLength",
          "type": "uint256"
        },
        {
          "internalType": "uint256",
          "name": "_minAmount",
          "type": "uint256"
        },
        {
          "internalType": "uint256",
          "name": "_maxAmount",
          "type": "uint256"
        },
        {
          "internalType": "uint256",
          "name": "_minInterestRate",
          "type": "uint256"
        },
        {
          "internalType": "uint256",
          "name": "_maxInterestRate",
          "type": "uint256"
        },
        {
          "internalType": "uint256",
          "name": "_operatorFee",
          "type": "uint256"
        },
        {
          "internalType": "uint256",
          "name": "_auctionLength",
          "type": "uint256"
        },
        {
          "internalType": "uint256",
          "name": "_instalments",
          "type": "uint256"
        },
        {
          "internalType": "address",
          "name": "_originator",
          "type": "address"
        },
        {
          "internalType": "address",
          "name": "_tokenAddress",
          "type": "address"
        },
        {
          "internalType": "address",
          "name": "_proxyAddress",
          "type": "address"
        },
        {
          "internalType": "address",
          "name": "_administrator",
          "type": "address"
        },
        {
          "internalType": "address",
          "name": "_swapFactory",
          "type": "address"
        }
      ],
      "name": "init",
      "outputs": [
        {
          "internalType": "bool",
          "name": "",
          "type": "bool"
        }
      ],
      "payable": false,
      "stateMutability": "nonpayable",
      "type": "function"
    },
    {
      "constant": true,
      "inputs": [],
      "name": "isTemplateContract",
      "outputs": [
        {
          "internalType": "bool",
          "name": "",
          "type": "bool"
        }
      ],
      "payable": false,
      "stateMutability": "view",
      "type": "function"
    },
    {
      "constant": true,
      "inputs": [],
      "name": "getMaxAmount",
      "outputs": [
        {
          "internalType": "uint256",
          "name": "",
          "type": "uint256"
        }
      ],
      "payable": false,
      "stateMutability": "view",
      "type": "function"
    },
    {
      "constant": true,
      "inputs": [],
      "name": "getAuctionBalance",
      "outputs": [
        {
          "internalType": "uint256",
          "name": "",
          "type": "uint256"
        }
      ],
      "payable": false,
      "stateMutability": "view",
      "type": "function"
    },
    {
      "constant": true,
      "inputs": [
        {
          "internalType": "address",
          "name": "lender",
          "type": "address"
        }
      ],
      "name": "getLenderBidAmount",
      "outputs": [
        {
          "internalType": "uint256",
          "name": "",
          "type": "uint256"
        }
      ],
      "payable": false,
      "stateMutability": "view",
      "type": "function"
    },
    {
      "constant": true,
      "inputs": [
        {
          "internalType": "address",
          "name": "lender",
          "type": "address"
        }
      ],
      "name": "getLenderWithdrawn",
      "outputs": [
        {
          "internalType": "bool",
          "name": "",
          "type": "bool"
        }
      ],
      "payable": false,
      "stateMutability": "view",
      "type": "function"
    },
    {
      "constant": true,
      "inputs": [
        {
          "internalType": "address",
          "name": "lender",
          "type": "address"
        }
      ],
      "name": "getLenderInstalmentsWithdrawed",
      "outputs": [
        {
          "internalType": "uint256",
          "name": "",
          "type": "uint256"
        }
      ],
      "payable": false,
      "stateMutability": "view",
      "type": "function"
    },
    {
      "constant": true,
      "inputs": [],
      "name": "getTokenAddress",
      "outputs": [
        {
          "internalType": "address",
          "name": "",
          "type": "address"
        }
      ],
      "payable": false,
      "stateMutability": "view",
      "type": "function"
    },
    {
      "constant": false,
      "inputs": [
        {
          "internalType": "address",
          "name": "lender",
          "type": "address"
        },
        {
          "internalType": "uint256",
          "name": "amount",
          "type": "uint256"
        }
      ],
      "name": "onFundingReceived",
      "outputs": [
        {
          "internalType": "bool",
          "name": "",
          "type": "bool"
        }
      ],
      "payable": false,
      "stateMutability": "nonpayable",
      "type": "function"
    },
    {
      "constant": false,
      "inputs": [],
      "name": "unlockFundsWithdrawal",
      "outputs": [],
      "payable": false,
      "stateMutability": "nonpayable",
      "type": "function"
    },
    {
      "constant": false,
      "inputs": [],
      "name": "withdrawFees",
      "outputs": [
        {
          "internalType": "bool",
          "name": "",
          "type": "bool"
        }
      ],
      "payable": false,
      "stateMutability": "nonpayable",
      "type": "function"
    },
    {
      "constant": false,
      "inputs": [],
      "name": "withdrawFundsUnlocked",
      "outputs": [],
      "payable": false,
      "stateMutability": "nonpayable",
      "type": "function"
    },
    {
      "constant": false,
      "inputs": [],
      "name": "withdrawRefund",
      "outputs": [],
      "payable": false,
      "stateMutability": "nonpayable",
      "type": "function"
    },
    {
      "constant": true,
      "inputs": [
        {
          "internalType": "address",
          "name": "lender",
          "type": "address"
        }
      ],
      "name": "getWithdrawAmount",
      "outputs": [
        {
          "internalType": "uint256",
          "name": "",
          "type": "uint256"
        }
      ],
      "payable": false,
      "stateMutability": "view",
      "type": "function"
    },
    {
      "constant": false,
      "inputs": [],
      "name": "withdrawRepayment",
      "outputs": [],
      "payable": false,
      "stateMutability": "nonpayable",
      "type": "function"
    },
    {
      "constant": false,
      "inputs": [],
      "name": "withdrawRepaymentAndDeposit",
      "outputs": [],
      "payable": false,
      "stateMutability": "nonpayable",
      "type": "function"
    },
    {
      "constant": false,
      "inputs": [],
      "name": "withdrawLoan",
      "outputs": [],
      "payable": false,
      "stateMutability": "nonpayable",
      "type": "function"
    },
    {
      "constant": true,
      "inputs": [],
      "name": "getInstalmentDebt",
      "outputs": [
        {
          "internalType": "uint256",
          "name": "",
          "type": "uint256"
        }
      ],
      "payable": false,
      "stateMutability": "view",
      "type": "function"
    },
    {
      "constant": true,
      "inputs": [],
      "name": "getTotalDebt",
      "outputs": [
        {
          "internalType": "uint256",
          "name": "",
          "type": "uint256"
        }
      ],
      "payable": false,
      "stateMutability": "view",
      "type": "function"
    },
    {
      "constant": false,
      "inputs": [
        {
          "internalType": "address",
          "name": "from",
          "type": "address"
        },
        {
          "internalType": "uint256",
          "name": "amount",
          "type": "uint256"
        }
      ],
      "name": "onRepaymentReceived",
      "outputs": [
        {
          "internalType": "bool",
          "name": "",
          "type": "bool"
        }
      ],
      "payable": false,
      "stateMutability": "nonpayable",
      "type": "function"
    },
    {
      "constant": true,
      "inputs": [],
      "name": "isAuctionExpired",
      "outputs": [
        {
          "internalType": "bool",
          "name": "",
          "type": "bool"
        }
      ],
      "payable": false,
      "stateMutability": "view",
      "type": "function"
    },
    {
      "constant": true,
      "inputs": [],
      "name": "isDefaulted",
      "outputs": [
        {
          "internalType": "bool",
          "name": "",
          "type": "bool"
        }
      ],
      "payable": false,
      "stateMutability": "view",
      "type": "function"
    },
    {
      "constant": false,
      "inputs": [],
      "name": "updateStateMachine",
      "outputs": [
        {
          "internalType": "enum LoanInstalments.LoanState",
          "name": "",
          "type": "uint8"
        }
      ],
      "payable": false,
      "stateMutability": "nonpayable",
      "type": "function"
    },
    {
      "constant": true,
      "inputs": [
        {
          "internalType": "uint256",
          "name": "value",
          "type": "uint256"
        }
      ],
      "name": "calculateValueWithInterest",
      "outputs": [
        {
          "internalType": "uint256",
          "name": "",
          "type": "uint256"
        }
      ],
      "payable": false,
      "stateMutability": "view",
      "type": "function"
    },
    {
      "constant": true,
      "inputs": [],
      "name": "getInterestRate",
      "outputs": [
        {
          "internalType": "uint256",
          "name": "",
          "type": "uint256"
        }
      ],
      "payable": false,
      "stateMutability": "view",
      "type": "function"
    },
    {
      "constant": false,
      "inputs": [
        {
          "internalType": "address",
          "name": "_proxyAddress",
          "type": "address"
        }
      ],
      "name": "setProxyAddress",
      "outputs": [],
      "payable": false,
      "stateMutability": "nonpayable",
      "type": "function"
    },
    {
      "constant": true,
      "inputs": [],
      "name": "getInstalmentLenght",
      "outputs": [
        {
          "internalType": "uint256",
          "name": "",
          "type": "uint256"
        }
      ],
      "payable": false,
      "stateMutability": "view",
      "type": "function"
    },
    {
      "constant": true,
      "inputs": [],
      "name": "getNextInstalmentDate",
      "outputs": [
        {
          "internalType": "uint256",
          "name": "",
          "type": "uint256"
        }
      ],
      "payable": false,
      "stateMutability": "view",
      "type": "function"
    },
    {
      "constant": true,
      "inputs": [],
      "name": "getCurrentInstalment",
      "outputs": [
        {
          "internalType": "uint256",
          "name": "",
          "type": "uint256"
        }
      ],
      "payable": false,
      "stateMutability": "view",
      "type": "function"
    },
    {
      "constant": true,
      "inputs": [],
      "name": "getInstalmentAmount",
      "outputs": [
        {
          "internalType": "uint256",
          "name": "",
          "type": "uint256"
        }
      ],
      "payable": false,
      "stateMutability": "view",
      "type": "function"
    },
    {
      "constant": true,
      "inputs": [],
      "name": "getInstalmentPenalty",
      "outputs": [
        {
          "internalType": "uint256",
          "name": "",
          "type": "uint256"
        }
      ],
      "payable": false,
      "stateMutability": "view",
      "type": "function"
    }
  ],
  "bytecode": "0x608060405234801561001057600080fd5b50601b805463ff0000001916630100000017905561382e806100336000396000f3fe608060405234801561001057600080fd5b50600436106103af5760003560e01c806369e0f0f7116101f4578063a9133d1a1161011a578063d77a4bbf116100ad578063e91ac2681161007c578063e91ac26814610791578063eb994db114610799578063f53d0a8e146107a1578063fcdd8aac146107a9576103af565b8063d77a4bbf1461074d578063e324ecba14610755578063e565eb4c14610781578063e5ab892b14610789576103af565b8063c4c77e25116100e9578063c4c77e251461072d578063c6a96c8f14610735578063c7b18a171461073d578063d67c48e414610745576103af565b8063a9133d1a1461070d578063a9583d5f14610715578063b4420f821461071d578063b4ea258014610725576103af565b80637c607690116101925780639d76ea58116101615780639d76ea58146106ed578063a1cb742e146106f5578063a38aaa90146106fd578063a3f8d3d614610705576103af565b80637c607690146106cd57806389afc0f1146106d55780638ac27f5f146106dd5780639b2cb5d8146106e5576103af565b80637489b451116101ce5780637489b451146106ad5780637594dc73146106b55780637944f944146106bd57806379b18cd1146106c5576103af565b806369e0f0f7146106955780636d59f4c71461069d57806372e4671d146106a5576103af565b806339c84486116102d95780634ea1fcb6116102775780635b46c14d116102465780635b46c14d146106335780635f48f3931461063b5780636014488b1461064357806368fe58bf14610669576103af565b80634ea1fcb61461057f5780634f8c425a146105a557806352561bb2146106235780635257b5661461062b576103af565b806341243a79116102b357806341243a79146104df57806346a7dadc1461052b578063476343ee146105515780634ce1fbba14610559576103af565b806339c84486146104c75780633b56621f146104cf5780633c815d9e146104d7576103af565b80631f9e1feb1161035157806325a35e731161032057806325a35e7314610489578063325c25a21461049157806334ce998a146104995780633703bcdc146104a1576103af565b80631f9e1feb1461045557806320cef7221461047157806321b760141461047957806323f5c02d14610481576103af565b80630d3bade71161038d5780630d3bade71461041757806310fe9ae81461041f578063110f8874146104435780631bab0c791461044d576103af565b806303115084146103b45780630ba95909146103e35780630c3f6acf146103eb575b600080fd5b6103d1600480360360208110156103ca57600080fd5b50356107b1565b60408051918252519081900360200190f35b6103d1610813565b6103f361081a565b6040518082600681111561040357fe5b60ff16815260200191505060405180910390f35b6103d1610823565b610427610847565b604080516001600160a01b039092168252519081900360200190f35b61044b610856565b005b6103d1610b7a565b61045d610b80565b604080519115158252519081900360200190f35b6103d1610b90565b6103d1610b96565b610427610c14565b6103d1610c23565b6103d1610c29565b6103d1610c2f565b6103d1600480360360208110156104b757600080fd5b50356001600160a01b0316610cf7565b6103f3610d12565b6103d1610e5e565b610427610e64565b610505600480360360208110156104f557600080fd5b50356001600160a01b0316610e73565b604080519485529215156020850152838301919091526060830152519081900360800190f35b61044b6004803603602081101561054157600080fd5b50356001600160a01b0316610e9e565b61045d610faf565b6103d16004803603602081101561056f57600080fd5b50356001600160a01b0316611232565b6103d16004803603602081101561059557600080fd5b50356001600160a01b0316611250565b61045d60048036036101a08110156105bc57600080fd5b5080359060208101359060408101359060608101359060808101359060a08101359060c08101359060e0810135906001600160a01b03610100820135811691610120810135821691610140820135811691610160810135821691610180909101351661131e565b6103d1611530565b6103d1611543565b6103d1611642565b6103d1611648565b61045d6004803603602081101561065957600080fd5b50356001600160a01b031661164e565b61045d6004803603604081101561067f57600080fd5b506001600160a01b03813516906020013561166f565b61044b6119d5565b61045d611ac2565b6103d1611ad0565b61044b611ad6565b61044b611cc1565b610427612047565b6103d1612056565b61045d61205c565b6103d1612064565b6103d161206a565b6103d1612070565b610427612076565b6103d1612085565b61045d61208b565b61044b6120ca565b6103d16124a0565b6103d16124a6565b6103d16124ac565b6103d16124b2565b61044b6124b8565b6103d16126e5565b6103d16126eb565b6103d161272c565b6103d1612758565b61045d6004803603604081101561076b57600080fd5b506001600160a01b038135169060200135612811565b61045d612e08565b6103d1612e17565b6103d1612e1d565b6103d1612e23565b610427612e29565b6103d1612e38565b600061080d61080068056bc75e2d631000006107e76107f362278d006107e7600e546107db611543565b9063ffffffff612e3e16565b9063ffffffff612e9e16565b869063ffffffff612e3e16565b839063ffffffff612ee016565b92915050565b6008545b90565b601b5460ff1681565b60006108426016546107e7600954600d54612f3a90919063ffffffff16565b905090565b6002546001600160a01b031690565b601b546301000000900460ff16156108a3576040805162461bcd60e51b815260206004820152601f60248201526000805160206137da833981519152604482015290519081900360640190fd5b6108ab610d12565b506001601b5460ff1660068111156108bf57fe5b146108fb5760405162461bcd60e51b815260040180806020018281038252602181526020018061366f6021913960400191505060405180910390fd5b336000908152601a602052604090206001015460ff161561095e576040805162461bcd60e51b81526020600482015260186024820152772632b73232b91030b63932b0b23c903bb4ba34323930bbb760411b604482015290519081900360640190fd5b336000908152601a60205260409020546109bf576040805162461bcd60e51b815260206004820152601a60248201527f4163636f756e7420646964206e6f74206465706f73697465642e000000000000604482015290519081900360640190fd5b336000908152601a602052604090206001818101805460ff19169091179055546010546109f19163ffffffff612ee016565b601055336000818152601a60209081526040918290205482513081529182015281517fd55b5fe81317b854ac11454adf7e5a9a0adf69184d643ef9ae6bfda6a015c5bc929181900390910190a2600f546010541415610a8857610a546005612f7c565b6040805130815290517f37ead1cfd72a30f28c665ab9c91072a05cef63f5cd4e48fbd172af5cb142c39c9181900360200190a15b600254336000818152601a60209081526040918290205482516317d5759960e31b81526001600160a01b039095166004860152602485019390935260448401929092525173__ERC20Wrapper__________________________9263beabacc8926064808301939192829003018186803b158015610b0457600080fd5b505af4158015610b18573d6000803e3d6000fd5b505050506040513d6020811015610b2e57600080fd5b5051610b78576040805162461bcd60e51b815260206004820152601460248201527332b93937b9103bb434b632903a3930b739b332b960611b604482015290519081900360640190fd5b565b600c5481565b601b546301000000900460ff1690565b60165481565b600080610bae60095442612f3a90919063ffffffff16565b9050610bb8610823565b811015610bc9576000915050610817565b6000610be3610bd6610823565b839063ffffffff612e9e16565b905060008111610bf857600092505050610817565b601654811115610c0e5760165492505050610817565b91505090565b6001546001600160a01b031681565b600f5490565b600b5481565b60006017546016541415610c4557506000610817565b6000610c98610c6a610c5b6016546107db611530565b6011549063ffffffff612f3a16565b610c8c610c84601754601654612f3a90919063ffffffff16565b6107db611530565b9063ffffffff612ee016565b601754909150610caf90600163ffffffff612ee016565b610cb7610b96565b11156108425761080d610cea610ce26001610cd6601754610cd6610b96565b9063ffffffff612f3a16565b6107db6126eb565b829063ffffffff612ee016565b6001600160a01b03166000908152601a602052604090205490565b601b546000906301000000900460ff1615610d62576040805162461bcd60e51b815260206004820152601f60248201526000805160206137da833981519152604482015290519081900360640190fd5b610d6a61205c565b8015610d8657506000601b5460ff166006811115610d8457fe5b145b15610ded57601b5462010000900460ff16610daa57610da56001612f7c565b610ded565b610db2612fea565b610ded5760405162461bcd60e51b815260040180806020018281038252602f8152602001806137ab602f913960400191505060405180910390fd5b610df561208b565b8015610e1157506002601b5460ff166006811115610e0f57fe5b145b15610e5457610e206003612f7c565b6040805130815290517ff4e5cf42cbb1d0c6c91e16d925349feb6c5d970652f6ec77b1ff1262f7284cd59181900360200190a15b50601b5460ff1690565b60095481565b6003546001600160a01b031681565b601a602052600090815260409020805460018201546002830154600390930154919260ff9091169184565b601b546301000000900460ff1615610eeb576040805162461bcd60e51b815260206004820152601f60248201526000805160206137da833981519152604482015290519081900360640190fd5b6004546001600160a01b03163314610f4a576040805162461bcd60e51b815260206004820152601e60248201527f43616c6c6572206973206e6f7420616e2061646d696e6973747261746f720000604482015290519081900360640190fd5b600180546001600160a01b038084166001600160a01b031990921682179092556004546040805192835292166020820152308183015290517f6b1ff65344d9a70352df4b5811fb0fbe2cd3d0b1117f86e8f2163702d0afcf989181900360600190a150565b601b546000906301000000900460ff1615610fff576040805162461bcd60e51b815260206004820152601f60248201526000805160206137da833981519152604482015290519081900360640190fd5b6004546001600160a01b0316331461105e576040805162461bcd60e51b815260206004820152601e60248201527f43616c6c6572206973206e6f7420616e2061646d696e6973747261746f720000604482015290519081900360640190fd5b601b5460ff6101009091041615156001146110c0576040805162461bcd60e51b815260206004820152601760248201527f626f72726f776572206469646e74207769746864726177000000000000000000604482015290519081900360640190fd5b60006015541161110e576040805162461bcd60e51b81526020600482015260146024820152736e6f2066756e647320746f20776974686472617760601b604482015290519081900360640190fd5b601580546000909155600254604080516317d5759960e31b81526001600160a01b039092166004830152336024830152604482018390525173__ERC20Wrapper__________________________9163beabacc8916064808301926020929190829003018186803b15801561118157600080fd5b505af4158015611195573d6000803e3d6000fd5b505050506040513d60208110156111ab57600080fd5b50516111f0576040805162461bcd60e51b815260206004820152600f60248201526e1d1c985b9cd9995c8819985a5b1959608a1b604482015290519081900360640190fd5b6040805182815233602082015281517f1af4af0a78bc8f5581320dee604e69c4cf2e30512ca9b3cee2c521224d16a767929181900390910190a1600191505090565b6001600160a01b03166000908152601a602052604090206002015490565b336000908152601a60205260408120600281015460175460039092015460185484938493810392909103908390611289906107db611530565b11156112d157600f546112c6836107db6112a1611530565b6001600160a01b038b166000908152601a60205260409020549063ffffffff612e3e16565b816112cd57fe5b0493505b60006112e16018546107db6126eb565b111561130457600f546112f9826107db6112a16126eb565b8161130057fe5b0492505b611314848463ffffffff612ee016565b9695505050505050565b601b546000906301000000900460ff161561136e576040805162461bcd60e51b815260206004820152601f60248201526000805160206137da833981519152604482015290519081900360640190fd5b6002546001600160a01b0316156113cc576040805162461bcd60e51b815260206004820152601a60248201527f6c6f616e2068617665206265656e20696e697469616c697a6564000000000000604482015290519081900360640190fd5b600280546001600160a01b03199081166001600160a01b038881169190911790925560018054821687841617905560038054821689841617905560048054821686841617905560008054909116918416919091179055601687905560128b905560138a905560058d905560088c9055600b88905542600a8190556114509089612ee0565b6009819055600e8f905561146a908f63ffffffff612ee016565b600d556000601081905560148a905561148290612f7c565b600354600554600854601254601354600a5460095460145460025460165460408051998a5260208a0198909852888801969096526060880194909452608087019290925260a086015260c08501526001600160a01b0390811660e0850152610100840191909152905192169130917f4805048ebe512b5ec0d24288a587aefa83a1eedbdaf0c40ea20a32eaab249ddc91908190036101200190a35060019d9c50505050505050505050505050565b60006108426016546107e7600f546107b1565b600080601b5460ff16600681111561155757fe5b14156115b1576115aa601254610c8c61157d600a54600954612f3a90919063ffffffff16565b6107e7611595600a5442612f3a90919063ffffffff16565b6012546013546107db9163ffffffff612f3a16565b9050610817565b6002601b5460ff1660068111156115c457fe5b14806115e057506004601b5460ff1660068111156115de57fe5b145b806115fb57506005601b5460ff1660068111156115f957fe5b145b1561163a576115aa601254610c8c611620600a54600954612f3a90919063ffffffff16565b6107e7611595600a54600c54612f3a90919063ffffffff16565b506000610817565b60175481565b60085481565b6001600160a01b03166000908152601a602052604090206001015460ff1690565b601b546000906301000000900460ff16156116bf576040805162461bcd60e51b815260206004820152601f60248201526000805160206137da833981519152604482015290519081900360640190fd5b6116c7610d12565b506002601b5460ff1660068111156116db57fe5b14611729576040805162461bcd60e51b81526020600482015260196024820152784c6f616e20737461747573206973206e6f742041435449564560381b604482015290519081900360640190fd5b6001546001600160a01b03163314611782576040805162461bcd60e51b815260206004820152601760248201527643616c6c6572206973206e6f74207468652070726f787960481b604482015290519081900360640190fd5b600082116117d0576040805162461bcd60e51b8152602060048201526016602482015275616d6f756e742063616e206e6f74206265207a65726f60501b604482015290519081900360640190fd5b60115460195410611817576040805162461bcd60e51b815260206004820152600c60248201526b1919589d081a5cc81c185a5960a21b604482015290519081900360640190fd5b60165460175410611862576040805162461bcd60e51b815260206004820152601060248201526f1a5b9cdd185b1b595b9d1cc81c185a5960821b604482015290519081900360640190fd5b6003546001600160a01b038481169116146118ae5760405162461bcd60e51b81526004018080602001828103825260228152602001806136c66022913960400191505060405180910390fd5b6017546118c290600163ffffffff612ee016565b6118ca610b96565b11156118f9576118f56118e66001610cd6601754610cd6610b96565b6018549063ffffffff612ee016565b6018555b611901612758565b82141561191857611910610b96565b601755611969565b611920610c2f565b82141561193257601654601755611969565b60405162461bcd60e51b81526004018080602001828103825260368152602001806136906036913960400191505060405180910390fd5b60195461197c908363ffffffff612ee016565b60195560165460175414156119cc576119956004612f7c565b60408051308152905142917fc200a1f31dd659e356e0f112c82558e25f49f7b0f84438691cd96f5cb3558823919081900360200190a25b50600192915050565b601b546301000000900460ff1615611a22576040805162461bcd60e51b815260206004820152601f60248201526000805160206137da833981519152604482015290519081900360640190fd5b6004546001600160a01b03163314611a81576040805162461bcd60e51b815260206004820152601e60248201527f43616c6c6572206973206e6f7420616e2061646d696e6973747261746f720000604482015290519081900360640190fd5b611a8b6006612f7c565b600f5460408051918252517f7fd0d8c82313edf42851fc7c6cf45397c014953cb4ab3bed0dc693a8a42a2e779181900360200190a1565b601b54610100900460ff1681565b60195481565b601b546301000000900460ff1615611b23576040805162461bcd60e51b815260206004820152601f60248201526000805160206137da833981519152604482015290519081900360640190fd5b611b2b610d12565b506002601b5460ff166006811115611b3f57fe5b1480611b5b57506004601b5460ff166006811115611b5957fe5b145b611b965760405162461bcd60e51b81526004018080602001828103825260238152602001806136e86023913960400191505060405180910390fd5b6000611ba061317f565b6040805130815260208101839052815192935033927fe02eda18506deb19526f15a5bb3dbfa553e2749c108e5b771ed3c7b36d327efd929181900390910190a2600254604080516317d5759960e31b81526001600160a01b039092166004830152336024830152604482018390525173__ERC20Wrapper__________________________9163beabacc8916064808301926020929190829003018186803b158015611c4a57600080fd5b505af4158015611c5e573d6000803e3d6000fd5b505050506040513d6020811015611c7457600080fd5b5051611cbe576040805162461bcd60e51b815260206004820152601460248201527332b93937b9103bb434b632903a3930b739b332b960611b604482015290519081900360640190fd5b50565b601b546301000000900460ff1615611d0e576040805162461bcd60e51b815260206004820152601f60248201526000805160206137da833981519152604482015290519081900360640190fd5b6006601b5460ff166006811115611d2157fe5b14611d73576040805162461bcd60e51b815260206004820152601960248201527f4c6f616e20737461747573206973206e6f742046524f5a454e00000000000000604482015290519081900360640190fd5b601b54610100900460ff1615611dc9576040805162461bcd60e51b81526020600482015260166024820152752637b0b71030b63932b0b23c903bb4ba34323930bbb760511b604482015290519081900360640190fd5b336000908152601a602052604090206001015460ff1615611e2c576040805162461bcd60e51b81526020600482015260186024820152772632b73232b91030b63932b0b23c903bb4ba34323930bbb760411b604482015290519081900360640190fd5b336000908152601a6020526040902054611e8d576040805162461bcd60e51b815260206004820152601760248201527f4163636f756e7420646964206e6f74206465706f736974000000000000000000604482015290519081900360640190fd5b336000908152601a602052604090206001818101805460ff1916909117905554601054611ebf9163ffffffff612ee016565b6010819055600f541415611f0b57611ed76005612f7c565b6040805130815290517fef27002b0ade27a402d1f7349545c3c0134cadb08f2fef44b3a8ebb9542f43b89181900360200190a15b600254336000818152601a60209081526040918290205482516317d5759960e31b81526001600160a01b039095166004860152602485019390935260448401929092525173__ERC20Wrapper__________________________9263beabacc8926064808301939192829003018186803b158015611f8757600080fd5b505af4158015611f9b573d6000803e3d6000fd5b505050506040513d6020811015611fb157600080fd5b5051611ffb576040805162461bcd60e51b815260206004820152601460248201527332b93937b9103bb434b632903a3930b739b332b960611b604482015290519081900360640190fd5b336000818152601a60209081526040918290205482513081529182015281517f9c6ae59d92db7ad6963ca77a6838ca83a271b36a4a22bcaf1a1389dd890b6de6929181900390910190a2565b6000546001600160a01b031681565b600e5481565b600954421190565b60145481565b60065481565b60055481565b6002546001600160a01b031681565b60105481565b6000600954421115806120b757506120b36120a4610823565b600d549063ffffffff612ee016565b4211155b156120c457506000610817565b50600190565b601b546301000000900460ff1615612117576040805162461bcd60e51b815260206004820152601f60248201526000805160206137da833981519152604482015290519081900360640190fd5b61211f610d12565b506002601b5460ff16600681111561213357fe5b148061214f57506004601b5460ff16600681111561214d57fe5b145b61218a5760405162461bcd60e51b81526004018080602001828103825260238152602001806136e86023913960400191505060405180910390fd5b6000546001600160a01b03166121db576040805162461bcd60e51b815260206004820152601160248201527007377617020666163746f7279206973203607c1b604482015290519081900360640190fd5b60008060009054906101000a90046001600160a01b03166001600160a01b031663775c300c6040518163ffffffff1660e01b8152600401602060405180830381600087803b15801561222c57600080fd5b505af1158015612240573d6000803e3d6000fd5b505050506040513d602081101561225657600080fd5b505190506001600160a01b0381166122a9576040805162461bcd60e51b81526020600482015260116024820152706572726f722073776170206465706c6f7960781b604482015290519081900360640190fd5b60006122b361317f565b6002546040805163e1f21c6760e01b81526001600160a01b0392831660048201529185166024830152604482018390525191925073__ERC20Wrapper__________________________9163e1f21c6791606480820192602092909190829003018186803b15801561232357600080fd5b505af4158015612337573d6000803e3d6000fd5b505050506040513d602081101561234d57600080fd5b50506002546040805163d5657b6560e01b81523360048201526001600160a01b0392831660248201526044810184905290519184169163d5657b659160648082019260009290919082900301818387803b1580156123aa57600080fd5b505af11580156123be573d6000803e3d6000fd5b50505050816001600160a01b031663a6151a846040518163ffffffff1660e01b815260040160206040518083038186803b1580156123fb57600080fd5b505afa15801561240f573d6000803e3d6000fd5b505050506040513d602081101561242557600080fd5b50516124625760405162461bcd60e51b81526004018080602001828103825260298152602001806137616029913960400191505060405180910390fd5b6040805130815260208101839052815133927fe02eda18506deb19526f15a5bb3dbfa553e2749c108e5b771ed3c7b36d327efd928290030190a25050565b600d5481565b60135481565b60185481565b600f5481565b601b546301000000900460ff1615612505576040805162461bcd60e51b815260206004820152601f60248201526000805160206137da833981519152604482015290519081900360640190fd5b61250d610d12565b506002601b5460ff16600681111561252157fe5b1461256f576040805162461bcd60e51b81526020600482015260196024820152784c6f616e20737461747573206973206e6f742041435449564560381b604482015290519081900360640190fd5b601b54610100900460ff16156125c0576040805162461bcd60e51b815260206004820152601160248201527020b63932b0b23c903bb4ba34323930bbb760791b604482015290519081900360640190fd5b601b805461ff001916610100179055600354601554600f546001600160a01b03909216917f26e3b176a4a3653dc7843b0f0aaee7fbeecd147ddad5ba9f8d7973c11ae740679130916126179163ffffffff612f3a16565b604080516001600160a01b03909316835260208301919091528051918290030190a2600254600354601554600f5473__ERC20Wrapper__________________________9363beabacc8936001600160a01b039182169391169161267f9163ffffffff612f3a16565b6040518463ffffffff1660e01b815260040180846001600160a01b03166001600160a01b03168152602001836001600160a01b03166001600160a01b03168152602001828152602001935050505060206040518083038186803b158015610b0457600080fd5b600a5481565b60006108426016546107e768056bc75e2d631000006107e761271d62278d006107e7600e546107db60026107db611543565b600f549063ffffffff612e3e16565b600061084261274961273c610823565b6107db6001610c8c610b96565b6009549063ffffffff612ee016565b6017546016546000918291829114806127795750601754612777610b96565b145b1561278957600092505050610817565b601654612794610b96565b14156127ae576127ab610c5b6016546107db611530565b91505b6017546127c290600163ffffffff612ee016565b6127ca610b96565b11156127e6576127e36001610cd6601754610cd6610b96565b90505b61280a82610c8c6127f9846107db6126eb565b610c8c610c84601754610cd6610b96565b9250505090565b601b546000906301000000900460ff1615612861576040805162461bcd60e51b815260206004820152601f60248201526000805160206137da833981519152604482015290519081900360640190fd5b6000601b5460ff16600681111561287457fe5b146128c6576040805162461bcd60e51b815260206004820152601a60248201527f4c6f616e20737461747573206973206e6f742043524541544544000000000000604482015290519081900360640190fd5b6001546001600160a01b0316331461291f576040805162461bcd60e51b815260206004820152601760248201527643616c6c6572206973206e6f74207468652070726f787960481b604482015290519081900360640190fd5b600a544211612975576040805162461bcd60e51b815260206004820152601e60248201527f63616e206e6f7420696e76657374207072696f72207468652073746172740000604482015290519081900360640190fd5b600082116129ca576040805162461bcd60e51b815260206004820152601d60248201527f616d6f756e74206d7573742062652067726561746572207468616e2030000000604482015290519081900360640190fd5b6129d261205c565b15612a0e5760405162461bcd60e51b815260040180806020018281038252602e81526020018061370b602e913960400191505060405180910390fd5b60025460408051630aed65f560e11b81526001600160a01b039092166004830152336024830152306044830152606482018490525173__ERC20Wrapper__________________________916315dacbea916084808301926020929190829003018186803b158015612a7e57600080fd5b505af4158015612a92573d6000803e3d6000fd5b505050506040513d6020811015612aa857600080fd5b5051612af0576040805162461bcd60e51b81526020600482015260126024820152713330b4b632b2103a37903a3930b739b332b960711b604482015290519081900360640190fd5b612af861205c565b15612ba157600554600f541015612b5e57612b136001612f7c565b604080513081526020810184905281516001600160a01b038616927fb4ff9ef1c49bea835cfa8220740c7295f98889086154d1f4eb3ce4be8dedc5ff928290030190a250600061080d565b612b66612fea565b612b135760405162461bcd60e51b815260040180806020018281038252602f8152602001806137ab602f913960400191505060405180910390fd5b6000612bab611543565b6001600160a01b0385166000908152601a6020526040902054909150612bd5576006805460010190555b6001600160a01b0384166000908152601a6020526040902054612bfe908463ffffffff612ee016565b6001600160a01b0385166000908152601a6020526040902055600f54612c2a908463ffffffff612ee016565b600f81905542600c5560055411801590612c4d5750601b5462010000900460ff16155b15612d0157601b805462ff0000191662010000179055600c5460408051308152602081018690528082018490526060810192909252516001600160a01b038616917fd67ae805400a673f32340691a1a850cf59e211ab6ae7d8ae2f20d6a345dd73d6919081900360800190a2600f54604080513081526020810192909252818101839052517f6baa8a391acc42bfd9ea28b82062544499d36144f62d5386e6e46714c043e3d49181900360600190a1612d58565b600c5460408051308152602081018690528082018490526060810192909252516001600160a01b038616917fd67ae805400a673f32340691a1a850cf59e211ab6ae7d8ae2f20d6a345dd73d6919081900360800190a25b600854600f541415612dfe57612d6c612fea565b612da75760405162461bcd60e51b815260040180806020018281038252602f8152602001806137ab602f913960400191505060405180910390fd5b601154600f54600c5460408051308152602081019490945283810192909252606083018490526080830152517ffc2b4b7edcf88ba0e9a6e5875a6440b922ee9d15d31a165bcc94713ccb59f6859181900360a00190a15b5060019392505050565b601b5462010000900460ff1681565b60115481565b60075481565b60125481565b6004546001600160a01b031681565b60155481565b600082612e4d5750600061080d565b82820282848281612e5a57fe5b0414612e975760405162461bcd60e51b815260040180806020018281038252602181526020018061378a6021913960400191505060405180910390fd5b9392505050565b6000612e9783836040518060400160405280601a81526020017f536166654d6174683a206469766973696f6e206279207a65726f000000000000815250613572565b600082820183811015612e97576040805162461bcd60e51b815260206004820152601b60248201527f536166654d6174683a206164646974696f6e206f766572666c6f770000000000604482015290519081900360640190fd5b6000612e9783836040518060400160405280601e81526020017f536166654d6174683a207375627472616374696f6e206f766572666c6f770000815250613614565b601b546301000000900460ff1615612fc9576040805162461bcd60e51b815260206004820152601f60248201526000805160206137da833981519152604482015290519081900360640190fd5b601b805482919060ff19166001836006811115612fe257fe5b021790555050565b601b546000906301000000900460ff161561303a576040805162461bcd60e51b815260206004820152601f60248201526000805160206137da833981519152604482015290519081900360640190fd5b6000601b5460ff16600681111561304d57fe5b1461309f576040805162461bcd60e51b815260206004820152601a60248201527f4c6f616e20737461747573206973206e6f742043524541544544000000000000604482015290519081900360640190fd5b6130a96002612f7c565b6130b4600f546107b1565b601155601454600f546130db9168056bc75e2d63100000916107e79163ffffffff612e3e16565b60155560095442101561310057600e546130fc90429063ffffffff612ee016565b600d555b426009819055507f178ded0e6c629ae6f33779d15bb550296cdc2886af94e238448d041cfcdf491c30601154600f5460155461313a611543565b600c54604080516001600160a01b0390971687526020870195909552858501939093526060850191909152608084015260a0830152519081900360c00190a150600190565b601b546000906301000000900460ff16156131cf576040805162461bcd60e51b815260206004820152601f60248201526000805160206137da833981519152604482015290519081900360640190fd5b6131d7610d12565b506002601b5460ff1660068111156131eb57fe5b148061320757506004601b5460ff16600681111561320557fe5b145b6132425760405162461bcd60e51b81526004018080602001828103825260238152602001806136e86023913960400191505060405180910390fd5b336000908152601a60205260409020546132a3576040805162461bcd60e51b815260206004820152601960248201527f4163636f756e7420646964206e6f74206465706f736974656400000000000000604482015290519081900360640190fd5b336000908152601a602052604090206001015460ff1615613306576040805162461bcd60e51b81526020600482015260186024820152772632b73232b91030b63932b0b23c903bb4ba34323930bbb760411b604482015290519081900360640190fd5b601754336000908152601a6020526040902060020154106133585760405162461bcd60e51b81526004018080602001828103825260288152602001806137396028913960400191505060405180910390fd5b600654600754106133a8576040805162461bcd60e51b815260206004820152601560248201527463616e206e6f74207769746864726177206d6f726560581b604482015290519081900360640190fd5b60006133b333611250565b601754336000908152601a6020526040902060028101919091556018546003909101556010549091506133ec908263ffffffff612ee016565b601055601654336000908152601a6020526040902060020154141561343f57336000908152601a602052604090206001908101805460ff19168217905560075461343b9163ffffffff612ee016565b6007555b6006546007541415610842576134556005612f7c565b601054601154111561353a5760025460045460105460115473__ERC20Wrapper__________________________9363beabacc8936001600160a01b03918216939116916134a79163ffffffff612f3a16565b6040518463ffffffff1660e01b815260040180846001600160a01b03166001600160a01b03168152602001836001600160a01b03166001600160a01b03168152602001828152602001935050505060206040518083038186803b15801561350d57600080fd5b505af4158015613521573d6000803e3d6000fd5b505050506040513d602081101561353757600080fd5b50505b6040805130815290517f37ead1cfd72a30f28c665ab9c91072a05cef63f5cd4e48fbd172af5cb142c39c9181900360200190a1905090565b600081836135fe5760405162461bcd60e51b81526004018080602001828103825283818151815260200191508051906020019080838360005b838110156135c35781810151838201526020016135ab565b50505050905090810190601f1680156135f05780820380516001836020036101000a031916815260200191505b509250505060405180910390fd5b50600083858161360a57fe5b0495945050505050565b600081848411156136665760405162461bcd60e51b81526020600482018181528351602484015283519092839260449091019190850190808383600083156135c35781810151838201526020016135ab565b50505090039056fe4c6f616e20737461747573206973206e6f74204641494c45445f544f5f46554e44616d6f756e7420746f206265206571207468616e20676574496e7374616c6d656e7444656274206f7220676574546f74616c4465627466726f6d2061646472657373206973206e6f7420746865206f726967696e61746f724c6f616e20737461747573206973206e6f7420414354495645206f722052455041494461756374696f6e20697320657870697265642c206c656e646572732063616e207769746864726177526566756e644c656e64657220616c72656164792077697468647261776e207468697320696e7374616c6d656e745377617020636f6e7472616374206572726f722c2073686f756c642073656c662d6465737472756374536166654d6174683a206d756c7469706c69636174696f6e206f766572666c6f776572726f72207768696c65207472616e736974696f6e696e6720746f207375636365737366756c2061756374696f6e796f752063616e742063616c6c2074656d706c61746520636f6e747261637400a265627a7a72315820c09d64a5ae1dab2da2d848b3844073f35b9d7c031c078914c131943c80d8c10364736f6c634300050c0032",
  "source": "pragma solidity 0.5.12;\n\nimport \"openzeppelin-solidity/contracts/math/SafeMath.sol\";\nimport \"./interfaces/IDAIProxy.sol\";\nimport \"./interfaces/ILoanInstalments.sol\";\nimport \"./interfaces/ISwapAndDeposit.sol\";\nimport \"./interfaces/ISwapAndDepositFactory.sol\";\nimport \"./libs/MonkCalcs.sol\";\nimport \"./libs/ERC20Wrapper.sol\";\nimport \"@nomiclabs/buidler/console.sol\";\n\ncontract LoanInstalments is ILoanInstalments {\n    using SafeMath for uint256;\n\n    address public swapFactory;\n    address public proxyAddress;\n    address public tokenAddress;\n    address public originator;\n    address public administrator;\n\n    uint256 public minAmount;\n    uint256 public investors;\n    uint256 public totalWithdraws;\n    uint256 public maxAmount;\n    uint256 public auctionEndTimestamp;\n    uint256 public auctionStartTimestamp;\n    uint256 public auctionLength;\n    uint256 public lastFundedTimestamp;\n    uint256 public termEndTimestamp;\n    uint256 public termLength;\n    uint256 public auctionBalance;\n    uint256 public loanWithdrawnAmount;\n    uint256 public borrowerDebt;\n    uint256 public minInterestRate;\n    uint256 public maxInterestRate;\n    uint256 public operatorFee;\n    uint256 public operatorBalance;\n    uint256 public instalments;\n    uint256 public instalmentsPaid;\n    uint256 public penaltiesPaid;\n    uint256 public loanAmountPaid;\n\n    uint256 constant MONTH_SECONDS = 2592000;\n    uint256 constant ONE_HUNDRED = 100 ether;\n\n    struct Position {\n        uint256 bidAmount;\n        bool loanWithdrawn;\n        uint256 instalmentsWithdrawed;\n        uint256 penaltiesWithdrawed;\n    }\n\n    mapping(address => Position) public lenderPosition;\n\n    enum LoanState {\n        CREATED, // accepts bids until timelimit initial state\n        FAILED_TO_FUND, // not fully funded in timelimit\n        ACTIVE, // fully funded, inside timelimit\n        DEFAULTED, // not repaid in time loanRepaymentLength\n        REPAID, // All loan instalments paid\n        CLOSED, // from failed_to_fund => last lender to withdraw triggers change / from repaid => fully witdrawn by lenders\n        FROZEN // when admin unlocks withdrawals\n    }\n\n    LoanState public currentState;\n\n    bool public loanWithdrawn;\n    bool public minimumReached;\n    bool private isTemplate;\n\n    event LoanCreated(\n        address indexed contractAddr,\n        address indexed originator,\n        uint256 minAmount,\n        uint256 maxAmount,\n        uint256 minInterestRate,\n        uint256 maxInterestRate,\n        uint256 auctionStartTimestamp,\n        uint256 auctionEndTimestamp,\n        uint256 operatorFee,\n        address tokenAddress,\n        uint256 instalments\n    );\n\n    event MinimumFundingReached(address loanAddress, uint256 currentBalance, uint256 interest);\n    event FullyFunded(\n        address loanAddress,\n        uint256 balanceToRepay,\n        uint256 auctionBalance,\n        uint256 interest,\n        uint256 fundedTimestamp\n    );\n    event Funded(\n        address loanAddress,\n        address indexed lender,\n        uint256 amount,\n        uint256 interest,\n        uint256 fundedTimestamp\n    );\n    event LoanRepaid(address loanAddress, uint256 indexed timestampRepaid);\n    event RepaymentWithdrawn(address loanAddress, address indexed to, uint256 amount);\n    event RefundWithdrawn(address loanAddress, address indexed lender, uint256 amount);\n    event FullyRefunded(address loanAddress);\n    event FailedToFund(address loanAddress, address indexed lender, uint256 amount);\n    event LoanFundsWithdrawn(address loanAddress, address indexed borrower, uint256 amount);\n    event LoanDefaulted(address loanAddress);\n    event AuctionSuccessful(\n        address loanAddress,\n        uint256 balanceToRepay,\n        uint256 auctionBalance,\n        uint256 operatorBalance,\n        uint256 interest,\n        uint256 fundedTimestamp\n    );\n    event FundsUnlockedWithdrawn(address loanAddress, address indexed lender, uint256 amount);\n    event FullyFundsUnlockedWithdrawn(address loanAddress);\n    event LoanFundsUnlocked(uint256 auctionBalance);\n    event OperatorWithdrawn(uint256 amount, address administrator);\n    event DaiProxyAddressUpdated(\n        address newDaiProxyAddress,\n        address administrator,\n        address loanDispatcher\n    );\n\n    modifier notTemplate() {\n        require(isTemplate == false, \"you cant call template contract\");\n        _;\n    }\n\n    modifier onlyFrozen() {\n        require(currentState == LoanState.FROZEN, \"Loan status is not FROZEN\");\n        _;\n    }\n\n    modifier onlyAdmin() {\n        require(msg.sender == administrator, \"Caller is not an administrator\");\n        _;\n    }\n\n    modifier onlyCreated() {\n        require(currentState == LoanState.CREATED, \"Loan status is not CREATED\");\n        _;\n    }\n\n    modifier onlyActive() {\n        updateStateMachine();\n        require(currentState == LoanState.ACTIVE, \"Loan status is not ACTIVE\");\n        _;\n    }\n\n    modifier onlyActiveOrRepaid() {\n        updateStateMachine();\n        require(\n            currentState == LoanState.ACTIVE || currentState == LoanState.REPAID,\n            \"Loan status is not ACTIVE or REPAID\"\n        );\n        _;\n    }\n\n    modifier onlyFailedToFund() {\n        updateStateMachine();\n        require(currentState == LoanState.FAILED_TO_FUND, \"Loan status is not FAILED_TO_FUND\");\n        _;\n    }\n\n    modifier onlyProxy() {\n        require(msg.sender == address(proxyAddress), \"Caller is not the proxy\");\n        _;\n    }\n\n    modifier onlyOriginator() {\n        require(msg.sender == originator, \"Caller is not the originator\");\n        _;\n    }\n\n    constructor() public {\n        isTemplate = true;\n    }\n\n    function init(\n        uint256 _termLength,\n        uint256 _minAmount,\n        uint256 _maxAmount,\n        uint256 _minInterestRate,\n        uint256 _maxInterestRate,\n        uint256 _operatorFee,\n        uint256 _auctionLength,\n        uint256 _instalments,\n        address _originator,\n        address _tokenAddress,\n        address _proxyAddress,\n        address _administrator,\n        address _swapFactory\n    ) external notTemplate returns (bool) {\n        require(tokenAddress == address(0), \"loan have been initialized\");\n        tokenAddress = _tokenAddress;\n        proxyAddress = _proxyAddress;\n        originator = _originator;\n        administrator = _administrator;\n        swapFactory = _swapFactory;\n        instalments = _instalments;\n\n        minInterestRate = _minInterestRate;\n        maxInterestRate = _maxInterestRate;\n        minAmount = _minAmount;\n        maxAmount = _maxAmount;\n\n        auctionLength = _auctionLength;\n        auctionStartTimestamp = block.timestamp;\n        auctionEndTimestamp = auctionStartTimestamp.add(auctionLength);\n\n        termLength = _termLength;\n\n        termEndTimestamp = auctionEndTimestamp.add(termLength);\n\n        loanWithdrawnAmount = 0;\n\n        operatorFee = _operatorFee;\n\n        setState(LoanState.CREATED);\n\n        emit LoanCreated(\n            address(this),\n            originator,\n            minAmount,\n            maxAmount,\n            minInterestRate,\n            maxInterestRate,\n            auctionStartTimestamp,\n            auctionEndTimestamp,\n            operatorFee,\n            tokenAddress,\n            instalments\n        );\n\n        return true;\n    }\n\n    function isTemplateContract() external view returns (bool) {\n        return isTemplate;\n    }\n\n    function getMaxAmount() external view returns (uint256) {\n        return maxAmount;\n    }\n\n    function getAuctionBalance() external view returns (uint256) {\n        return auctionBalance;\n    }\n\n    function getLenderBidAmount(address lender) external view returns (uint256) {\n        return lenderPosition[lender].bidAmount;\n    }\n\n    function getLenderWithdrawn(address lender) external view returns (bool) {\n        return lenderPosition[lender].loanWithdrawn;\n    }\n\n    function getLenderInstalmentsWithdrawed(address lender) external view returns (uint256) {\n        return lenderPosition[lender].instalmentsWithdrawed;\n    }\n\n    function getTokenAddress() external view returns (address) {\n        return tokenAddress;\n    }\n\n    function onFundingReceived(address lender, uint256 amount)\n        external\n        notTemplate\n        onlyCreated\n        onlyProxy\n        returns (bool)\n    {\n        require(block.timestamp > auctionStartTimestamp, \"can not invest prior the start\");\n        require(amount > 0, \"amount must be greater than 0\");\n        require(!isAuctionExpired(), \"auction is expired, lenders can withdrawRefund\");\n\n        require(\n            ERC20Wrapper.transferFrom(tokenAddress, msg.sender, address(this), amount),\n            \"failed to transfer\"\n        );\n\n        if (isAuctionExpired()) {\n            if (auctionBalance < minAmount) {\n                setState(LoanState.FAILED_TO_FUND);\n                emit FailedToFund(address(this), lender, amount);\n                return false;\n            } else {\n                require(setSuccessfulAuction(), \"error while transitioning to successful auction\");\n                emit FailedToFund(address(this), lender, amount);\n                return false;\n            }\n        }\n        uint256 interest = getInterestRate();\n        if (lenderPosition[lender].bidAmount == 0) {\n            investors += 1;\n        }\n        lenderPosition[lender].bidAmount = lenderPosition[lender].bidAmount.add(amount);\n        auctionBalance = auctionBalance.add(amount);\n\n        lastFundedTimestamp = block.timestamp;\n\n        if (auctionBalance >= minAmount && !minimumReached) {\n            minimumReached = true;\n            emit Funded(address(this), lender, amount, interest, lastFundedTimestamp);\n            emit MinimumFundingReached(address(this), auctionBalance, interest);\n        } else {\n            emit Funded(address(this), lender, amount, interest, lastFundedTimestamp);\n        }\n\n        if (auctionBalance == maxAmount) {\n            require(setSuccessfulAuction(), \"error while transitioning to successful auction\");\n            emit FullyFunded(\n                address(this),\n                borrowerDebt,\n                auctionBalance,\n                interest,\n                lastFundedTimestamp\n            );\n        }\n        return true;\n    }\n\n    function unlockFundsWithdrawal() external notTemplate onlyAdmin {\n        setState(LoanState.FROZEN);\n        emit LoanFundsUnlocked(auctionBalance);\n    }\n\n    function withdrawFees() external notTemplate onlyAdmin returns (bool) {\n        require(loanWithdrawn == true, \"borrower didnt withdraw\");\n        require(operatorBalance > 0, \"no funds to withdraw\");\n        uint256 allFees = operatorBalance;\n        operatorBalance = 0;\n        require(ERC20Wrapper.transfer(tokenAddress, msg.sender, allFees), \"transfer failed\");\n        emit OperatorWithdrawn(allFees, msg.sender);\n        return true;\n    }\n\n    function withdrawFundsUnlocked() external notTemplate onlyFrozen {\n        require(!loanWithdrawn, \"Loan already withdrawn\");\n        require(!lenderPosition[msg.sender].loanWithdrawn, \"Lender already withdrawn\");\n        require(lenderPosition[msg.sender].bidAmount > 0, \"Account did not deposit\");\n\n        lenderPosition[msg.sender].loanWithdrawn = true;\n\n        loanWithdrawnAmount = loanWithdrawnAmount.add(lenderPosition[msg.sender].bidAmount);\n\n        if (loanWithdrawnAmount == auctionBalance) {\n            setState(LoanState.CLOSED);\n            emit FullyFundsUnlockedWithdrawn(address(this));\n        }\n\n        require(\n            ERC20Wrapper.transfer(tokenAddress, msg.sender, lenderPosition[msg.sender].bidAmount),\n            \"error while transfer\"\n        );\n\n        emit FundsUnlockedWithdrawn(\n            address(this),\n            msg.sender,\n            lenderPosition[msg.sender].bidAmount\n        );\n    }\n\n    function withdrawRefund() external notTemplate onlyFailedToFund {\n        require(!lenderPosition[msg.sender].loanWithdrawn, \"Lender already withdrawn\");\n        require(lenderPosition[msg.sender].bidAmount > 0, \"Account did not deposited.\");\n\n        lenderPosition[msg.sender].loanWithdrawn = true;\n\n        loanWithdrawnAmount = loanWithdrawnAmount.add(lenderPosition[msg.sender].bidAmount);\n\n        emit RefundWithdrawn(address(this), msg.sender, lenderPosition[msg.sender].bidAmount);\n\n        if (loanWithdrawnAmount == auctionBalance) {\n            setState(LoanState.CLOSED);\n            emit FullyRefunded(address(this));\n        }\n\n        require(\n            ERC20Wrapper.transfer(tokenAddress, msg.sender, lenderPosition[msg.sender].bidAmount),\n            \"error while transfer\"\n        );\n    }\n\n    function getWithdrawAmount(address lender) public view returns (uint256) {\n        uint256 _instalmentAmount;\n        uint256 _penaltyAmount;\n        uint256 pendingInstalments = instalmentsPaid -\n            lenderPosition[msg.sender].instalmentsWithdrawed;\n        uint256 pendingPenalties = penaltiesPaid - lenderPosition[msg.sender].penaltiesWithdrawed;\n        if (getInstalmentAmount().mul(instalmentsPaid) > 0) {\n            _instalmentAmount =\n                lenderPosition[lender].bidAmount.mul(getInstalmentAmount()).mul(\n                    pendingInstalments\n                ) /\n                auctionBalance;\n        }\n        if (getInstalmentPenalty().mul(penaltiesPaid) > 0) {\n            _penaltyAmount =\n                lenderPosition[lender].bidAmount.mul(getInstalmentPenalty()).mul(pendingPenalties) /\n                auctionBalance;\n        }\n        return _instalmentAmount.add(_penaltyAmount);\n    }\n\n    function withdrawRepayment() external notTemplate onlyActiveOrRepaid {\n        uint256 amount = priorLenderWithdrawal();\n        emit RepaymentWithdrawn(address(this), msg.sender, amount);\n        require(ERC20Wrapper.transfer(tokenAddress, msg.sender, amount), \"error while transfer\");\n    }\n\n    function withdrawRepaymentAndDeposit() external notTemplate onlyActiveOrRepaid {\n        require(swapFactory != address(0), \"swap factory is 0\");\n        address swapAddress = ISwapAndDepositFactory(swapFactory).deploy();\n        require(swapAddress != address(0), \"error swap deploy\");\n\n        uint256 amount = priorLenderWithdrawal();\n        ERC20Wrapper.approve(tokenAddress, swapAddress, amount);\n        ISwapAndDeposit(swapAddress).swapAndDeposit(msg.sender, tokenAddress, amount);\n        require(\n            ISwapAndDeposit(swapAddress).isDestroyed(),\n            \"Swap contract error, should self-destruct\"\n        );\n        emit RepaymentWithdrawn(address(this), msg.sender, amount);\n    }\n\n    function priorLenderWithdrawal() internal notTemplate onlyActiveOrRepaid returns (uint256) {\n        require(lenderPosition[msg.sender].bidAmount != 0, \"Account did not deposited\");\n        require(!lenderPosition[msg.sender].loanWithdrawn, \"Lender already withdrawn\");\n        require(\n            lenderPosition[msg.sender].instalmentsWithdrawed < instalmentsPaid,\n            \"Lender already withdrawn this instalment\"\n        );\n        require(totalWithdraws < investors, \"can not withdraw more\");\n        // calculate value with pending instalments from the user\n        uint256 amount = getWithdrawAmount(msg.sender);\n        lenderPosition[msg.sender].instalmentsWithdrawed = instalmentsPaid;\n        lenderPosition[msg.sender].penaltiesWithdrawed = penaltiesPaid;\n\n        loanWithdrawnAmount = loanWithdrawnAmount.add(amount);\n\n        // If lender withdraw all payments, then cant claim frozen funds\n        if (lenderPosition[msg.sender].instalmentsWithdrawed == instalments) {\n            lenderPosition[msg.sender].loanWithdrawn = true;\n            totalWithdraws = totalWithdraws.add(1);\n        }\n        if (totalWithdraws == investors) {\n            setState(LoanState.CLOSED);\n            if (borrowerDebt > loanWithdrawnAmount) {\n                ERC20Wrapper.transfer(\n                    tokenAddress,\n                    administrator,\n                    borrowerDebt.sub(loanWithdrawnAmount)\n                );\n            }\n            emit FullyRefunded(address(this));\n        }\n        return amount;\n    }\n\n    function withdrawLoan() external notTemplate onlyActive {\n        require(!loanWithdrawn, \"Already withdrawn\");\n        loanWithdrawn = true;\n        emit LoanFundsWithdrawn(address(this), originator, auctionBalance.sub(operatorBalance));\n        require(\n            ERC20Wrapper.transfer(tokenAddress, originator, auctionBalance.sub(operatorBalance)),\n            \"error while transfer\"\n        );\n    }\n\n    function getInstalmentDebt() public view returns (uint256) {\n        uint256 remainder = 0;\n        uint256 penaltyInstalments = 0;\n        // Return 0 debt if all instalments are paid, or if current instalment is paid\n        if (instalments == instalmentsPaid || getCurrentInstalment() == instalmentsPaid) {\n            return 0;\n        }\n        // Handle integer division remainder in the latest payment\n        if (getCurrentInstalment() == instalments) {\n            remainder = borrowerDebt.sub(getInstalmentAmount().mul(instalments));\n        }\n        if (getCurrentInstalment() > instalmentsPaid.add(1)) {\n            penaltyInstalments = getCurrentInstalment().sub(instalmentsPaid).sub(1);\n        }\n        return\n            getInstalmentAmount()\n                .mul(getCurrentInstalment().sub(instalmentsPaid))\n                .add(getInstalmentPenalty().mul(penaltyInstalments))\n                .add(remainder);\n    }\n\n    function getTotalDebt() public view returns (uint256) {\n        if (instalments == instalmentsPaid) {\n            return 0;\n        }\n\n        uint256 totalDebt = getInstalmentAmount().mul(instalments.sub(instalmentsPaid)).add(\n            borrowerDebt.sub(getInstalmentAmount().mul(instalments))\n        );\n        if (getCurrentInstalment() > instalmentsPaid.add(1)) {\n            totalDebt = totalDebt.add(\n                getInstalmentPenalty().mul(getCurrentInstalment().sub(instalmentsPaid).sub(1))\n            );\n        }\n        return totalDebt;\n    }\n\n    function onRepaymentReceived(address from, uint256 amount)\n        external\n        notTemplate\n        onlyActive\n        onlyProxy\n        returns (bool)\n    {\n        require(amount > 0, \"amount can not be zero\");\n        require(loanAmountPaid < borrowerDebt, \"debt is paid\");\n        require(instalmentsPaid < instalments, \"instalments paid\");\n        require(from == originator, \"from address is not the originator\");\n\n        if (getCurrentInstalment() > instalmentsPaid.add(1)) {\n            // TODO: have a look penalty withdraw\n            // borrowerDebt = borrowerDebt.add(\n            //     getInstalmentPenalty().mul(getCurrentInstalment().sub(instalmentsPaid).sub(1))\n            // );\n            penaltiesPaid = penaltiesPaid.add(getCurrentInstalment().sub(instalmentsPaid).sub(1));\n        }\n\n        if (amount == getInstalmentDebt()) {\n            instalmentsPaid = getCurrentInstalment();\n        } else if (amount == getTotalDebt()) {\n            instalmentsPaid = instalments;\n        } else {\n            revert(\"amount to be eq than getInstalmentDebt or getTotalDebt\");\n        }\n\n        loanAmountPaid = loanAmountPaid.add(amount);\n\n        if (instalmentsPaid == instalments) {\n            setState(LoanState.REPAID);\n            emit LoanRepaid(address(this), block.timestamp);\n        }\n\n        return true;\n    }\n\n    function isAuctionExpired() public view returns (bool) {\n        return block.timestamp > auctionEndTimestamp;\n    }\n\n    function isDefaulted() public view returns (bool) {\n        if (\n            block.timestamp <= auctionEndTimestamp ||\n            block.timestamp <= termEndTimestamp.add(getInstalmentLenght())\n        ) {\n            return false;\n        }\n\n        return true;\n    }\n\n    function updateStateMachine() public notTemplate returns (LoanState) {\n        if (isAuctionExpired() && currentState == LoanState.CREATED) {\n            if (!minimumReached) {\n                setState(LoanState.FAILED_TO_FUND);\n            } else {\n                require(setSuccessfulAuction(), \"error while transitioning to successful auction\");\n            }\n        }\n        if (isDefaulted() && currentState == LoanState.ACTIVE) {\n            setState(LoanState.DEFAULTED);\n            emit LoanDefaulted(address(this));\n        }\n\n        return currentState;\n    }\n\n    function calculateValueWithInterest(uint256 value) public view returns (uint256) {\n        return\n            value.add(\n                value.mul(getInterestRate().mul(termLength).div(MONTH_SECONDS)).div(ONE_HUNDRED)\n            );\n    }\n\n    function getInterestRate() public view returns (uint256) {\n        if (currentState == LoanState.CREATED) {\n            return\n                (maxInterestRate.sub(minInterestRate))\n                    .mul(block.timestamp.sub(auctionStartTimestamp))\n                    .div(auctionEndTimestamp.sub(auctionStartTimestamp))\n                    .add(minInterestRate);\n        } else if (\n            currentState == LoanState.ACTIVE ||\n            currentState == LoanState.REPAID ||\n            currentState == LoanState.CLOSED\n        ) {\n            return\n                (maxInterestRate.sub(minInterestRate))\n                    .mul(lastFundedTimestamp.sub(auctionStartTimestamp))\n                    .div(auctionEndTimestamp.sub(auctionStartTimestamp))\n                    .add(minInterestRate);\n        } else {\n            return 0;\n        }\n    }\n\n    function setState(LoanState state) internal notTemplate {\n        currentState = state;\n    }\n\n    function setSuccessfulAuction() internal notTemplate onlyCreated returns (bool) {\n        setState(LoanState.ACTIVE);\n        borrowerDebt = calculateValueWithInterest(auctionBalance);\n        operatorBalance = auctionBalance.mul(operatorFee).div(ONE_HUNDRED);\n\n        if (block.timestamp < auctionEndTimestamp) {\n            termEndTimestamp = block.timestamp.add(termLength);\n        }\n\n        auctionEndTimestamp = block.timestamp;\n\n        emit AuctionSuccessful(\n            address(this),\n            borrowerDebt,\n            auctionBalance,\n            operatorBalance,\n            getInterestRate(),\n            lastFundedTimestamp\n        );\n        return true;\n    }\n\n    function setProxyAddress(address _proxyAddress) external notTemplate onlyAdmin {\n        proxyAddress = _proxyAddress;\n        emit DaiProxyAddressUpdated(_proxyAddress, administrator, address(this));\n    }\n\n    /*\n     * Formula to calculate in which instalment is the loan in this point in time:\n     * First we need to calculate the length of every instalment.\n     * then we calculate the amount of thime passed between the start of the term and the\n     * current point in time we devide it by the length of the instalment, and we add 1\n     * because the instalment end time is also included in the instalment\n     */\n\n    function getInstalmentLenght() public view returns (uint256) {\n        return (termEndTimestamp.sub(auctionEndTimestamp)).div(instalments);\n    }\n\n    function getNextInstalmentDate() public view returns (uint256) {\n        return auctionEndTimestamp.add((getCurrentInstalment().add(1)).mul(getInstalmentLenght()));\n    }\n\n    function getCurrentInstalment() public view returns (uint256) {\n        uint256 timeSinceLoan = block.timestamp.sub(auctionEndTimestamp);\n        if (timeSinceLoan < getInstalmentLenght()) {\n            return 0;\n        }\n        uint256 currentInstalmentNumber = timeSinceLoan.div(getInstalmentLenght());\n        if (currentInstalmentNumber <= 0) {\n            return 0;\n        }\n        if (currentInstalmentNumber > instalments) {\n            return instalments;\n        }\n        return currentInstalmentNumber;\n    }\n\n    function getInstalmentAmount() public view returns (uint256) {\n        return calculateValueWithInterest(auctionBalance).div(instalments);\n    }\n\n    function getInstalmentPenalty() public view returns (uint256) {\n        return\n            auctionBalance\n                .mul(getInterestRate().mul(2).mul(termLength).div(MONTH_SECONDS))\n                .div(ONE_HUNDRED)\n                .div(instalments);\n    }\n}\n",
  "sourcePath": "/home/kartojal/repos/contracts-solidity/contracts/LoanWithInstalments.sol",
  "compiler": {
    "name": "solc",
    "version": "0.5.12+commit.7709ece9.Emscripten.clang"
  },
  "schemaVersion": "3.0.22",
  "updatedAt": "2020-07-01T13:55:12.649Z",
  "devdoc": {
    "methods": {}
  },
  "userdoc": {
    "methods": {}
  }
}