{
  "contractName": "LoanInstalmentsDispatcher",
  "abi": [
    {
      "inputs": [
        {
          "internalType": "address",
          "name": "authAddress",
          "type": "address"
        },
        {
          "internalType": "address",
          "name": "_DAIProxyAddress",
          "type": "address"
        },
        {
          "internalType": "address",
          "name": "_swapFactory",
          "type": "address"
        },
        {
          "internalType": "address",
          "name": "_loanTemplate",
          "type": "address"
        }
      ],
      "payable": false,
      "stateMutability": "nonpayable",
      "type": "constructor"
    },
    {
      "anonymous": false,
      "inputs": [
        {
          "indexed": false,
          "internalType": "address",
          "name": "tokenAddress",
          "type": "address"
        },
        {
          "indexed": false,
          "internalType": "address",
          "name": "loanDispatcher",
          "type": "address"
        }
      ],
      "name": "AddTokenToAcceptedList",
      "type": "event"
    },
    {
      "anonymous": false,
      "inputs": [
        {
          "indexed": false,
          "internalType": "address",
          "name": "newAdminAddress",
          "type": "address"
        },
        {
          "indexed": false,
          "internalType": "address",
          "name": "loanDispatcher",
          "type": "address"
        }
      ],
      "name": "AdministratorUpdated",
      "type": "event"
    },
    {
      "anonymous": false,
      "inputs": [
        {
          "indexed": false,
          "internalType": "address",
          "name": "newAuthAddress",
          "type": "address"
        },
        {
          "indexed": false,
          "internalType": "address",
          "name": "administrator",
          "type": "address"
        },
        {
          "indexed": false,
          "internalType": "address",
          "name": "loanDispatcher",
          "type": "address"
        }
      ],
      "name": "AuthAddressUpdated",
      "type": "event"
    },
    {
      "anonymous": false,
      "inputs": [
        {
          "indexed": false,
          "internalType": "address",
          "name": "newDaiProxyAddress",
          "type": "address"
        },
        {
          "indexed": false,
          "internalType": "address",
          "name": "administrator",
          "type": "address"
        },
        {
          "indexed": false,
          "internalType": "address",
          "name": "loanDispatcher",
          "type": "address"
        }
      ],
      "name": "DaiProxyAddressUpdated",
      "type": "event"
    },
    {
      "anonymous": false,
      "inputs": [
        {
          "indexed": false,
          "internalType": "address",
          "name": "contractAddress",
          "type": "address"
        },
        {
          "indexed": true,
          "internalType": "address",
          "name": "originator",
          "type": "address"
        }
      ],
      "name": "LoanContractCreated",
      "type": "event"
    },
    {
      "anonymous": false,
      "inputs": [
        {
          "indexed": false,
          "internalType": "address",
          "name": "loanDispatcher",
          "type": "address"
        },
        {
          "indexed": false,
          "internalType": "address",
          "name": "contractAddress",
          "type": "address"
        },
        {
          "indexed": true,
          "internalType": "address",
          "name": "originator",
          "type": "address"
        },
        {
          "indexed": false,
          "internalType": "uint256",
          "name": "minAmount",
          "type": "uint256"
        },
        {
          "indexed": false,
          "internalType": "uint256",
          "name": "maxAmount",
          "type": "uint256"
        },
        {
          "indexed": false,
          "internalType": "uint256",
          "name": "minInterestRate",
          "type": "uint256"
        },
        {
          "indexed": false,
          "internalType": "uint256",
          "name": "maxInterestRate",
          "type": "uint256"
        },
        {
          "indexed": false,
          "internalType": "uint256",
          "name": "termEndTimestamp",
          "type": "uint256"
        },
        {
          "indexed": true,
          "internalType": "address",
          "name": "administrator",
          "type": "address"
        },
        {
          "indexed": false,
          "internalType": "uint256",
          "name": "operatorFee",
          "type": "uint256"
        },
        {
          "indexed": false,
          "internalType": "uint256",
          "name": "auctionLength",
          "type": "uint256"
        },
        {
          "indexed": true,
          "internalType": "address",
          "name": "tokenAddress",
          "type": "address"
        },
        {
          "indexed": false,
          "internalType": "uint256",
          "name": "instalments",
          "type": "uint256"
        }
      ],
      "name": "LoanContractCreated",
      "type": "event"
    },
    {
      "anonymous": false,
      "inputs": [
        {
          "indexed": false,
          "internalType": "address",
          "name": "loanDispatcher",
          "type": "address"
        },
        {
          "indexed": false,
          "internalType": "address",
          "name": "auth",
          "type": "address"
        },
        {
          "indexed": false,
          "internalType": "address",
          "name": "DAIProxyAddress",
          "type": "address"
        },
        {
          "indexed": false,
          "internalType": "address",
          "name": "swapFactory",
          "type": "address"
        },
        {
          "indexed": false,
          "internalType": "uint256",
          "name": "minAmount",
          "type": "uint256"
        },
        {
          "indexed": false,
          "internalType": "uint256",
          "name": "maxAmount",
          "type": "uint256"
        },
        {
          "indexed": false,
          "internalType": "uint256",
          "name": "maxInterestRate",
          "type": "uint256"
        },
        {
          "indexed": false,
          "internalType": "uint256",
          "name": "minInterestRate",
          "type": "uint256"
        },
        {
          "indexed": false,
          "internalType": "uint256",
          "name": "operatorFee",
          "type": "uint256"
        },
        {
          "indexed": false,
          "internalType": "uint256",
          "name": "minAuctionLength",
          "type": "uint256"
        },
        {
          "indexed": false,
          "internalType": "uint256",
          "name": "minTermLength",
          "type": "uint256"
        }
      ],
      "name": "LoanDispatcherCreated",
      "type": "event"
    },
    {
      "anonymous": false,
      "inputs": [
        {
          "indexed": false,
          "internalType": "address",
          "name": "newTemplateAddress",
          "type": "address"
        }
      ],
      "name": "LoanTemplateUpdated",
      "type": "event"
    },
    {
      "anonymous": false,
      "inputs": [
        {
          "indexed": false,
          "internalType": "uint256",
          "name": "maxAmount",
          "type": "uint256"
        },
        {
          "indexed": false,
          "internalType": "address",
          "name": "loanDispatcher",
          "type": "address"
        }
      ],
      "name": "MaxAmountUpdated",
      "type": "event"
    },
    {
      "anonymous": false,
      "inputs": [
        {
          "indexed": false,
          "internalType": "uint256",
          "name": "maxInterestRate",
          "type": "uint256"
        },
        {
          "indexed": false,
          "internalType": "address",
          "name": "loanDispatcher",
          "type": "address"
        }
      ],
      "name": "MaxInterestRateUpdated",
      "type": "event"
    },
    {
      "anonymous": false,
      "inputs": [
        {
          "indexed": false,
          "internalType": "uint256",
          "name": "minAmount",
          "type": "uint256"
        },
        {
          "indexed": false,
          "internalType": "address",
          "name": "loanDispatcher",
          "type": "address"
        }
      ],
      "name": "MinAmountUpdated",
      "type": "event"
    },
    {
      "anonymous": false,
      "inputs": [
        {
          "indexed": false,
          "internalType": "uint256",
          "name": "minAuctionLength",
          "type": "uint256"
        },
        {
          "indexed": false,
          "internalType": "address",
          "name": "loanDispatcher",
          "type": "address"
        }
      ],
      "name": "MinAuctionLengthUpdated",
      "type": "event"
    },
    {
      "anonymous": false,
      "inputs": [
        {
          "indexed": false,
          "internalType": "uint256",
          "name": "minInterestRate",
          "type": "uint256"
        },
        {
          "indexed": false,
          "internalType": "address",
          "name": "loanDispatcher",
          "type": "address"
        }
      ],
      "name": "MinInterestRateUpdated",
      "type": "event"
    },
    {
      "anonymous": false,
      "inputs": [
        {
          "indexed": false,
          "internalType": "uint256",
          "name": "minTermLength",
          "type": "uint256"
        },
        {
          "indexed": false,
          "internalType": "address",
          "name": "loanDispatcher",
          "type": "address"
        }
      ],
      "name": "MinTermLengthUpdated",
      "type": "event"
    },
    {
      "anonymous": false,
      "inputs": [
        {
          "indexed": false,
          "internalType": "uint256",
          "name": "operatorFee",
          "type": "uint256"
        },
        {
          "indexed": false,
          "internalType": "address",
          "name": "loanDispatcher",
          "type": "address"
        },
        {
          "indexed": false,
          "internalType": "address",
          "name": "administrator",
          "type": "address"
        }
      ],
      "name": "OperatorFeeUpdated",
      "type": "event"
    },
    {
      "anonymous": false,
      "inputs": [
        {
          "indexed": true,
          "internalType": "address",
          "name": "previousOwner",
          "type": "address"
        },
        {
          "indexed": true,
          "internalType": "address",
          "name": "newOwner",
          "type": "address"
        }
      ],
      "name": "OwnershipTransferred",
      "type": "event"
    },
    {
      "anonymous": false,
      "inputs": [
        {
          "indexed": false,
          "internalType": "address",
          "name": "tokenAddress",
          "type": "address"
        },
        {
          "indexed": false,
          "internalType": "address",
          "name": "loanDispatcher",
          "type": "address"
        }
      ],
      "name": "RemoveTokenFromAcceptedList",
      "type": "event"
    },
    {
      "anonymous": false,
      "inputs": [
        {
          "indexed": false,
          "internalType": "address",
          "name": "newSwapFactory",
          "type": "address"
        },
        {
          "indexed": false,
          "internalType": "address",
          "name": "administrator",
          "type": "address"
        },
        {
          "indexed": false,
          "internalType": "address",
          "name": "loanDispatcher",
          "type": "address"
        }
      ],
      "name": "SwapFactoryAddressUpdated",
      "type": "event"
    },
    {
      "constant": true,
      "inputs": [],
      "name": "DAIProxyAddress",
      "outputs": [
        {
          "internalType": "address",
          "name": "",
          "type": "address"
        }
      ],
      "payable": false,
      "stateMutability": "view",
      "type": "function"
    },
    {
      "constant": true,
      "inputs": [
        {
          "internalType": "address",
          "name": "",
          "type": "address"
        }
      ],
      "name": "acceptedTokens",
      "outputs": [
        {
          "internalType": "bool",
          "name": "",
          "type": "bool"
        }
      ],
      "payable": false,
      "stateMutability": "view",
      "type": "function"
    },
    {
      "constant": true,
      "inputs": [],
      "name": "administrator",
      "outputs": [
        {
          "internalType": "address",
          "name": "",
          "type": "address"
        }
      ],
      "payable": false,
      "stateMutability": "view",
      "type": "function"
    },
    {
      "constant": true,
      "inputs": [],
      "name": "auth",
      "outputs": [
        {
          "internalType": "address",
          "name": "",
          "type": "address"
        }
      ],
      "payable": false,
      "stateMutability": "view",
      "type": "function"
    },
    {
      "constant": true,
      "inputs": [
        {
          "internalType": "address",
          "name": "",
          "type": "address"
        }
      ],
      "name": "isLoanContract",
      "outputs": [
        {
          "internalType": "bool",
          "name": "",
          "type": "bool"
        }
      ],
      "payable": false,
      "stateMutability": "view",
      "type": "function"
    },
    {
      "constant": true,
      "inputs": [],
      "name": "isOwner",
      "outputs": [
        {
          "internalType": "bool",
          "name": "",
          "type": "bool"
        }
      ],
      "payable": false,
      "stateMutability": "view",
      "type": "function"
    },
    {
      "constant": true,
      "inputs": [],
      "name": "loanTemplate",
      "outputs": [
        {
          "internalType": "address",
          "name": "",
          "type": "address"
        }
      ],
      "payable": false,
      "stateMutability": "view",
      "type": "function"
    },
    {
      "constant": true,
      "inputs": [],
      "name": "maxAmount",
      "outputs": [
        {
          "internalType": "uint256",
          "name": "",
          "type": "uint256"
        }
      ],
      "payable": false,
      "stateMutability": "view",
      "type": "function"
    },
    {
      "constant": true,
      "inputs": [],
      "name": "maxInterestRate",
      "outputs": [
        {
          "internalType": "uint256",
          "name": "",
          "type": "uint256"
        }
      ],
      "payable": false,
      "stateMutability": "view",
      "type": "function"
    },
    {
      "constant": true,
      "inputs": [],
      "name": "minAmount",
      "outputs": [
        {
          "internalType": "uint256",
          "name": "",
          "type": "uint256"
        }
      ],
      "payable": false,
      "stateMutability": "view",
      "type": "function"
    },
    {
      "constant": true,
      "inputs": [],
      "name": "minAuctionLength",
      "outputs": [
        {
          "internalType": "uint256",
          "name": "",
          "type": "uint256"
        }
      ],
      "payable": false,
      "stateMutability": "view",
      "type": "function"
    },
    {
      "constant": true,
      "inputs": [],
      "name": "minInterestRate",
      "outputs": [
        {
          "internalType": "uint256",
          "name": "",
          "type": "uint256"
        }
      ],
      "payable": false,
      "stateMutability": "view",
      "type": "function"
    },
    {
      "constant": true,
      "inputs": [],
      "name": "minTermLength",
      "outputs": [
        {
          "internalType": "uint256",
          "name": "",
          "type": "uint256"
        }
      ],
      "payable": false,
      "stateMutability": "view",
      "type": "function"
    },
    {
      "constant": true,
      "inputs": [],
      "name": "operatorFee",
      "outputs": [
        {
          "internalType": "uint256",
          "name": "",
          "type": "uint256"
        }
      ],
      "payable": false,
      "stateMutability": "view",
      "type": "function"
    },
    {
      "constant": true,
      "inputs": [],
      "name": "owner",
      "outputs": [
        {
          "internalType": "address",
          "name": "",
          "type": "address"
        }
      ],
      "payable": false,
      "stateMutability": "view",
      "type": "function"
    },
    {
      "constant": false,
      "inputs": [],
      "name": "renounceOwnership",
      "outputs": [],
      "payable": false,
      "stateMutability": "nonpayable",
      "type": "function"
    },
    {
      "constant": true,
      "inputs": [],
      "name": "swapFactory",
      "outputs": [
        {
          "internalType": "address",
          "name": "",
          "type": "address"
        }
      ],
      "payable": false,
      "stateMutability": "view",
      "type": "function"
    },
    {
      "constant": false,
      "inputs": [
        {
          "internalType": "address",
          "name": "newOwner",
          "type": "address"
        }
      ],
      "name": "transferOwnership",
      "outputs": [],
      "payable": false,
      "stateMutability": "nonpayable",
      "type": "function"
    },
    {
      "constant": false,
      "inputs": [
        {
          "internalType": "address",
          "name": "_loanTemplate",
          "type": "address"
        }
      ],
      "name": "setLoanTemplate",
      "outputs": [],
      "payable": false,
      "stateMutability": "nonpayable",
      "type": "function"
    },
    {
      "constant": true,
      "inputs": [
        {
          "internalType": "address",
          "name": "tokenAddress",
          "type": "address"
        }
      ],
      "name": "isTokenAccepted",
      "outputs": [
        {
          "internalType": "bool",
          "name": "",
          "type": "bool"
        }
      ],
      "payable": false,
      "stateMutability": "view",
      "type": "function"
    },
    {
      "constant": false,
      "inputs": [
        {
          "internalType": "address",
          "name": "tokenAddress",
          "type": "address"
        }
      ],
      "name": "addTokenToAcceptedList",
      "outputs": [],
      "payable": false,
      "stateMutability": "nonpayable",
      "type": "function"
    },
    {
      "constant": false,
      "inputs": [
        {
          "internalType": "address",
          "name": "tokenAddress",
          "type": "address"
        }
      ],
      "name": "removeTokenFromAcceptedList",
      "outputs": [],
      "payable": false,
      "stateMutability": "nonpayable",
      "type": "function"
    },
    {
      "constant": false,
      "inputs": [
        {
          "internalType": "address",
          "name": "authAddress",
          "type": "address"
        }
      ],
      "name": "setAuthAddress",
      "outputs": [],
      "payable": false,
      "stateMutability": "nonpayable",
      "type": "function"
    },
    {
      "constant": false,
      "inputs": [
        {
          "internalType": "address",
          "name": "daiProxyAddress",
          "type": "address"
        }
      ],
      "name": "setDaiProxyAddress",
      "outputs": [],
      "payable": false,
      "stateMutability": "nonpayable",
      "type": "function"
    },
    {
      "constant": false,
      "inputs": [
        {
          "internalType": "address",
          "name": "_swapFactory",
          "type": "address"
        }
      ],
      "name": "setSwapFactory",
      "outputs": [],
      "payable": false,
      "stateMutability": "nonpayable",
      "type": "function"
    },
    {
      "constant": false,
      "inputs": [
        {
          "internalType": "address",
          "name": "admin",
          "type": "address"
        }
      ],
      "name": "setAdministrator",
      "outputs": [],
      "payable": false,
      "stateMutability": "nonpayable",
      "type": "function"
    },
    {
      "constant": false,
      "inputs": [
        {
          "internalType": "uint256",
          "name": "newFee",
          "type": "uint256"
        }
      ],
      "name": "setOperatorFee",
      "outputs": [],
      "payable": false,
      "stateMutability": "nonpayable",
      "type": "function"
    },
    {
      "constant": false,
      "inputs": [
        {
          "internalType": "uint256",
          "name": "requestedMinAmount",
          "type": "uint256"
        }
      ],
      "name": "setMinAmount",
      "outputs": [],
      "payable": false,
      "stateMutability": "nonpayable",
      "type": "function"
    },
    {
      "constant": false,
      "inputs": [
        {
          "internalType": "uint256",
          "name": "requestedMaxAmount",
          "type": "uint256"
        }
      ],
      "name": "setMaxAmount",
      "outputs": [],
      "payable": false,
      "stateMutability": "nonpayable",
      "type": "function"
    },
    {
      "constant": false,
      "inputs": [
        {
          "internalType": "uint256",
          "name": "requestedMinInterestRate",
          "type": "uint256"
        }
      ],
      "name": "setMinInterestRate",
      "outputs": [],
      "payable": false,
      "stateMutability": "nonpayable",
      "type": "function"
    },
    {
      "constant": false,
      "inputs": [
        {
          "internalType": "uint256",
          "name": "requestedMaxInterestRate",
          "type": "uint256"
        }
      ],
      "name": "setMaxInterestRate",
      "outputs": [],
      "payable": false,
      "stateMutability": "nonpayable",
      "type": "function"
    },
    {
      "constant": false,
      "inputs": [
        {
          "internalType": "uint256",
          "name": "requestedMinTermLength",
          "type": "uint256"
        }
      ],
      "name": "setMinTermLength",
      "outputs": [],
      "payable": false,
      "stateMutability": "nonpayable",
      "type": "function"
    },
    {
      "constant": false,
      "inputs": [
        {
          "internalType": "uint256",
          "name": "requestedMinAuctionLength",
          "type": "uint256"
        }
      ],
      "name": "setMinAuctionLength",
      "outputs": [],
      "payable": false,
      "stateMutability": "nonpayable",
      "type": "function"
    },
    {
      "constant": false,
      "inputs": [
        {
          "internalType": "uint256",
          "name": "loanMinAmount",
          "type": "uint256"
        },
        {
          "internalType": "uint256",
          "name": "loanMaxAmount",
          "type": "uint256"
        },
        {
          "internalType": "uint256",
          "name": "loanMinInterestRate",
          "type": "uint256"
        },
        {
          "internalType": "uint256",
          "name": "loanMaxInterestRate",
          "type": "uint256"
        },
        {
          "internalType": "uint256",
          "name": "termLength",
          "type": "uint256"
        },
        {
          "internalType": "uint256",
          "name": "auctionLength",
          "type": "uint256"
        },
        {
          "internalType": "address",
          "name": "tokenAddress",
          "type": "address"
        },
        {
          "internalType": "uint256",
          "name": "instalments",
          "type": "uint256"
        }
      ],
      "name": "deploy",
      "outputs": [
        {
          "internalType": "address",
          "name": "",
          "type": "address"
        }
      ],
      "payable": false,
      "stateMutability": "nonpayable",
      "type": "function"
    },
    {
      "constant": true,
      "inputs": [
        {
          "internalType": "address",
          "name": "target",
          "type": "address"
        },
        {
          "internalType": "address",
          "name": "query",
          "type": "address"
        }
      ],
      "name": "isCloned",
      "outputs": [
        {
          "internalType": "bool",
          "name": "result",
          "type": "bool"
        }
      ],
      "payable": false,
      "stateMutability": "view",
      "type": "function"
    },
    {
      "constant": true,
      "inputs": [
        {
          "internalType": "address",
          "name": "loanAddress",
          "type": "address"
        }
      ],
      "name": "checkLoanContract",
      "outputs": [
        {
          "internalType": "bool",
          "name": "",
          "type": "bool"
        }
      ],
      "payable": false,
      "stateMutability": "view",
      "type": "function"
    }
  ],
  "bytecode": "0x608060405234801561001057600080fd5b50604051611d33380380611d338339818101604052608081101561003357600080fd5b508051602082015160408301516060909301519192909161005b6001600160e01b036101c616565b600080546001600160a01b0319166001600160a01b03928316178082556040519216917f8be0079c531659141344cd1fd0a4f28419497f9722a3daafe3b4186f6b6457e0908290a3600180546001600160a01b038087166001600160a01b0319928316178084556002805488841690851617908190556003805488851690861617908190556004805488861696169590951790945560078590556a021165458500521280000060088190556801158e460913d00000600c8190556000600b819055671bc16d674ec80000600681905562093a80600a81905562278d00600981905560408051308152988a1660208a015296891688880152989097166060870152608086019890985260a085019290925260c084015260e083015261010082019490945261012081019190915261014081019190915290517f896ac340d75f3e747e49f2a25ec6c8643d813ff2aa070858a6c5c225ed580c3c918190036101600190a1505050506101ca565b3390565b611b5a806101d96000396000f3fe608060405234801561001057600080fd5b506004361061021c5760003560e01c80639b2cb5d811610125578063dae5f516116100ad578063e2510b081161007c578063e2510b081461058b578063e728b86c14610593578063eb994db1146105b9578063f2fde38b146105c1578063f53d0a8e146105e75761021c565b8063dae5f51614610511578063db326cf314610537578063de9375f21461055d578063df8089ef146105655761021c565b8063a9583d5f116100f4578063a9583d5f1461047b578063c259905414610483578063c286eebe146104a0578063c34e596f146104bd578063c562bc94146104e35761021c565b80639b2cb5d814610428578063a0b335e314610430578063a209730714610438578063a3927a04146104555761021c565b80636fc83db3116101a857806382f5de151161017757806382f5de15146103eb578063897b0637146103f357806389afc0f1146104105780638da5cb5b146104185780638f32d59b146104205761021c565b80636fc83db314610398578063715018a6146103b55780637944f944146103bd57806382dc4a05146103c55761021c565b80632e1d0e0f116101ef5780632e1d0e0f146102ba5780634488114f146102e05780634c5e67fa1461034d5780634fe47f70146103735780635f48f393146103905761021c565b80630560bd96146102215780630d6dd8a81461025b57806310265693146102755780631d0958051461029d575b600080fd5b6102476004803603602081101561023757600080fd5b50356001600160a01b03166105ef565b604080519115158252519081900360200190f35b61026361060d565b60408051918252519081900360200190f35b61029b6004803603602081101561028b57600080fd5b50356001600160a01b0316610613565b005b61029b600480360360208110156102b357600080fd5b50356106c5565b610247600480360360208110156102d057600080fd5b50356001600160a01b0316610758565b61033160048036036101008110156102f757600080fd5b5080359060208101359060408101359060608101359060808101359060a0810135906001600160a01b0360c0820135169060e00135610776565b604080516001600160a01b039092168252519081900360200190f35b61029b6004803603602081101561036357600080fd5b50356001600160a01b0316610da2565b61029b6004803603602081101561038957600080fd5b5035610e4f565b610263610f1f565b61029b600480360360208110156103ae57600080fd5b5035610f25565b61029b610fb4565b610331611057565b610247600480360360208110156103db57600080fd5b50356001600160a01b0316611066565b61033161107b565b61029b6004803603602081101561040957600080fd5b503561108a565b61026361115a565b610331611160565b61024761116f565b610263611193565b610263611199565b61029b6004803603602081101561044e57600080fd5b503561119f565b61029b6004803603602081101561046b57600080fd5b50356001600160a01b031661122e565b6102636112e3565b61029b6004803603602081101561049957600080fd5b50356112e9565b61029b600480360360208110156104b657600080fd5b50356113b9565b61029b600480360360208110156104d357600080fd5b50356001600160a01b0316611489565b610247600480360360408110156104f957600080fd5b506001600160a01b038135811691602001351661153e565b61029b6004803603602081101561052757600080fd5b50356001600160a01b0316611551565b61029b6004803603602081101561054d57600080fd5b50356001600160a01b03166115fb565b6103316116a2565b61029b6004803603602081101561057b57600080fd5b50356001600160a01b03166116b1565b61033161176a565b610247600480360360208110156105a957600080fd5b50356001600160a01b0316611779565b61026361178e565b61029b600480360360208110156105d757600080fd5b50356001600160a01b0316611794565b6103316117f9565b6001600160a01b03166000908152600d602052604090205460ff1690565b60095481565b6005546001600160a01b03163314610660576040805162461bcd60e51b815260206004820152601e60248201526000805160206119c9833981519152604482015290519081900360640190fd5b600180546001600160a01b038084166001600160a01b031990921682179092556005546040805192835292166020820152308183015290517fb033385e419e57330f7bd19224cfc71e19f80cf05dada8d0b452d123a299399b9181900360600190a150565b6005546001600160a01b03163314610712576040805162461bcd60e51b815260206004820152601e60248201526000805160206119c9833981519152604482015290519081900360640190fd5b600681905560408051828152306020820152338183015290517f7dd5f7f2a6271519e65bd190731bf6e0e2907a49634f7def0efa0bfeb2b126be9181900360600190a150565b6001600160a01b03166000908152600e602052604090205460ff1690565b6001546040805163e2f4327160e01b815233600482015290516000926001600160a01b03169163e2f43271916024808301926020929190829003018186803b1580156107c157600080fd5b505afa1580156107d5573d6000803e3d6000fd5b505050506040513d60208110156107eb57600080fd5b5051610837576040805162461bcd60e51b81526020600482015260166024820152757573657220646f6573206e6f742068617665204b594360501b604482015290519081900360640190fd5b6005546001600160a01b0316610894576040805162461bcd60e51b815260206004820152601d60248201527f5468657265206973206e6f2061646d696e6973747261746f7220736574000000604482015290519081900360640190fd5b60075489101580156108a857506008548911155b80156108b45750878911155b610905576040805162461bcd60e51b815260206004820152601a60248201527f6d696e696d756d20616d6f756e74206e6f7420636f7272656374000000000000604482015290519081900360640190fd5b600754881015801561091957506008548811155b80156109255750888810155b610976576040805162461bcd60e51b815260206004820152601a60248201527f6d6178696d756d20616d6f756e74206e6f7420636f7272656374000000000000604482015290519081900360640190fd5b600b54861015801561098a5750600c548611155b6109c55760405162461bcd60e51b8152600401808060200182810382526021815260200180611aa26021913960400191505060405180910390fd5b600b5487101580156109d95750600c548711155b610a145760405162461bcd60e51b8152600401808060200182810382526021815260200180611ac36021913960400191505060405180910390fd5b86861015610a535760405162461bcd60e51b815260040180806020018281038252603c815260200180611a66603c913960400191505060405180910390fd5b600954851015610aaa576040805162461bcd60e51b815260206004820152601760248201527f5465726d206c656e67746820697320746f20736d616c6c000000000000000000604482015290519081900360640190fd5b600a54841015610b01576040805162461bcd60e51b815260206004820152601a60248201527f41756374696f6e206c656e67746820697320746f20736d616c6c000000000000604482015290519081900360640190fd5b6001600160a01b0383166000908152600d602052604090205460ff161515600114610b73576040805162461bcd60e51b815260206004820152601960248201527f546f6b656e41646472657373206e6f7420616363657074656400000000000000604482015290519081900360640190fd5b600454600090610b8b906001600160a01b0316611808565b9050806001600160a01b0316634f8c425a878c8c8c8c6006548c8b338e600260009054906101000a90046001600160a01b0316600560009054906101000a90046001600160a01b0316600360009054906101000a90046001600160a01b03166040518e63ffffffff1660e01b8152600401808e81526020018d81526020018c81526020018b81526020018a8152602001898152602001888152602001878152602001866001600160a01b03166001600160a01b03168152602001856001600160a01b03166001600160a01b03168152602001846001600160a01b03166001600160a01b03168152602001836001600160a01b03166001600160a01b03168152602001826001600160a01b03166001600160a01b031681526020019d5050505050505050505050505050602060405180830381600087803b158015610cce57600080fd5b505af1158015610ce2573d6000803e3d6000fd5b505050506040513d6020811015610cf857600080fd5b5051610d3c576040805162461bcd60e51b815260206004820152600e60248201526d11985a5b1959081d1bc81a5b9a5d60921b604482015290519081900360640190fd5b6001600160a01b0381166000818152600e6020908152604091829020805460ff191660011790558151928352905133927f501964e95aa0f4c9e5c6801f352dc3f16f9d2dcc9a7b3341a8b120a2dcca72c192908290030190a29998505050505050505050565b6005546001600160a01b03163314610def576040805162461bcd60e51b815260206004820152601e60248201526000805160206119c9833981519152604482015290519081900360640190fd5b6001600160a01b0381166000818152600d6020908152604091829020805460ff191660011790558151928352309083015280517f0bba56658c697487984786611ec3428c04833ef4a41642d913c92bc2038167a29281900390910190a150565b6005546001600160a01b03163314610e9c576040805162461bcd60e51b815260206004820152601e60248201526000805160206119c9833981519152604482015290519081900360640190fd5b600754811015610edd5760405162461bcd60e51b815260040180806020018281038252603f815260200180611a27603f913960400191505060405180910390fd5b60088190556040805182815230602082015281517f91beaf63a7a8596b4bdb5f8ac94494639fe81c50a892206952bc74972e0c3375929181900390910190a150565b60085481565b6005546001600160a01b03163314610f72576040805162461bcd60e51b815260206004820152601e60248201526000805160206119c9833981519152604482015290519081900360640190fd5b600a8190556040805182815230602082015281517f010096bbaf113129b4a3015dbfdc9ced2322adf990879dffa644631cfb552171929181900390910190a150565b610fbc61116f565b61100d576040805162461bcd60e51b815260206004820181905260248201527f4f776e61626c653a2063616c6c6572206973206e6f7420746865206f776e6572604482015290519081900360640190fd5b600080546040516001600160a01b03909116907f8be0079c531659141344cd1fd0a4f28419497f9722a3daafe3b4186f6b6457e0908390a3600080546001600160a01b0319169055565b6003546001600160a01b031681565b600d6020526000908152604090205460ff1681565b6004546001600160a01b031681565b6005546001600160a01b031633146110d7576040805162461bcd60e51b815260206004820152601e60248201526000805160206119c9833981519152604482015290519081900360640190fd5b6008548111156111185760405162461bcd60e51b815260040180806020018281038252603e8152602001806119e9603e913960400191505060405180910390fd5b60078190556040805182815230602082015281517f6a73ad5fc763a8c0bcc28b00ed3e08dff5a3f8a63eea93d9eaae237124259894929181900390910190a150565b60065481565b6000546001600160a01b031690565b600080546001600160a01b031661118461185a565b6001600160a01b031614905090565b60075481565b600a5481565b6005546001600160a01b031633146111ec576040805162461bcd60e51b815260206004820152601e60248201526000805160206119c9833981519152604482015290519081900360640190fd5b60098190556040805182815230602082015281517fd47108fb96bee99a5a464364493d5e545a5516ed2174ec57488fcb8ab7e61b18929181900390910190a150565b6005546001600160a01b0316331461127b576040805162461bcd60e51b815260206004820152601e60248201526000805160206119c9833981519152604482015290519081900360640190fd5b600280546001600160a01b0319166001600160a01b038381169190911791829055600554604080519383168452911660208301523082820152517f6b1ff65344d9a70352df4b5811fb0fbe2cd3d0b1117f86e8f2163702d0afcf98916060908290030190a150565b600c5481565b6005546001600160a01b03163314611336576040805162461bcd60e51b815260206004820152601e60248201526000805160206119c9833981519152604482015290519081900360640190fd5b600b548110156113775760405162461bcd60e51b81526004018080602001828103825260438152602001806119606043913960600191505060405180910390fd5b600c8190556040805182815230602082015281517f231c0f19fcc27c4a82dcc4ddf6f5c7a9e543a9857ca7286bbfe9b306fa83ad27929181900390910190a150565b6005546001600160a01b03163314611406576040805162461bcd60e51b815260206004820152601e60248201526000805160206119c9833981519152604482015290519081900360640190fd5b600c548111156114475760405162461bcd60e51b8152600401808060200182810382526042815260200180611ae46042913960600191505060405180910390fd5b600b8190556040805182815230602082015281517fd2ee5beab74926025e55d9ca98e85bef0ef7c2b31a8d198a555c512973e9f8f6929181900390910190a150565b6005546001600160a01b031633146114d6576040805162461bcd60e51b815260206004820152601e60248201526000805160206119c9833981519152604482015290519081900360640190fd5b600380546001600160a01b0319166001600160a01b038381169190911791829055600554604080519383168452911660208301523082820152517f02dba8c865cdc78401d3f0a7839e3ba6dedd9675d63dcb3c5a5add4343bac942916060908290030190a150565b600061154a838361185e565b9392505050565b6005546001600160a01b0316331461159e576040805162461bcd60e51b815260206004820152601e60248201526000805160206119c9833981519152604482015290519081900360640190fd5b6001600160a01b0381166000818152600d6020908152604091829020805460ff191690558151928352309083015280517fe517e13517804b00ee511d3764d01e69e45da87ca2c6d5a04c15d5f3242f54649281900390910190a150565b6005546001600160a01b03163314611648576040805162461bcd60e51b815260206004820152601e60248201526000805160206119c9833981519152604482015290519081900360640190fd5b600480546001600160a01b0319166001600160a01b03838116919091179182905560408051929091168252517f462f8af94d1a8af31717716a2b44a23edbb504b8f185c59d197005985b9fa512916020908290030190a150565b6001546001600160a01b031681565b6116b961116f565b61170a576040805162461bcd60e51b815260206004820181905260248201527f4f776e61626c653a2063616c6c6572206973206e6f7420746865206f776e6572604482015290519081900360640190fd5b600580546001600160a01b0319166001600160a01b0383811691909117918290556040805192909116825230602083015280517f222c8e95a03c7aa95fc5d110485e0d38e767f07ab1ec878a6eac644ef1d831229281900390910190a150565b6002546001600160a01b031681565b600e6020526000908152604090205460ff1681565b600b5481565b61179c61116f565b6117ed576040805162461bcd60e51b815260206004820181905260248201527f4f776e61626c653a2063616c6c6572206973206e6f7420746865206f776e6572604482015290519081900360640190fd5b6117f6816118bf565b50565b6005546001600160a01b031681565b6000808260601b9050604051733d602d80600a3d3981f3363d3d373d3d3d363d7360601b81528160148201526e5af43d82803e903d91602b57fd5bf360881b60288201526037816000f0949350505050565b3390565b6000808360601b905060405169363d3d373d3d3d363d7360b01b815281600a8201526e5af43d82803e903d91602b57fd5bf360881b601e82015260408101602d600082873c600d810151600d83015114815183511416935050505092915050565b6001600160a01b0381166119045760405162461bcd60e51b81526004018080602001828103825260268152602001806119a36026913960400191505060405180910390fd5b600080546040516001600160a01b03808516939216917f8be0079c531659141344cd1fd0a4f28419497f9722a3daafe3b4186f6b6457e091a3600080546001600160a01b0319166001600160a01b039290921691909117905556fe4d6178696d756d20696e746572657374206e6565647320746f2062652067726561746572206f7220657175616c207468616e206d696e696d756d20696e7465726573744f776e61626c653a206e6577206f776e657220697320746865207a65726f206164647265737343616c6c6572206973206e6f7420616e2061646d696e6973747261746f7200004d696e696d756d20616d6f756e74206e6565647320746f206265206c6573736572206f7220657175616c207468616e206d6178696d756d20616d6f756e744d6178696d756d20616d6f756e74206e6565647320746f2062652067726561746572206f7220657175616c207468616e206d696e696d756d20616d6f756e746d696e696d756d20696e7465726573742073686f756c64206e6f742062652067726561746572207468616e206d6178696d756d20696e7465726573746d6178696d756d20696e7465726573742072617465206e6f7420636f72726563746d696e696d756d20696e7465726573742072617465206e6f7420636f72726563744d696e696d756d20696e746572657374206e6565647320746f206265206c6573736572206f7220657175616c207468616e206d6178696d756d20696e746572657374a265627a7a72315820f24c02a614e226fc1c9645ca6a5bbef6491a1d4100cbfd8cc74f2310f013c06164736f6c634300050c0032",
  "source": "pragma solidity 0.5.12;\n\nimport \"openzeppelin-solidity/contracts/ownership/Ownable.sol\";\nimport \"./interfaces/ILoanInstalmentsDispatcher.sol\";\nimport \"./interfaces/ILoanInstalments.sol\";\nimport \"./interfaces/IAuthorization.sol\";\nimport \"./CloneFactory.sol\";\n\ncontract LoanInstalmentsDispatcher is ILoanInstalmentsDispatcher, CloneFactory, Ownable {\n    address public auth;\n    address public DAIProxyAddress;\n    address public swapFactory;\n    address public loanTemplate;\n\n    address public administrator;\n\n    uint256 public operatorFee;\n    uint256 public minAmount;\n    uint256 public maxAmount;\n    uint256 public minTermLength;\n    uint256 public minAuctionLength;\n\n    uint256 public minInterestRate;\n    uint256 public maxInterestRate;\n\n    mapping(address => bool) public acceptedTokens;\n\n    mapping(address => bool) public isLoanContract;\n\n    modifier onlyKYC {\n        require(IAuthorization(auth).isKYCConfirmed(msg.sender), \"user does not have KYC\");\n        _;\n    }\n\n    modifier onlyAdmin() {\n        require(msg.sender == administrator, \"Caller is not an administrator\");\n        _;\n    }\n\n    event LoanContractCreated(address contractAddress, address indexed originator);\n\n    event MinAmountUpdated(uint256 minAmount, address loanDispatcher);\n    event MaxAmountUpdated(uint256 maxAmount, address loanDispatcher);\n    event MinInterestRateUpdated(uint256 minInterestRate, address loanDispatcher);\n    event MaxInterestRateUpdated(uint256 maxInterestRate, address loanDispatcher);\n    event MinTermLengthUpdated(uint256 minTermLength, address loanDispatcher);\n    event MinAuctionLengthUpdated(uint256 minAuctionLength, address loanDispatcher);\n    event OperatorFeeUpdated(uint256 operatorFee, address loanDispatcher, address administrator);\n\n    event AuthAddressUpdated(address newAuthAddress, address administrator, address loanDispatcher);\n    event LoanTemplateUpdated(address newTemplateAddress);\n    event DaiProxyAddressUpdated(\n        address newDaiProxyAddress,\n        address administrator,\n        address loanDispatcher\n    );\n    event SwapFactoryAddressUpdated(\n        address newSwapFactory,\n        address administrator,\n        address loanDispatcher\n    );\n\n    event AdministratorUpdated(address newAdminAddress, address loanDispatcher);\n    event AddTokenToAcceptedList(address tokenAddress, address loanDispatcher);\n    event RemoveTokenFromAcceptedList(address tokenAddress, address loanDispatcher);\n\n    event LoanDispatcherCreated(\n        address loanDispatcher,\n        address auth,\n        address DAIProxyAddress,\n        address swapFactory,\n        uint256 minAmount,\n        uint256 maxAmount,\n        uint256 maxInterestRate,\n        uint256 minInterestRate,\n        uint256 operatorFee,\n        uint256 minAuctionLength,\n        uint256 minTermLength\n    );\n\n    constructor(\n        address authAddress,\n        address _DAIProxyAddress,\n        address _swapFactory,\n        address _loanTemplate\n    ) public {\n        auth = authAddress;\n        DAIProxyAddress = _DAIProxyAddress;\n        swapFactory = _swapFactory;\n        loanTemplate = _loanTemplate;\n        minAmount = 1;\n        maxAmount = 2500000e18;\n\n        maxInterestRate = 20e18;\n        minInterestRate = 0;\n        operatorFee = 2e18;\n\n        minAuctionLength = 604800;\n        minTermLength = 2592000;\n\n        emit LoanDispatcherCreated(\n            address(this),\n            auth,\n            DAIProxyAddress,\n            swapFactory,\n            minAmount,\n            maxAmount,\n            maxInterestRate,\n            minInterestRate,\n            operatorFee,\n            minAuctionLength,\n            minTermLength\n        );\n    }\n\n    function setLoanTemplate(address _loanTemplate) external onlyAdmin {\n        loanTemplate = _loanTemplate;\n        emit LoanTemplateUpdated(loanTemplate);\n    }\n\n    function isTokenAccepted(address tokenAddress) external view returns (bool) {\n        return acceptedTokens[tokenAddress];\n    }\n\n    function addTokenToAcceptedList(address tokenAddress) external onlyAdmin {\n        acceptedTokens[tokenAddress] = true;\n        emit AddTokenToAcceptedList(tokenAddress, address(this));\n    }\n\n    function removeTokenFromAcceptedList(address tokenAddress) external onlyAdmin {\n        acceptedTokens[tokenAddress] = false;\n        emit RemoveTokenFromAcceptedList(tokenAddress, address(this));\n    }\n\n    function setAuthAddress(address authAddress) external onlyAdmin {\n        auth = authAddress;\n        emit AuthAddressUpdated(authAddress, administrator, address(this));\n    }\n\n    function setDaiProxyAddress(address daiProxyAddress) external onlyAdmin {\n        DAIProxyAddress = daiProxyAddress;\n        emit DaiProxyAddressUpdated(DAIProxyAddress, administrator, address(this));\n    }\n\n    function setSwapFactory(address _swapFactory) external onlyAdmin {\n        swapFactory = _swapFactory;\n        emit SwapFactoryAddressUpdated(swapFactory, administrator, address(this));\n    }\n\n    function setAdministrator(address admin) external onlyOwner {\n        administrator = admin;\n        emit AdministratorUpdated(administrator, address(this));\n    }\n\n    function setOperatorFee(uint256 newFee) external onlyAdmin {\n        operatorFee = newFee;\n        emit OperatorFeeUpdated(operatorFee, address(this), msg.sender);\n    }\n\n    function setMinAmount(uint256 requestedMinAmount) external onlyAdmin {\n        require(\n            requestedMinAmount <= maxAmount,\n            \"Minimum amount needs to be lesser or equal than maximum amount\"\n        );\n        minAmount = requestedMinAmount;\n        emit MinAmountUpdated(minAmount, address(this));\n    }\n\n    function setMaxAmount(uint256 requestedMaxAmount) external onlyAdmin {\n        require(\n            requestedMaxAmount >= minAmount,\n            \"Maximum amount needs to be greater or equal than minimum amount\"\n        );\n        maxAmount = requestedMaxAmount;\n        emit MaxAmountUpdated(maxAmount, address(this));\n    }\n\n    function setMinInterestRate(uint256 requestedMinInterestRate) external onlyAdmin {\n        require(\n            requestedMinInterestRate <= maxInterestRate,\n            \"Minimum interest needs to be lesser or equal than maximum interest\"\n        );\n        minInterestRate = requestedMinInterestRate;\n        emit MinInterestRateUpdated(minInterestRate, address(this));\n    }\n\n    function setMaxInterestRate(uint256 requestedMaxInterestRate) external onlyAdmin {\n        require(\n            requestedMaxInterestRate >= minInterestRate,\n            \"Maximum interest needs to be greater or equal than minimum interest\"\n        );\n        maxInterestRate = requestedMaxInterestRate;\n        emit MaxInterestRateUpdated(maxInterestRate, address(this));\n    }\n\n    function setMinTermLength(uint256 requestedMinTermLength) external onlyAdmin {\n        minTermLength = requestedMinTermLength;\n        emit MinTermLengthUpdated(minTermLength, address(this));\n    }\n\n    function setMinAuctionLength(uint256 requestedMinAuctionLength) external onlyAdmin {\n        minAuctionLength = requestedMinAuctionLength;\n        emit MinAuctionLengthUpdated(minAuctionLength, address(this));\n    }\n\n    function deploy(\n        uint256 loanMinAmount,\n        uint256 loanMaxAmount,\n        uint256 loanMinInterestRate,\n        uint256 loanMaxInterestRate,\n        uint256 termLength,\n        uint256 auctionLength,\n        address tokenAddress,\n        uint256 instalments\n    ) external onlyKYC returns (address) {\n        require(administrator != address(0), \"There is no administrator set\");\n        require(\n            loanMinAmount >= minAmount &&\n                loanMinAmount <= maxAmount &&\n                loanMinAmount <= loanMaxAmount,\n            \"minimum amount not correct\"\n        );\n        require(\n            loanMaxAmount >= minAmount &&\n                loanMaxAmount <= maxAmount &&\n                loanMaxAmount >= loanMinAmount,\n            \"maximum amount not correct\"\n        );\n        require(\n            loanMaxInterestRate >= minInterestRate && loanMaxInterestRate <= maxInterestRate,\n            \"maximum interest rate not correct\"\n        );\n        require(\n            loanMinInterestRate >= minInterestRate && loanMinInterestRate <= maxInterestRate,\n            \"minimum interest rate not correct\"\n        );\n        require(\n            loanMaxInterestRate >= loanMinInterestRate,\n            \"minimum interest should not be greater than maximum interest\"\n        );\n        require(termLength >= minTermLength, \"Term length is to small\");\n        require(auctionLength >= minAuctionLength, \"Auction length is to small\");\n        require(acceptedTokens[tokenAddress] == true, \"TokenAddress not accepted\");\n\n        // Deploy cloned loan from template\n        address loanContract = createClone(loanTemplate);\n\n        // Initialize the cloned loan, if not possible force revert\n        require(\n            ILoanInstalments(loanContract).init(\n                termLength,\n                loanMinAmount,\n                loanMaxAmount,\n                loanMinInterestRate,\n                loanMaxInterestRate,\n                operatorFee,\n                auctionLength,\n                instalments,\n                msg.sender,\n                tokenAddress,\n                DAIProxyAddress,\n                administrator,\n                swapFactory\n            ),\n            \"Failed to init\"\n        );\n        isLoanContract[loanContract] = true;\n        emit LoanContractCreated(loanContract, msg.sender);\n\n        return loanContract;\n    }\n\n    function isCloned(address target, address query) external view returns (bool result) {\n        return isClone(target, query);\n    }\n\n    function checkLoanContract(address loanAddress) external view returns (bool) {\n        return isLoanContract[loanAddress];\n    }\n}\n",
  "sourcePath": "/home/kartojal/repos/contracts-solidity/contracts/LoanInstalmentsDispatcher.sol",
  "compiler": {
    "name": "solc",
    "version": "0.5.12+commit.7709ece9.Emscripten.clang"
  },
  "schemaVersion": "3.0.22",
  "updatedAt": "2020-07-01T12:35:05.842Z",
  "devdoc": {
    "methods": {
      "isOwner()": {
        "details": "Returns true if the caller is the current owner."
      },
      "owner()": {
        "details": "Returns the address of the current owner."
      },
      "renounceOwnership()": {
        "details": "Leaves the contract without owner. It will not be possible to call `onlyOwner` functions anymore. Can only be called by the current owner.     * NOTE: Renouncing ownership will leave the contract without an owner, thereby removing any functionality that is only available to the owner."
      },
      "transferOwnership(address)": {
        "details": "Transfers ownership of the contract to a new account (`newOwner`). Can only be called by the current owner."
      }
    }
  },
  "userdoc": {
    "methods": {}
  }
}