{
  "contractName": "LoanContractDispatcher",
  "abi": [
    {
      "inputs": [
        {
          "internalType": "address",
          "name": "authAddress",
          "type": "address"
        },
        {
          "internalType": "address",
          "name": "_DAITokenAddress",
          "type": "address"
        },
        {
          "internalType": "address",
          "name": "_DAIProxyAddress",
          "type": "address"
        },
        {
          "internalType": "address",
          "name": "_swapFactory",
          "type": "address"
        }
      ],
      "payable": false,
      "stateMutability": "nonpayable",
      "type": "constructor"
    },
    {
      "anonymous": false,
      "inputs": [
        {
          "indexed": false,
          "internalType": "address",
          "name": "newAdminAddress",
          "type": "address"
        }
      ],
      "name": "AdministratorUpdated",
      "type": "event"
    },
    {
      "anonymous": false,
      "inputs": [
        {
          "indexed": false,
          "internalType": "address",
          "name": "newAuthAddress",
          "type": "address"
        },
        {
          "indexed": false,
          "internalType": "address",
          "name": "administrator",
          "type": "address"
        }
      ],
      "name": "AuthAddressUpdated",
      "type": "event"
    },
    {
      "anonymous": false,
      "inputs": [
        {
          "indexed": false,
          "internalType": "address",
          "name": "newDaiProxyAddress",
          "type": "address"
        },
        {
          "indexed": false,
          "internalType": "address",
          "name": "administrator",
          "type": "address"
        }
      ],
      "name": "DaiProxyAddressUpdated",
      "type": "event"
    },
    {
      "anonymous": false,
      "inputs": [
        {
          "indexed": false,
          "internalType": "address",
          "name": "newDaiTokenAddress",
          "type": "address"
        },
        {
          "indexed": false,
          "internalType": "address",
          "name": "administrator",
          "type": "address"
        }
      ],
      "name": "DaiTokenAddressUpdated",
      "type": "event"
    },
    {
      "anonymous": false,
      "inputs": [
        {
          "indexed": false,
          "internalType": "address",
          "name": "loanDispatcher",
          "type": "address"
        },
        {
          "indexed": false,
          "internalType": "address",
          "name": "contractAddress",
          "type": "address"
        },
        {
          "indexed": true,
          "internalType": "address",
          "name": "originator",
          "type": "address"
        },
        {
          "indexed": false,
          "internalType": "uint256",
          "name": "minAmount",
          "type": "uint256"
        },
        {
          "indexed": false,
          "internalType": "uint256",
          "name": "maxAmount",
          "type": "uint256"
        },
        {
          "indexed": false,
          "internalType": "uint256",
          "name": "minInterestRate",
          "type": "uint256"
        },
        {
          "indexed": false,
          "internalType": "uint256",
          "name": "maxInterestRate",
          "type": "uint256"
        },
        {
          "indexed": false,
          "internalType": "uint256",
          "name": "termEndTimestamp",
          "type": "uint256"
        },
        {
          "indexed": true,
          "internalType": "address",
          "name": "administrator",
          "type": "address"
        },
        {
          "indexed": false,
          "internalType": "uint256",
          "name": "operatorFee",
          "type": "uint256"
        },
        {
          "indexed": false,
          "internalType": "uint256",
          "name": "auctionLength",
          "type": "uint256"
        }
      ],
      "name": "LoanContractCreated",
      "type": "event"
    },
    {
      "anonymous": false,
      "inputs": [
        {
          "indexed": false,
          "internalType": "uint256",
          "name": "maxAmount",
          "type": "uint256"
        },
        {
          "indexed": false,
          "internalType": "address",
          "name": "loanDispatcher",
          "type": "address"
        }
      ],
      "name": "MaxAmountUpdated",
      "type": "event"
    },
    {
      "anonymous": false,
      "inputs": [
        {
          "indexed": false,
          "internalType": "uint256",
          "name": "maxInterestRate",
          "type": "uint256"
        },
        {
          "indexed": false,
          "internalType": "address",
          "name": "loanDispatcher",
          "type": "address"
        }
      ],
      "name": "MaxInterestRateUpdated",
      "type": "event"
    },
    {
      "anonymous": false,
      "inputs": [
        {
          "indexed": false,
          "internalType": "uint256",
          "name": "minAmount",
          "type": "uint256"
        },
        {
          "indexed": false,
          "internalType": "address",
          "name": "loanDispatcher",
          "type": "address"
        }
      ],
      "name": "MinAmountUpdated",
      "type": "event"
    },
    {
      "anonymous": false,
      "inputs": [
        {
          "indexed": false,
          "internalType": "uint256",
          "name": "minInterestRate",
          "type": "uint256"
        },
        {
          "indexed": false,
          "internalType": "address",
          "name": "loanDispatcher",
          "type": "address"
        }
      ],
      "name": "MinInterestRateUpdated",
      "type": "event"
    },
    {
      "anonymous": false,
      "inputs": [
        {
          "indexed": false,
          "internalType": "uint256",
          "name": "operatorFee",
          "type": "uint256"
        },
        {
          "indexed": false,
          "internalType": "address",
          "name": "loanDispatcher",
          "type": "address"
        },
        {
          "indexed": false,
          "internalType": "address",
          "name": "administrator",
          "type": "address"
        }
      ],
      "name": "OperatorFeeUpdated",
      "type": "event"
    },
    {
      "anonymous": false,
      "inputs": [
        {
          "indexed": true,
          "internalType": "address",
          "name": "previousOwner",
          "type": "address"
        },
        {
          "indexed": true,
          "internalType": "address",
          "name": "newOwner",
          "type": "address"
        }
      ],
      "name": "OwnershipTransferred",
      "type": "event"
    },
    {
      "anonymous": false,
      "inputs": [
        {
          "indexed": false,
          "internalType": "address",
          "name": "newSwapFactory",
          "type": "address"
        },
        {
          "indexed": false,
          "internalType": "address",
          "name": "administrator",
          "type": "address"
        }
      ],
      "name": "SwapFactoryAddressUpdated",
      "type": "event"
    },
    {
      "constant": true,
      "inputs": [],
      "name": "DAIProxyAddress",
      "outputs": [
        {
          "internalType": "address",
          "name": "",
          "type": "address"
        }
      ],
      "payable": false,
      "stateMutability": "view",
      "type": "function"
    },
    {
      "constant": true,
      "inputs": [],
      "name": "DAITokenAddress",
      "outputs": [
        {
          "internalType": "address",
          "name": "",
          "type": "address"
        }
      ],
      "payable": false,
      "stateMutability": "view",
      "type": "function"
    },
    {
      "constant": true,
      "inputs": [],
      "name": "administrator",
      "outputs": [
        {
          "internalType": "address",
          "name": "",
          "type": "address"
        }
      ],
      "payable": false,
      "stateMutability": "view",
      "type": "function"
    },
    {
      "constant": true,
      "inputs": [],
      "name": "auth",
      "outputs": [
        {
          "internalType": "address",
          "name": "",
          "type": "address"
        }
      ],
      "payable": false,
      "stateMutability": "view",
      "type": "function"
    },
    {
      "constant": true,
      "inputs": [
        {
          "internalType": "address",
          "name": "",
          "type": "address"
        }
      ],
      "name": "isLoanContract",
      "outputs": [
        {
          "internalType": "bool",
          "name": "",
          "type": "bool"
        }
      ],
      "payable": false,
      "stateMutability": "view",
      "type": "function"
    },
    {
      "constant": true,
      "inputs": [],
      "name": "isOwner",
      "outputs": [
        {
          "internalType": "bool",
          "name": "",
          "type": "bool"
        }
      ],
      "payable": false,
      "stateMutability": "view",
      "type": "function"
    },
    {
      "constant": true,
      "inputs": [],
      "name": "maxAmount",
      "outputs": [
        {
          "internalType": "uint256",
          "name": "",
          "type": "uint256"
        }
      ],
      "payable": false,
      "stateMutability": "view",
      "type": "function"
    },
    {
      "constant": true,
      "inputs": [],
      "name": "maxInterestRate",
      "outputs": [
        {
          "internalType": "uint256",
          "name": "",
          "type": "uint256"
        }
      ],
      "payable": false,
      "stateMutability": "view",
      "type": "function"
    },
    {
      "constant": true,
      "inputs": [],
      "name": "minAmount",
      "outputs": [
        {
          "internalType": "uint256",
          "name": "",
          "type": "uint256"
        }
      ],
      "payable": false,
      "stateMutability": "view",
      "type": "function"
    },
    {
      "constant": true,
      "inputs": [],
      "name": "minAuctionLength",
      "outputs": [
        {
          "internalType": "uint256",
          "name": "",
          "type": "uint256"
        }
      ],
      "payable": false,
      "stateMutability": "view",
      "type": "function"
    },
    {
      "constant": true,
      "inputs": [],
      "name": "minInterestRate",
      "outputs": [
        {
          "internalType": "uint256",
          "name": "",
          "type": "uint256"
        }
      ],
      "payable": false,
      "stateMutability": "view",
      "type": "function"
    },
    {
      "constant": true,
      "inputs": [],
      "name": "minTermLength",
      "outputs": [
        {
          "internalType": "uint256",
          "name": "",
          "type": "uint256"
        }
      ],
      "payable": false,
      "stateMutability": "view",
      "type": "function"
    },
    {
      "constant": true,
      "inputs": [],
      "name": "operatorFee",
      "outputs": [
        {
          "internalType": "uint256",
          "name": "",
          "type": "uint256"
        }
      ],
      "payable": false,
      "stateMutability": "view",
      "type": "function"
    },
    {
      "constant": true,
      "inputs": [],
      "name": "owner",
      "outputs": [
        {
          "internalType": "address",
          "name": "",
          "type": "address"
        }
      ],
      "payable": false,
      "stateMutability": "view",
      "type": "function"
    },
    {
      "constant": false,
      "inputs": [],
      "name": "renounceOwnership",
      "outputs": [],
      "payable": false,
      "stateMutability": "nonpayable",
      "type": "function"
    },
    {
      "constant": true,
      "inputs": [],
      "name": "swapFactory",
      "outputs": [
        {
          "internalType": "address",
          "name": "",
          "type": "address"
        }
      ],
      "payable": false,
      "stateMutability": "view",
      "type": "function"
    },
    {
      "constant": false,
      "inputs": [
        {
          "internalType": "address",
          "name": "newOwner",
          "type": "address"
        }
      ],
      "name": "transferOwnership",
      "outputs": [],
      "payable": false,
      "stateMutability": "nonpayable",
      "type": "function"
    },
    {
      "constant": false,
      "inputs": [
        {
          "internalType": "address",
          "name": "daiAddress",
          "type": "address"
        }
      ],
      "name": "setDaiTokenAddress",
      "outputs": [],
      "payable": false,
      "stateMutability": "nonpayable",
      "type": "function"
    },
    {
      "constant": false,
      "inputs": [
        {
          "internalType": "address",
          "name": "authAddress",
          "type": "address"
        }
      ],
      "name": "setAuthAddress",
      "outputs": [],
      "payable": false,
      "stateMutability": "nonpayable",
      "type": "function"
    },
    {
      "constant": false,
      "inputs": [
        {
          "internalType": "address",
          "name": "daiProxyAddress",
          "type": "address"
        }
      ],
      "name": "setDaiProxyAddress",
      "outputs": [],
      "payable": false,
      "stateMutability": "nonpayable",
      "type": "function"
    },
    {
      "constant": false,
      "inputs": [
        {
          "internalType": "address",
          "name": "_swapFactory",
          "type": "address"
        }
      ],
      "name": "setSwapFactory",
      "outputs": [],
      "payable": false,
      "stateMutability": "nonpayable",
      "type": "function"
    },
    {
      "constant": false,
      "inputs": [
        {
          "internalType": "address",
          "name": "admin",
          "type": "address"
        }
      ],
      "name": "setAdministrator",
      "outputs": [],
      "payable": false,
      "stateMutability": "nonpayable",
      "type": "function"
    },
    {
      "constant": false,
      "inputs": [
        {
          "internalType": "uint256",
          "name": "newFee",
          "type": "uint256"
        }
      ],
      "name": "setOperatorFee",
      "outputs": [],
      "payable": false,
      "stateMutability": "nonpayable",
      "type": "function"
    },
    {
      "constant": false,
      "inputs": [
        {
          "internalType": "uint256",
          "name": "requestedMinAmount",
          "type": "uint256"
        }
      ],
      "name": "setMinAmount",
      "outputs": [],
      "payable": false,
      "stateMutability": "nonpayable",
      "type": "function"
    },
    {
      "constant": false,
      "inputs": [
        {
          "internalType": "uint256",
          "name": "requestedMaxAmount",
          "type": "uint256"
        }
      ],
      "name": "setMaxAmount",
      "outputs": [],
      "payable": false,
      "stateMutability": "nonpayable",
      "type": "function"
    },
    {
      "constant": false,
      "inputs": [
        {
          "internalType": "uint256",
          "name": "requestedMinInterestRate",
          "type": "uint256"
        }
      ],
      "name": "setMinInterestRate",
      "outputs": [],
      "payable": false,
      "stateMutability": "nonpayable",
      "type": "function"
    },
    {
      "constant": false,
      "inputs": [
        {
          "internalType": "uint256",
          "name": "requestedMaxInterestRate",
          "type": "uint256"
        }
      ],
      "name": "setMaxInterestRate",
      "outputs": [],
      "payable": false,
      "stateMutability": "nonpayable",
      "type": "function"
    },
    {
      "constant": false,
      "inputs": [
        {
          "internalType": "uint256",
          "name": "requestedMinTermLength",
          "type": "uint256"
        }
      ],
      "name": "setMinTermLength",
      "outputs": [],
      "payable": false,
      "stateMutability": "nonpayable",
      "type": "function"
    },
    {
      "constant": false,
      "inputs": [
        {
          "internalType": "uint256",
          "name": "requestedMinAuctionLength",
          "type": "uint256"
        }
      ],
      "name": "setMinAuctionLength",
      "outputs": [],
      "payable": false,
      "stateMutability": "nonpayable",
      "type": "function"
    },
    {
      "constant": false,
      "inputs": [
        {
          "internalType": "uint256",
          "name": "loanMinAmount",
          "type": "uint256"
        },
        {
          "internalType": "uint256",
          "name": "loanMaxAmount",
          "type": "uint256"
        },
        {
          "internalType": "uint256",
          "name": "loanMinInterestRate",
          "type": "uint256"
        },
        {
          "internalType": "uint256",
          "name": "loanMaxInterestRate",
          "type": "uint256"
        },
        {
          "internalType": "uint256",
          "name": "termLength",
          "type": "uint256"
        },
        {
          "internalType": "uint256",
          "name": "auctionLength",
          "type": "uint256"
        }
      ],
      "name": "deploy",
      "outputs": [
        {
          "internalType": "address",
          "name": "",
          "type": "address"
        }
      ],
      "payable": false,
      "stateMutability": "nonpayable",
      "type": "function"
    },
    {
      "constant": true,
      "inputs": [
        {
          "internalType": "address",
          "name": "loanAddress",
          "type": "address"
        }
      ],
      "name": "checkLoanContract",
      "outputs": [
        {
          "internalType": "bool",
          "name": "",
          "type": "bool"
        }
      ],
      "payable": false,
      "stateMutability": "view",
      "type": "function"
    }
  ],
  "bytecode": "0x608060405234801561001057600080fd5b50604051613f93380380613f938339818101604052608081101561003357600080fd5b508051602082015160408301516060909301519192909161005b6001600160e01b0361012316565b600080546001600160a01b0319166001600160a01b03928316178082556040519216917f8be0079c531659141344cd1fd0a4f28419497f9722a3daafe3b4186f6b6457e0908290a3600180546001600160a01b039586166001600160a01b0319918216179091556002805494861694821694909417909355600380549285169284169290921790915560048054919093169116179055670de0b6b3a764000060078190556a02116545850052128000006008556801158e460913d00000600c55600655610127565b3390565b613e5d806101366000396000f3fe60806040523480156200001157600080fd5b5060043610620002145760003560e01c8063a0b335e31162000129578063df8089ef11620000b1578063eb994db1116200007b578063eb994db114620004f3578063f1326b1514620004fd578063f2fde38b1462000526578063f53d0a8e146200054f5762000214565b8063df8089ef146200048d578063e2510b0814620004b6578063e4f107aa14620004c0578063e728b86c14620004ca5762000214565b8063c259905411620000f3578063c2599054146200041a578063c286eebe146200043a578063c34e596f146200045a578063de9375f214620004835762000214565b8063a0b335e314620003bd578063a209730714620003c7578063a3927a0414620003e7578063a9583d5f14620004105762000214565b8063715018a611620001ad5780638da5cb5b11620001775780638da5cb5b14620003615780638f32d59b146200036b57806392ba1fc214620003755780639b2cb5d814620003b35762000214565b8063715018a614620003075780637944f9441462000311578063897b0637146200033757806389afc0f114620003575762000214565b80632e1d0e0f11620001ef5780632e1d0e0f14620002805780634fe47f7014620002bd5780635f48f39314620002dd5780636fc83db314620002e75762000214565b80630d6dd8a814620002195780631026569314620002355780631d0958051462000260575b600080fd5b6200022362000559565b60408051918252519081900360200190f35b6200025e600480360360208110156200024d57600080fd5b50356001600160a01b03166200055f565b005b6200025e600480360360208110156200027857600080fd5b50356200060e565b620002a9600480360360208110156200029857600080fd5b50356001600160a01b0316620006a3565b604080519115158252519081900360200190f35b6200025e60048036036020811015620002d557600080fd5b5035620006c1565b6200022362000795565b6200025e60048036036020811015620002ff57600080fd5b50356200079b565b6200025e620007ef565b6200031b62000895565b604080516001600160a01b039092168252519081900360200190f35b6200025e600480360360208110156200034f57600080fd5b5035620008a4565b6200022362000978565b6200031b6200097e565b620002a96200098d565b6200031b600480360360c08110156200038d57600080fd5b5080359060208101359060408101359060608101359060808101359060a00135620009b3565b6200022362000ecc565b6200022362000ed2565b6200025e60048036036020811015620003df57600080fd5b503562000ed8565b6200025e60048036036020811015620003ff57600080fd5b50356001600160a01b031662000f2c565b6200022362000fde565b6200025e600480360360208110156200043257600080fd5b503562000fe4565b6200025e600480360360208110156200045257600080fd5b5035620010b8565b6200025e600480360360208110156200047257600080fd5b50356001600160a01b03166200118c565b6200031b6200123e565b6200025e60048036036020811015620004a557600080fd5b50356001600160a01b03166200124d565b6200031b62001303565b6200031b62001312565b620002a960048036036020811015620004e257600080fd5b50356001600160a01b031662001321565b6200022362001336565b6200025e600480360360208110156200051557600080fd5b50356001600160a01b03166200133c565b6200025e600480360360208110156200053e57600080fd5b50356001600160a01b0316620013ee565b6200031b62001458565b60095481565b6005546001600160a01b03163314620005ae576040805162461bcd60e51b815260206004820152601e602482015260008051602062003ccc833981519152604482015290519081900360640190fd5b600180546001600160a01b0319166001600160a01b03838116918217909255600554604080519283529216602082015281517fc0bb63ce3c5b13e4918a521d34215bc08febb956464efb22eb2ef6d13374bde7929181900390910190a150565b6005546001600160a01b031633146200065d576040805162461bcd60e51b815260206004820152601e602482015260008051602062003ccc833981519152604482015290519081900360640190fd5b600681905560408051828152306020820152338183015290517f7dd5f7f2a6271519e65bd190731bf6e0e2907a49634f7def0efa0bfeb2b126be9181900360600190a150565b6001600160a01b03166000908152600d602052604090205460ff1690565b6005546001600160a01b0316331462000710576040805162461bcd60e51b815260206004820152601e602482015260008051602062003ccc833981519152604482015290519081900360640190fd5b600754811015620007535760405162461bcd60e51b815260040180806020018281038252603f81526020018062003d2a603f913960400191505060405180910390fd5b60088190556040805182815230602082015281517f91beaf63a7a8596b4bdb5f8ac94494639fe81c50a892206952bc74972e0c3375929181900390910190a150565b60085481565b6005546001600160a01b03163314620007ea576040805162461bcd60e51b815260206004820152601e602482015260008051602062003ccc833981519152604482015290519081900360640190fd5b600a55565b620007f96200098d565b6200084b576040805162461bcd60e51b815260206004820181905260248201527f4f776e61626c653a2063616c6c6572206973206e6f7420746865206f776e6572604482015290519081900360640190fd5b600080546040516001600160a01b03909116907f8be0079c531659141344cd1fd0a4f28419497f9722a3daafe3b4186f6b6457e0908390a3600080546001600160a01b0319169055565b6004546001600160a01b031681565b6005546001600160a01b03163314620008f3576040805162461bcd60e51b815260206004820152601e602482015260008051602062003ccc833981519152604482015290519081900360640190fd5b600854811115620009365760405162461bcd60e51b815260040180806020018281038252603e81526020018062003cec603e913960400191505060405180910390fd5b60078190556040805182815230602082015281517f6a73ad5fc763a8c0bcc28b00ed3e08dff5a3f8a63eea93d9eaae237124259894929181900390910190a150565b60065481565b6000546001600160a01b031690565b600080546001600160a01b0316620009a462001467565b6001600160a01b031614905090565b6001546040805163e2f4327160e01b815233600482015290516000926001600160a01b03169163e2f43271916024808301926020929190829003018186803b158015620009ff57600080fd5b505afa15801562000a14573d6000803e3d6000fd5b505050506040513d602081101562000a2b57600080fd5b505162000a78576040805162461bcd60e51b81526020600482015260166024820152757573657220646f6573206e6f742068617665204b594360501b604482015290519081900360640190fd5b6005546001600160a01b031662000ad6576040805162461bcd60e51b815260206004820152601d60248201527f5468657265206973206e6f2061646d696e6973747261746f7220736574000000604482015290519081900360640190fd5b600754871015801562000aeb57506008548711155b801562000af85750858711155b62000b4a576040805162461bcd60e51b815260206004820152601a60248201527f6d696e696d756d20616d6f756e74206e6f7420636f7272656374000000000000604482015290519081900360640190fd5b600754861015801562000b5f57506008548611155b801562000b6c5750868610155b62000bbe576040805162461bcd60e51b815260206004820152601a60248201527f6d6178696d756d20616d6f756e74206e6f7420636f7272656374000000000000604482015290519081900360640190fd5b600b54841015801562000bd35750600c548411155b62000c105760405162461bcd60e51b815260040180806020018281038252602181526020018062003da56021913960400191505060405180910390fd5b600b54851015801562000c255750600c548511155b62000c625760405162461bcd60e51b815260040180806020018281038252602181526020018062003dc66021913960400191505060405180910390fd5b8484101562000ca35760405162461bcd60e51b815260040180806020018281038252603c81526020018062003d69603c913960400191505060405180910390fd5b60095483101562000cfb576040805162461bcd60e51b815260206004820152601760248201527f5465726d206c656e67746820697320746f20736d616c6c000000000000000000604482015290519081900360640190fd5b600a5482101562000d53576040805162461bcd60e51b815260206004820152601a60248201527f41756374696f6e206c656e67746820697320746f20736d616c6c000000000000604482015290519081900360640190fd5b60025460035460055460065460045460405160009589958e958e958e958e9533956001600160a01b0390811695811694811693928f9291169062000d97906200150d565b9b8c5260208c019a909a526040808c019990995260608b019790975260808a01959095526001600160a01b0393841660a08a015291831660c0890152821660e0880152811661010087015261012086019190915261014085019190915291909116610160830152519081900361018001906000f08015801562000e1e573d6000803e3d6000fd5b506001600160a01b038082166000818152600d6020908152604091829020805460ff191660011790556005546006548351308152928301949094528183018e9052606082018d9052608082018c905260a082018b905260c082018a905260e08201939093526101008101889052905193945091169133917f2b4603b9d928d031812b13be3525c7eeeba386e2162bc5e77107efb2c65db9e291908190036101200190a3979650505050505050565b60075481565b600a5481565b6005546001600160a01b0316331462000f27576040805162461bcd60e51b815260206004820152601e602482015260008051602062003ccc833981519152604482015290519081900360640190fd5b600955565b6005546001600160a01b0316331462000f7b576040805162461bcd60e51b815260206004820152601e602482015260008051602062003ccc833981519152604482015290519081900360640190fd5b600380546001600160a01b0319166001600160a01b0383811691909117918290556005546040805193831684529116602083015280517f8bb5c4da6a28c0a775ad478dc8e43822c3ba46081e01f058e121e645711e4cf09281900390910190a150565b600c5481565b6005546001600160a01b0316331462001033576040805162461bcd60e51b815260206004820152601e602482015260008051602062003ccc833981519152604482015290519081900360640190fd5b600b54811015620010765760405162461bcd60e51b815260040180806020018281038252604381526020018062003c636043913960600191505060405180910390fd5b600c8190556040805182815230602082015281517f231c0f19fcc27c4a82dcc4ddf6f5c7a9e543a9857ca7286bbfe9b306fa83ad27929181900390910190a150565b6005546001600160a01b0316331462001107576040805162461bcd60e51b815260206004820152601e602482015260008051602062003ccc833981519152604482015290519081900360640190fd5b600c548111156200114a5760405162461bcd60e51b815260040180806020018281038252604281526020018062003de76042913960600191505060405180910390fd5b600b8190556040805182815230602082015281517fd2ee5beab74926025e55d9ca98e85bef0ef7c2b31a8d198a555c512973e9f8f6929181900390910190a150565b6005546001600160a01b03163314620011db576040805162461bcd60e51b815260206004820152601e602482015260008051602062003ccc833981519152604482015290519081900360640190fd5b600480546001600160a01b0319166001600160a01b0383811691909117918290556005546040805193831684529116602083015280517f5865a478e66b9f27af93fc6f8b8dce5e2c7977608491c10e95217f9995286a4c9281900390910190a150565b6001546001600160a01b031681565b620012576200098d565b620012a9576040805162461bcd60e51b815260206004820181905260248201527f4f776e61626c653a2063616c6c6572206973206e6f7420746865206f776e6572604482015290519081900360640190fd5b600580546001600160a01b0319166001600160a01b03838116919091179182905560408051929091168252517f8a99bb12510d87c60fe05e5000ed6cd7dd6e1ccc3c11ab703562b101807f3d7c916020908290030190a150565b6003546001600160a01b031681565b6002546001600160a01b031681565b600d6020526000908152604090205460ff1681565b600b5481565b6005546001600160a01b031633146200138b576040805162461bcd60e51b815260206004820152601e602482015260008051602062003ccc833981519152604482015290519081900360640190fd5b600280546001600160a01b0319166001600160a01b0383811691909117918290556005546040805193831684529116602083015280517f18119779ca1bfe36811ae2fc8f1701f1c581c8516f3417c6d51618b4fe1a15ea9281900390910190a150565b620013f86200098d565b6200144a576040805162461bcd60e51b815260206004820181905260248201527f4f776e61626c653a2063616c6c6572206973206e6f7420746865206f776e6572604482015290519081900360640190fd5b62001455816200146b565b50565b6005546001600160a01b031681565b3390565b6001600160a01b038116620014b25760405162461bcd60e51b815260040180806020018281038252602681526020018062003ca66026913960400191505060405180910390fd5b600080546040516001600160a01b03808516939216917f8be0079c531659141344cd1fd0a4f28419497f9722a3daafe3b4186f6b6457e091a3600080546001600160a01b0319166001600160a01b0392909216919091179055565b612747806200151c8339019056fe608060405234801561001057600080fd5b506040516200274738038062002747833981810160405261018081101561003657600080fd5b508051602082015160408301516060840151608085015160a086015160c087015160e0880151610100808a01516101208b01516101408c0151610160909c0151600280546001600160a01b03199081166001600160a01b03808a169190911792839055600180548316828a16179081905560158054610100600160a81b031916948316909802939093179096556016805492871692821692909217909155600380548216868a16179055600480548216868616179055600080549091169482169490941784556010899055601188905560058b905560068a905560098d90554260088190558d01600755600c8c9055600e84905560128290559a9b999a9899979896979596949593949193909290919061014f906101e7565b600454600354600554600654601054601154600854600754601254604080519788526020880196909652868601949094526060860192909252608085015260a084015260c0830152516001600160a01b0393841693929092169130917f79ba55cf4cdf8137180bfdf1fa8b09ff8ad0d14806808b75d6d634f435a17fca919081900360e00190a4505050505050505050505050610208565b6015805482919060ff1916600183600681111561020057fe5b021790555050565b61252f80620002186000396000f3fe608060405234801561001057600080fd5b506004361061025e5760003560e01c80637944f94411610146578063a9133d1a116100c3578063e324ecba11610087578063e324ecba14610497578063e565eb4c146104c3578063e5ab892b146104cb578063eb994db1146104d3578063f53d0a8e146104db578063fcdd8aac146104e35761025e565b8063a9133d1a1461046f578063a9583d5f14610477578063b4ea25801461047f578063c4c77e2514610487578063c6a96c8f1461048f5761025e565b80639d76ea581161010a5780639d76ea58146104475780639dff994e1461044f578063a1cb742e14610457578063a38aaa901461045f578063a3f8d3d6146104675761025e565b80637944f9441461041f57806379b18cd1146104275780637c6076901461042f57806389afc0f1146104375780639b2cb5d81461043f5761025e565b80633c815d9e116101df5780636014488b116101a35780636014488b146103ad57806368fe58bf146103d357806369e0f0f7146103ff5780636d59f4c7146104075780637489b4511461040f5780637594dc73146104175761025e565b80633c815d9e1461031e57806341243a7914610342578063476343ee146103815780635257b5661461039d5780635f48f393146103a55761025e565b806325a35e731161022657806325a35e73146102d8578063325c25a2146102e05780633703bcdc146102e857806339c844861461030e5780633b56621f146103165761025e565b806303115084146102635780630ba95909146102925780630c3f6acf1461029a578063110f8874146102c65780631bab0c79146102d0575b600080fd5b6102806004803603602081101561027957600080fd5b50356104eb565b60408051918252519081900360200190f35b61028061054d565b6102a2610554565b604051808260068111156102b257fe5b60ff16815260200191505060405180910390f35b6102ce61055d565b005b61028061081b565b610280610821565b610280610827565b610280600480360360208110156102fe57600080fd5b50356001600160a01b031661082d565b6102a2610848565b610280610947565b61032661094d565b604080516001600160a01b039092168252519081900360200190f35b6103686004803603602081101561035857600080fd5b50356001600160a01b031661095c565b6040805192835290151560208301528051918290030190f35b610389610978565b604080519115158252519081900360200190f35b610280610ba1565b610280610c91565b610389600480360360208110156103c357600080fd5b50356001600160a01b0316610c97565b610389600480360360408110156103e957600080fd5b506001600160a01b038135169060200135610cb8565b6102ce610e68565b610389610f08565b6102ce610f18565b6102ce6111e6565b61032661151a565b610280611529565b61038961152f565b610280611537565b61028061153d565b610326611543565b610326611552565b610280611561565b610389611567565b6102ce61158f565b610280611a42565b610280611a48565b610280611a4e565b6102ce611a54565b610280611c91565b610389600480360360408110156104ad57600080fd5b506001600160a01b038135169060200135611c97565b61038961204a565b61028061205a565b610280612060565b610326612066565b610280612075565b600061054761053a68056bc75e2d6310000061052161052d62278d00610521600c54610515610ba1565b9063ffffffff61207b16565b9063ffffffff6120db16565b869063ffffffff61207b16565b839063ffffffff61211d16565b92915050565b6006545b90565b60155460ff1681565b610565610848565b50600160155460ff16600681111561057957fe5b146105b55760405162461bcd60e51b815260040180806020018281038252602181526020018061243f6021913960400191505060405180910390fd5b3360009081526014602052604090206001015460ff1615610618576040805162461bcd60e51b81526020600482015260186024820152772632b73232b91030b63932b0b23c903bb4ba34323930bbb760411b604482015290519081900360640190fd5b33600090815260146020526040902054610679576040805162461bcd60e51b815260206004820152601a60248201527f4163636f756e7420646964206e6f74206465706f73697465642e000000000000604482015290519081900360640190fd5b3360009081526014602052604090206001818101805460ff1916909117905554600e546106ab9163ffffffff61211d16565b600e55336000818152601460209081526040918290205482513081529182015281517fd55b5fe81317b854ac11454adf7e5a9a0adf69184d643ef9ae6bfda6a015c5bc929181900390910190a260155433600081815260146020908152604080832054815163a9059cbb60e01b815260048101959095526024850152516101009094046001600160a01b03169363a9059cbb93604480820194918390030190829087803b15801561075b57600080fd5b505af115801561076f573d6000803e3d6000fd5b505050506040513d602081101561078557600080fd5b50516107cf576040805162461bcd60e51b815260206004820152601460248201527332b93937b9103bb434b632903a3930b739b332b960611b604482015290519081900360640190fd5b600d54600e541415610819576107e56005612177565b6040805130815290517f37ead1cfd72a30f28c665ab9c91072a05cef63f5cd4e48fbd172af5cb142c39c9181900360200190a15b565b600a5481565b600d5490565b60095481565b6001600160a01b031660009081526014602052604090205490565b600061085261152f565b801561086e5750600060155460ff16600681111561086c57fe5b145b156108d657601654600160a81b900460ff166108935761088e6001612177565b6108d6565b61089b612198565b6108d65760405162461bcd60e51b815260040180806020018281038252602f8152602001806124cc602f913960400191505060405180910390fd5b6108de611567565b80156108fa5750600260155460ff1660068111156108f857fe5b145b1561093d576109096003612177565b6040805130815290517ff4e5cf42cbb1d0c6c91e16d925349feb6c5d970652f6ec77b1ff1262f7284cd59181900360200190a15b5060155460ff1690565b60075481565b6003546001600160a01b031681565b6014602052600090815260409020805460019091015460ff1682565b6004546000906001600160a01b031633146109da576040805162461bcd60e51b815260206004820152601e60248201527f43616c6c6572206973206e6f7420616e2061646d696e6973747261746f720000604482015290519081900360640190fd5b601654600160a01b900460ff161515600114610a3d576040805162461bcd60e51b815260206004820152601760248201527f626f72726f776572206469646e74207769746864726177000000000000000000604482015290519081900360640190fd5b600060135411610a8b576040805162461bcd60e51b81526020600482015260146024820152736e6f2066756e647320746f20776974686472617760601b604482015290519081900360640190fd5b601380546000918290556015546040805163a9059cbb60e01b815233600482015260248101849052905192936101009092046001600160a01b03169263a9059cbb92604480840193602093929083900390910190829087803b158015610af057600080fd5b505af1158015610b04573d6000803e3d6000fd5b505050506040513d6020811015610b1a57600080fd5b5051610b5f576040805162461bcd60e51b815260206004820152600f60248201526e1d1c985b9cd9995c8819985a5b1959608a1b604482015290519081900360640190fd5b6040805182815233602082015281517f1af4af0a78bc8f5581320dee604e69c4cf2e30512ca9b3cee2c521224d16a767929181900390910190a1600191505090565b60008060155460ff166006811115610bb557fe5b1415610c1b57610c14601054610c08610bdb60085460075461230090919063ffffffff16565b610521610bf36008544261230090919063ffffffff16565b6010546011546105159163ffffffff61230016565b9063ffffffff61211d16565b9050610551565b600260155460ff166006811115610c2e57fe5b1480610c4a5750600460155460ff166006811115610c4857fe5b145b15610c8957610c14601054610c08610c6f60085460075461230090919063ffffffff16565b610521610bf3600854600a5461230090919063ffffffff16565b506000610551565b60065481565b6001600160a01b031660009081526014602052604090206001015460ff1690565b6000610cc2610848565b50600260155460ff166006811115610cd657fe5b14610d24576040805162461bcd60e51b81526020600482015260196024820152784c6f616e20737461747573206973206e6f742041435449564560381b604482015290519081900360640190fd5b6016546001600160a01b03163314610d7d576040805162461bcd60e51b815260206004820152601760248201527643616c6c6572206973206e6f74207468652070726f787960481b604482015290519081900360640190fd5b6003546001600160a01b03848116911614610dc95760405162461bcd60e51b81526004018080602001828103825260228152602001806124606022913960400191505060405180910390fd5b81600f5414610e1f576040805162461bcd60e51b815260206004820181905260248201527f52657061796d656e7420616d6f756e74206973206e6f74207468652073616d65604482015290519081900360640190fd5b610e296004612177565b60408051308152905142917fc200a1f31dd659e356e0f112c82558e25f49f7b0f84438691cd96f5cb3558823919081900360200190a250600192915050565b6004546001600160a01b03163314610ec7576040805162461bcd60e51b815260206004820152601e60248201527f43616c6c6572206973206e6f7420616e2061646d696e6973747261746f720000604482015290519081900360640190fd5b610ed16006612177565b600d5460408051918252517f7fd0d8c82313edf42851fc7c6cf45397c014953cb4ab3bed0dc693a8a42a2e779181900360200190a1565b601654600160a01b900460ff1681565b610f20610848565b50600460155460ff166006811115610f3457fe5b14610f82576040805162461bcd60e51b8152602060048201526019602482015278131bd85b881cdd185d1d5cc81a5cc81b9bdd08149154105251603a1b604482015290519081900360640190fd5b3360009081526014602052604090206001015460ff1615610fe5576040805162461bcd60e51b81526020600482015260186024820152772632b73232b91030b63932b0b23c903bb4ba34323930bbb760411b604482015290519081900360640190fd5b33600090815260146020526040902054611042576040805162461bcd60e51b81526020600482015260196024820152781058d8dbdd5b9d08191a59081b9bdd0819195c1bdcda5d1959603a1b604482015290519081900360640190fd5b3360009081526014602052604081205461105b906104eb565b3360009081526014602052604090206001908101805460ff19169091179055600e54909150611090908263ffffffff61211d16565b600e556015546040805163a9059cbb60e01b81523360048201526024810184905290516101009092046001600160a01b03169163a9059cbb916044808201926020929091908290030181600087803b1580156110eb57600080fd5b505af11580156110ff573d6000803e3d6000fd5b505050506040513d602081101561111557600080fd5b505161115f576040805162461bcd60e51b815260206004820152601460248201527332b93937b9103bb434b632903a3930b739b332b960611b604482015290519081900360640190fd5b6040805130815260208101839052815133927fe02eda18506deb19526f15a5bb3dbfa553e2749c108e5b771ed3c7b36d327efd928290030190a2600f54600e5414156111e3576111af6005612177565b6040805130815290517f37ead1cfd72a30f28c665ab9c91072a05cef63f5cd4e48fbd172af5cb142c39c9181900360200190a15b50565b600660155460ff1660068111156111f957fe5b1461124b576040805162461bcd60e51b815260206004820152601960248201527f4c6f616e20737461747573206973206e6f742046524f5a454e00000000000000604482015290519081900360640190fd5b601654600160a01b900460ff16156112a3576040805162461bcd60e51b81526020600482015260166024820152752637b0b71030b63932b0b23c903bb4ba34323930bbb760511b604482015290519081900360640190fd5b3360009081526014602052604090206001015460ff1615611306576040805162461bcd60e51b81526020600482015260186024820152772632b73232b91030b63932b0b23c903bb4ba34323930bbb760411b604482015290519081900360640190fd5b33600090815260146020526040902054611367576040805162461bcd60e51b815260206004820152601760248201527f4163636f756e7420646964206e6f74206465706f736974000000000000000000604482015290519081900360640190fd5b3360009081526014602052604090206001818101805460ff1916909117905554600e546113999163ffffffff61211d16565b600e5560155433600081815260146020908152604080832054815163a9059cbb60e01b815260048101959095526024850152516101009094046001600160a01b03169363a9059cbb93604480820194918390030190829087803b1580156113ff57600080fd5b505af1158015611413573d6000803e3d6000fd5b505050506040513d602081101561142957600080fd5b5051611473576040805162461bcd60e51b815260206004820152601460248201527332b93937b9103bb434b632903a3930b739b332b960611b604482015290519081900360640190fd5b336000818152601460209081526040918290205482513081529182015281517f9c6ae59d92db7ad6963ca77a6838ca83a271b36a4a22bcaf1a1389dd890b6de6929181900390910190a2601354600d546114d29163ffffffff61211d16565b600e541415610819576114e56005612177565b6040805130815290517fef27002b0ade27a402d1f7349545c3c0134cadb08f2fef44b3a8ebb9542f43b89181900360200190a1565b6000546001600160a01b031681565b600c5481565b600754421190565b60125481565b60055481565b6002546001600160a01b031681565b6001546001600160a01b031681565b600e5481565b60006007544211158061157c5750600b544211155b1561158957506000610551565b50600190565b611597610848565b50600460155460ff1660068111156115ab57fe5b146115f9576040805162461bcd60e51b8152602060048201526019602482015278131bd85b881cdd185d1d5cc81a5cc81b9bdd08149154105251603a1b604482015290519081900360640190fd5b6000546001600160a01b031661164a576040805162461bcd60e51b815260206004820152601160248201527007377617020666163746f7279206973203607c1b604482015290519081900360640190fd5b3360009081526014602052604090206001015460ff16156116ad576040805162461bcd60e51b81526020600482015260186024820152772632b73232b91030b63932b0b23c903bb4ba34323930bbb760411b604482015290519081900360640190fd5b3360009081526014602052604090205461170a576040805162461bcd60e51b81526020600482015260196024820152781058d8dbdd5b9d08191a59081b9bdd0819195c1bdcda5d1959603a1b604482015290519081900360640190fd5b33600090815260146020526040812054611723906104eb565b3360009081526014602052604090206001908101805460ff19169091179055600e54909150611758908263ffffffff61211d16565b600e556000805460408051631dd70c0360e21b815290516001600160a01b039092169163775c300c9160048082019260209290919082900301818787803b1580156117a257600080fd5b505af11580156117b6573d6000803e3d6000fd5b505050506040513d60208110156117cc57600080fd5b505190506001600160a01b03811661181f576040805162461bcd60e51b81526020600482015260116024820152706572726f722073776170206465706c6f7960781b604482015290519081900360640190fd5b6015546040805163095ea7b360e01b81526001600160a01b0384811660048301526024820186905291516101009093049091169163095ea7b3916044808201926020929091908290030181600087803b15801561187b57600080fd5b505af115801561188f573d6000803e3d6000fd5b505050506040513d60208110156118a557600080fd5b50506002546040805163d5657b6560e01b81523360048201526001600160a01b0392831660248201526044810185905290519183169163d5657b659160648082019260009290919082900301818387803b15801561190257600080fd5b505af1158015611916573d6000803e3d6000fd5b50505050806001600160a01b031663a6151a846040518163ffffffff1660e01b815260040160206040518083038186803b15801561195357600080fd5b505afa158015611967573d6000803e3d6000fd5b505050506040513d602081101561197d57600080fd5b50516119ba5760405162461bcd60e51b81526004018080602001828103825260298152602001806124826029913960400191505060405180910390fd5b6040805130815260208101849052815133927fe02eda18506deb19526f15a5bb3dbfa553e2749c108e5b771ed3c7b36d327efd928290030190a2600f54600e541415611a3e57611a0a6005612177565b6040805130815290517f37ead1cfd72a30f28c665ab9c91072a05cef63f5cd4e48fbd172af5cb142c39c9181900360200190a15b5050565b600b5481565b60115481565b600d5481565b611a5c610848565b50600260155460ff166006811115611a7057fe5b14611abe576040805162461bcd60e51b81526020600482015260196024820152784c6f616e20737461747573206973206e6f742041435449564560381b604482015290519081900360640190fd5b6003546001600160a01b03163314611b1d576040805162461bcd60e51b815260206004820152601c60248201527f43616c6c6572206973206e6f7420746865206f726967696e61746f7200000000604482015290519081900360640190fd5b601654600160a01b900460ff1615611b70576040805162461bcd60e51b815260206004820152601160248201527020b63932b0b23c903bb4ba34323930bbb760791b604482015290519081900360640190fd5b6016805460ff60a01b1916600160a01b179055600d54604080513081526020810192909252805133927f26e3b176a4a3653dc7843b0f0aaee7fbeecd147ddad5ba9f8d7973c11ae7406792908290030190a2601554600d546040805163a9059cbb60e01b81523360048201526024810192909252516101009092046001600160a01b03169163a9059cbb916044808201926020929091908290030181600087803b158015611c1d57600080fd5b505af1158015611c31573d6000803e3d6000fd5b505050506040513d6020811015611c4757600080fd5b5051610819576040805162461bcd60e51b815260206004820152601460248201527332b93937b9103bb434b632903a3930b739b332b960611b604482015290519081900360640190fd5b60085481565b60008060155460ff166006811115611cab57fe5b14611cfd576040805162461bcd60e51b815260206004820152601a60248201527f4c6f616e20737461747573206973206e6f742043524541544544000000000000604482015290519081900360640190fd5b6016546001600160a01b03163314611d56576040805162461bcd60e51b815260206004820152601760248201527643616c6c6572206973206e6f74207468652070726f787960481b604482015290519081900360640190fd5b611d5e61152f565b15611e0757600554600d541015611dc457611d796001612177565b604080513081526020810184905281516001600160a01b038616927fb4ff9ef1c49bea835cfa8220740c7295f98889086154d1f4eb3ce4be8dedc5ff928290030190a2506000610547565b611dcc612198565b611d795760405162461bcd60e51b815260040180806020018281038252602f8152602001806124cc602f913960400191505060405180910390fd5b6000611e11610ba1565b6001600160a01b038516600090815260146020526040902054909150611e3d908463ffffffff61211d16565b6001600160a01b038516600090815260146020526040902055600d54611e69908463ffffffff61211d16565b600d81905542600a5560055411801590611e8d5750601654600160a81b900460ff16155b15611f43576016805460ff60a81b1916600160a81b179055600a5460408051308152602081018690528082018490526060810192909252516001600160a01b038616917fd67ae805400a673f32340691a1a850cf59e211ab6ae7d8ae2f20d6a345dd73d6919081900360800190a2600d54604080513081526020810192909252818101839052517f6baa8a391acc42bfd9ea28b82062544499d36144f62d5386e6e46714c043e3d49181900360600190a1611f9a565b600a5460408051308152602081018690528082018490526060810192909252516001600160a01b038616917fd67ae805400a673f32340691a1a850cf59e211ab6ae7d8ae2f20d6a345dd73d6919081900360800190a25b600654600d54141561204057611fae612198565b611fe95760405162461bcd60e51b815260040180806020018281038252602f8152602001806124cc602f913960400191505060405180910390fd5b600f54600d54600a5460408051308152602081019490945283810192909252606083018490526080830152517ffc2b4b7edcf88ba0e9a6e5875a6440b922ee9d15d31a165bcc94713ccb59f6859181900360a00190a15b5060019392505050565b601654600160a81b900460ff1681565b600f5481565b60105481565b6004546001600160a01b031681565b60135481565b60008261208a57506000610547565b8282028284828161209757fe5b04146120d45760405162461bcd60e51b81526004018080602001828103825260218152602001806124ab6021913960400191505060405180910390fd5b9392505050565b60006120d483836040518060400160405280601a81526020017f536166654d6174683a206469766973696f6e206279207a65726f000000000000815250612342565b6000828201838110156120d4576040805162461bcd60e51b815260206004820152601b60248201527f536166654d6174683a206164646974696f6e206f766572666c6f770000000000604482015290519081900360640190fd5b6015805482919060ff1916600183600681111561219057fe5b021790555050565b60008060155460ff1660068111156121ac57fe5b146121fe576040805162461bcd60e51b815260206004820152601a60248201527f4c6f616e20737461747573206973206e6f742043524541544544000000000000604482015290519081900360640190fd5b6122086002612177565b612213600d546104eb565b600f55601254600d5461223a9168056bc75e2d63100000916105219163ffffffff61207b16565b6013819055600d805491909103905560075442101561226f57600c5461226790429063ffffffff61211d16565b600b55612288565b600c546007546122849163ffffffff61211d16565b600b555b7f178ded0e6c629ae6f33779d15bb550296cdc2886af94e238448d041cfcdf491c30600f54600d546013546122bb610ba1565b600a54604080516001600160a01b0390971687526020870195909552858501939093526060850191909152608084015260a0830152519081900360c00190a150600190565b60006120d483836040518060400160405280601e81526020017f536166654d6174683a207375627472616374696f6e206f766572666c6f7700008152506123e4565b600081836123ce5760405162461bcd60e51b81526004018080602001828103825283818151815260200191508051906020019080838360005b8381101561239357818101518382015260200161237b565b50505050905090810190601f1680156123c05780820380516001836020036101000a031916815260200191505b509250505060405180910390fd5b5060008385816123da57fe5b0495945050505050565b600081848411156124365760405162461bcd60e51b815260206004820181815283516024840152835190928392604490910191908501908083836000831561239357818101518382015260200161237b565b50505090039056fe4c6f616e20737461747573206973206e6f74204641494c45445f544f5f46554e4466726f6d2061646472657373206973206e6f7420746865206f726967696e61746f725377617020636f6e7472616374206572726f722c2073686f756c642073656c662d6465737472756374536166654d6174683a206d756c7469706c69636174696f6e206f766572666c6f776572726f72207768696c65207472616e736974696f6e696e6720746f207375636365737366756c2061756374696f6ea265627a7a72315820c85ce200bd65d45e19490ef1057af81d05d1d2f9344c948ca4fceaca1650537064736f6c634300050c00324d6178696d756d20696e746572657374206e6565647320746f2062652067726561746572206f7220657175616c207468616e206d696e696d756d20696e7465726573744f776e61626c653a206e6577206f776e657220697320746865207a65726f206164647265737343616c6c6572206973206e6f7420616e2061646d696e6973747261746f7200004d696e696d756d20616d6f756e74206e6565647320746f206265206c6573736572206f7220657175616c207468616e206d6178696d756d20616d6f756e744d6178696d756d20616d6f756e74206e6565647320746f2062652067726561746572206f7220657175616c207468616e206d696e696d756d20616d6f756e746d696e696d756d20696e7465726573742073686f756c64206e6f742062652067726561746572207468616e206d6178696d756d20696e7465726573746d6178696d756d20696e7465726573742072617465206e6f7420636f72726563746d696e696d756d20696e7465726573742072617465206e6f7420636f72726563744d696e696d756d20696e746572657374206e6565647320746f206265206c6573736572206f7220657175616c207468616e206d6178696d756d20696e746572657374a265627a7a723158206f6921f10393574166af1256f38a1943266b4c9f48a10126ea10e562646d0ce164736f6c634300050c0032",
  "source": "pragma solidity 0.5.12;\n\nimport \"openzeppelin-solidity/contracts/ownership/Ownable.sol\";\nimport \"./interfaces/ILoanContractDispatcher.sol\";\nimport \"./interfaces/IAuthorization.sol\";\nimport \"./LoanContract.sol\";\n\ncontract LoanContractDispatcher is ILoanContractDispatcher, Ownable {\n    address public auth;\n    address public DAITokenAddress;\n    address public DAIProxyAddress;\n    address public swapFactory;\n\n    address public administrator;\n\n    uint256 public operatorFee;\n    uint256 public minAmount;\n    uint256 public maxAmount;\n    uint256 public minTermLength;\n    uint256 public minAuctionLength;\n\n    uint256 public minInterestRate;\n    uint256 public maxInterestRate;\n\n    mapping(address => bool) public isLoanContract;\n\n    modifier onlyKYC {\n        require(IAuthorization(auth).isKYCConfirmed(msg.sender), \"user does not have KYC\");\n        _;\n    }\n\n    modifier onlyAdmin() {\n        require(msg.sender == administrator, \"Caller is not an administrator\");\n        _;\n    }\n\n    event LoanContractCreated(\n        address loanDispatcher,\n        address contractAddress,\n        address indexed originator,\n        uint256 minAmount,\n        uint256 maxAmount,\n        uint256 minInterestRate,\n        uint256 maxInterestRate,\n        uint256 termEndTimestamp,\n        address indexed administrator,\n        uint256 operatorFee,\n        uint256 auctionLength\n    );\n\n    event MinAmountUpdated(uint256 minAmount, address loanDispatcher);\n    event MaxAmountUpdated(uint256 maxAmount, address loanDispatcher);\n    event MinInterestRateUpdated(uint256 minInterestRate, address loanDispatcher);\n    event MaxInterestRateUpdated(uint256 maxInterestRate, address loanDispatcher);\n    event OperatorFeeUpdated(uint256 operatorFee, address loanDispatcher, address administrator);\n\n    event AuthAddressUpdated(address newAuthAddress, address administrator);\n    event DaiTokenAddressUpdated(address newDaiTokenAddress, address administrator);\n    event DaiProxyAddressUpdated(address newDaiProxyAddress, address administrator);\n    event SwapFactoryAddressUpdated(address newSwapFactory, address administrator);\n\n    event AdministratorUpdated(address newAdminAddress);\n\n    constructor(\n        address authAddress,\n        address _DAITokenAddress,\n        address _DAIProxyAddress,\n        address _swapFactory\n    ) public {\n        auth = authAddress;\n        DAITokenAddress = _DAITokenAddress;\n        DAIProxyAddress = _DAIProxyAddress;\n        swapFactory = _swapFactory;\n        minAmount = 1e18; //1000000000000000000; // Minimum 1 DAI\n        maxAmount = 2500000e18; //2500000000000000000000000; // Maximum 2.5 Million DAI\n\n        maxInterestRate = 20e18; //20000000000000000000; // Max default MiR 20% / 240% APR\n\n        operatorFee = 1e18; //1000000000000000000; // 1 % operator fee, expressed in wei\n    }\n\n    function setDaiTokenAddress(address daiAddress) external onlyAdmin {\n        DAITokenAddress = daiAddress;\n        emit DaiTokenAddressUpdated(DAITokenAddress, administrator);\n    }\n\n    function setAuthAddress(address authAddress) external onlyAdmin {\n        auth = authAddress;\n        emit AuthAddressUpdated(authAddress, administrator);\n    }\n\n    function setDaiProxyAddress(address daiProxyAddress) external onlyAdmin {\n        DAIProxyAddress = daiProxyAddress;\n        emit DaiProxyAddressUpdated(DAIProxyAddress, administrator);\n    }\n\n    function setSwapFactory(address _swapFactory) external onlyAdmin {\n        swapFactory = _swapFactory;\n        emit SwapFactoryAddressUpdated(swapFactory, administrator);\n    }\n\n    function setAdministrator(address admin) external onlyOwner {\n        administrator = admin;\n        emit AdministratorUpdated(administrator);\n    }\n\n    function setOperatorFee(uint256 newFee) external onlyAdmin {\n        operatorFee = newFee;\n        emit OperatorFeeUpdated(operatorFee, address(this), msg.sender);\n    }\n\n    function setMinAmount(uint256 requestedMinAmount) external onlyAdmin {\n        require(\n            requestedMinAmount <= maxAmount,\n            \"Minimum amount needs to be lesser or equal than maximum amount\"\n        );\n        minAmount = requestedMinAmount;\n        emit MinAmountUpdated(minAmount, address(this));\n    }\n\n    function setMaxAmount(uint256 requestedMaxAmount) external onlyAdmin {\n        require(\n            requestedMaxAmount >= minAmount,\n            \"Maximum amount needs to be greater or equal than minimum amount\"\n        );\n        maxAmount = requestedMaxAmount;\n        emit MaxAmountUpdated(maxAmount, address(this));\n    }\n\n    function setMinInterestRate(uint256 requestedMinInterestRate) external onlyAdmin {\n        require(\n            requestedMinInterestRate <= maxInterestRate,\n            \"Minimum interest needs to be lesser or equal than maximum interest\"\n        );\n        minInterestRate = requestedMinInterestRate;\n        emit MinInterestRateUpdated(minInterestRate, address(this));\n    }\n\n    function setMaxInterestRate(uint256 requestedMaxInterestRate) external onlyAdmin {\n        require(\n            requestedMaxInterestRate >= minInterestRate,\n            \"Maximum interest needs to be greater or equal than minimum interest\"\n        );\n        maxInterestRate = requestedMaxInterestRate;\n        emit MaxInterestRateUpdated(maxInterestRate, address(this));\n    }\n\n    function setMinTermLength(uint256 requestedMinTermLength) external onlyAdmin {\n        minTermLength = requestedMinTermLength;\n    }\n\n    function setMinAuctionLength(uint256 requestedMinAuctionLength) external onlyAdmin {\n        minAuctionLength = requestedMinAuctionLength;\n    }\n\n    function deploy(\n        uint256 loanMinAmount,\n        uint256 loanMaxAmount,\n        uint256 loanMinInterestRate,\n        uint256 loanMaxInterestRate,\n        uint256 termLength,\n        uint256 auctionLength\n    ) external onlyKYC returns (address) {\n        require(administrator != address(0), \"There is no administrator set\");\n        require(\n            loanMinAmount >= minAmount &&\n                loanMinAmount <= maxAmount &&\n                loanMinAmount <= loanMaxAmount,\n            \"minimum amount not correct\"\n        );\n        require(\n            loanMaxAmount >= minAmount &&\n                loanMaxAmount <= maxAmount &&\n                loanMaxAmount >= loanMinAmount,\n            \"maximum amount not correct\"\n        );\n        require(\n            loanMaxInterestRate >= minInterestRate && loanMaxInterestRate <= maxInterestRate,\n            \"maximum interest rate not correct\"\n        );\n        require(\n            loanMinInterestRate >= minInterestRate && loanMinInterestRate <= maxInterestRate,\n            \"minimum interest rate not correct\"\n        );\n        require(\n            loanMaxInterestRate >= loanMinInterestRate,\n            \"minimum interest should not be greater than maximum interest\"\n        );\n        require(termLength >= minTermLength, \"Term length is to small\");\n        require(auctionLength >= minAuctionLength, \"Auction length is to small\");\n\n        LoanContract loanContract = new LoanContract(\n            termLength,\n            loanMinAmount,\n            loanMaxAmount,\n            loanMinInterestRate,\n            loanMaxInterestRate,\n            msg.sender,\n            DAITokenAddress,\n            DAIProxyAddress,\n            administrator,\n            operatorFee,\n            auctionLength,\n            swapFactory\n        );\n        isLoanContract[address(loanContract)] = true;\n\n        emit LoanContractCreated(\n            address(this),\n            address(loanContract),\n            msg.sender,\n            loanMinAmount,\n            loanMaxAmount,\n            loanMinInterestRate,\n            loanMaxInterestRate,\n            termLength,\n            administrator,\n            operatorFee,\n            auctionLength\n        );\n\n        return address(loanContract);\n    }\n\n    function checkLoanContract(address loanAddress) external view returns (bool) {\n        return isLoanContract[loanAddress];\n    }\n\n}\n",
  "sourcePath": "/home/kartojal/repos/contracts-solidity/contracts/LoanContractDispatcher.sol",
  "compiler": {
    "name": "solc",
    "version": "0.5.12+commit.7709ece9.Emscripten.clang"
  },
  "schemaVersion": "3.0.23",
  "updatedAt": "2020-02-25T09:36:21.236Z",
  "devdoc": {
    "methods": {
      "isOwner()": {
        "details": "Returns true if the caller is the current owner."
      },
      "owner()": {
        "details": "Returns the address of the current owner."
      },
      "renounceOwnership()": {
        "details": "Leaves the contract without owner. It will not be possible to call `onlyOwner` functions anymore. Can only be called by the current owner.     * NOTE: Renouncing ownership will leave the contract without an owner, thereby removing any functionality that is only available to the owner."
      },
      "transferOwnership(address)": {
        "details": "Transfers ownership of the contract to a new account (`newOwner`). Can only be called by the current owner."
      }
    }
  },
  "userdoc": {
    "methods": {}
  }
}